:020000040800F2
:10000000C80700200101000833280008BD240008AB
:100010003128000809080008552E000800000000DB
:10002000000000000000000000000000BB280008E5
:100030008D08000800000000652800080929000854
:100040001B0100081B0100081B0100081B01000820
:100050001B0100081B0100081B0100081B01000810
:100060001B0100081B0100081B0100081B01000800
:100070001B0100081B0100081B0100081B010008F0
:100080001B0100081B0100081B0100081B010008E0
:100090001B0100081B0100081B01000839090008AA
:1000A0001B010008892900081B0100081B0100082A
:1000B00095290008A1290008AD2900081B010008A6
:1000C0001B0100081B0100081B0100081B010008A0
:1000D0001B010008492E00081B0100081B01000835
:1000E0001B0100081B0100081B010008DFF80CD0F1
:1000F00000F0BAFA004800473D310008C807002068
:100100000648804706480047FEE7FEE7FEE7FEE7B1
:10011000FEE7FEE7FEE7FEE7FEE7FEE785290008CB
:10012000ED000008202A04DB203A21FA02F0002129
:10013000704721FA02F3D040C2F1200291400843F7
:1001400019467047D2B201E000F8012B491EFBD2DC
:1001500070470022F6E710B513460A4604461946D2
:10016000FFF7F0FF204610BDF0B480EA0102D40F83
:100170004200B2EB410F02D20246084611464A0045
:1001800042D0C30DDDB2C1F3C752AD1A202D35DA0E
:10019000C1F3160141F4000204B15242C5F1200638
:1001A00002FA06F12A411044B3EBD05F23D0C4B168
:1001B000012DA0EBC35009DCF0BC4FF0004202EA75
:1001C000C352DBB200F5000000F0C2B9400000F1FC
:1001D000807000EBC350A0F1807040EAD1704900FC
:1001E00009E0490841EAC071A0EBC35000F50000E6
:1001F000400800EBC350F0BC00F0A1B961420122FD
:1002000002EB4101001BF6E7F0BC704781F00041B2
:10021000AAE780F00040A7E72DE9FE4F804681EA7B
:100220000300C00F0C46009021F0004123F0004570
:10023000B8EB0200A94105D24046214690461C4633
:100240000B46024623F00040104347D0270DC7F36A
:100250000A00C3F30A510290401A019040286BDA59
:10026000C3F3130040F4801B0098924620B1002392
:10027000D2EB030A63EB0B0B01985946C0F1400225
:10028000504600F03BF906460D4650465946019A45
:1002900000F043F910EB08006141002487EA115295
:1002A00084EAE7731A4340D0009A62B3019A012AA4
:1002B0004FEA075215DC001B61EB02014FF00042D0
:1002C00002EA0752CDE90042001C41F58011324696
:1002D0002B4600F07AF903B0BDE8F08F4046214686
:1002E000F9E7001B61EB0201001C41F580130018C7
:1002F0005B412018A2F5001747EB030140EAD570D7
:10030000B6196D4111E06D084FEA360645EAC07531
:100310004FEA0752001B61EB0201001C41F58011FE
:1003200049084FEA30000019514132462B4603B0CC
:10033000BDE8F04F00F03AB90098012240000023D8
:10034000D0EB020263EBE073009821464FEAE074C1
:10035000B8EB000061EB0401E9E783F000435BE7E1
:1003600081F0004158E72DE9FE4F81EA030404F0D3
:10037000004421F0004100944FF0000B23F00043B3
:1003800050EA01045ED052EA03045BD0C3F30A547E
:10039000C1F30A552C44A4F2F3340194A0FB025497
:1003A000C1F3130141F48011C3F3130343F4801329
:1003B00001FB024400FB034E840A970A44EA81547D
:1003C00047EA8357A4FB076802958D0A05FB07855A
:1003D0004FEA932C04FB0C542705029D4FEA065864
:1003E00047EA1637B5EB08056EEB070C870E920E41
:1003F00047EA811742EA8312A7FB0201B6EB0B0121
:1004000064EB00042B0D43EA0C335E1844EB1C50E4
:10041000DA465146E7FB0201C5F313044FEA0B33FA
:1004200043EA14534FEA0432019C43EA0603A4F161
:100430000C040294009CCDE900B400F0C6F803B0AF
:10044000BDE8F08F00200146F9E7C10F80EAE070B7
:100450000844CA079623002100F07AB896230022A8
:10046000114600F075B80EB5C10F80EAE07008447F
:10047000CA07002140F233438DE80E000A460B46BE
:1004800000F0A3F803B000BD00F0004230F00040DF
:100490000AD0C10D01F56071C0F3160042EA0151A6
:1004A000C20840071143704700200146704701F021
:1004B000004330B421F0004150EA010206D00A0D99
:1004C000A2F56072C1F31301002A02DC30BC0020E7
:1004D0007047440F44EAC104C100E01830BC00EB8F
:1004E000C25000F02CB80000002801DBC0F1004031
:1004F000002901DBC1F1004188427047202A04DB5A
:10050000203A00FA02F1002070479140C2F1200326
:1005100020FA03F3194390407047202A06DBCB17DB
:10052000203A41FA02F043EAE07306E041FA02F3AE
:10053000D040C2F12002914008431946704700297B
:10054000A8BF7047401C490008BF20F00100704759
:1005500010B4B0FA80FC00FA0CF050EA010404BFB9
:1005600010BC704749B1CCF1200421FA04F411FA0F
:100570000CF118BF012121430843A3EB0C01CB1D53
:100580004FEA00614FEA102042BF002010BC7047C4
:1005900000EBC35010440029A4BF10BC7047401C9E
:1005A000490008BF20F0010010BC704710B5141EB0
:1005B00073F1000408DA401C41F1000192185B411C
:1005C0001A4301D120F0010010BD2DE9F04D9246F3
:1005D0009B4611B1B1FA81F202E0B0FA80F220320A
:1005E0009046FFF78BFF04460F4640EA0A0041EAB7
:1005F0000B0153465A46084313D0114653EA0100F3
:1006000019D0C8F140025046FFF78CFD05460E4652
:10061000504659464246FFF771FF084305D0012076
:1006200004E020463946BDE8F08D0020054346EA47
:10063000E0762C4337430A986305E40AA0EB0800F0
:100640000022FD0A44EA47540A3002D50020014640
:10065000E9E7010510196941DDE90845001969411B
:10066000BDE8F04DA2E70000064C074D06E0E0684B
:1006700040F0010394E8070098471034AC42F6D3E9
:10068000FFF738FDF44300081444000870B5044631
:1006900000688168C943C9071CD1816821F0010144
:1006A000816000F0A1FC05460FE000BF00F09CFC5B
:1006B000401B022809D9A06A40F01000A062E06A3D
:1006C00040F00100E062012070BD20688068C043F6
:1006D000C007EBD0002070BDF8B500260446009698
:1006E00000688168C943C90728D0816841F00101C9
:1006F0008160134813490068B0FBF1F000E0401E30
:1007000000900028FBD100F06FFC054611E000BF0F
:1007100000F06AFC401B02280BD9A06A40F01000D0
:10072000A062E06A40F00100E06284F824600120E9
:10073000F8BD20688068C043C007E9D10020F8BD3B
:10074000A800002040420F0002460E4810B50B469C
:10075000816809B1C06818B103F006FD002010BD22
:10076000184600F019F99042184604DA02F0B0F881
:1007700002F070F8F2E702F08BF800F07FF8012049
:1007800010BD0000000000202DE9F0411C4C074680
:100790001646A0680D4608B1E06820B103F0E4FCFD
:1007A0000020BDE8F08102F07BFC0028304620D01C
:1007B00002F08EF800F05AF802F054FA02F042FA11
:1007C0003846FFF742FE0146206CFFF78DFE3046AB
:1007D00007D802F05DF802F025FA02F013FA0120C2
:1007E000DFE700F0D9F8A842DADB0649012088618A
:1007F000D6E702F07BF802F005FA02F023F8CFE723
:1008000000000020C4010020FEE7000010B50F48E2
:1008100000F04CF9FFF722FE0D4C216BFFF7A4FC12
:100820002063E16A491CE16264290EDBFFF72CFEBC
:10083000084A094BFFF797FDFFF739FE606302F0A6
:100840004BFB20640020E062206310BDE00100202B
:10085000000000207B14AE47E17A843F0022802113
:10086000014800F0BCBB000000080140002202214A
:10087000014800F0B4BB0000000C0140002201213F
:10088000014800F0ACBB0000000C014070470000C4
:1008900070B5044612480D46816809B1C06818B1A8
:1008A00003F062FC002070BD02F0FAFB002828462D
:1008B00011D002F00DF802F0D5F9FFF7D7FF284666
:1008C00000F06AF8A042EDDB284601F0E1FF02F0FB
:1008D000A9F9012070BD02F009F801F0B3FFE1E7CA
:1008E0000000002070B5124C02460D46A06890B181
:1008F000E06880B9084601F0EBFF284600F04CF8AC
:10090000904202DA02F0A6F907E002F0C9FB30B12A
:1009100008490120886003F027FC002070BD02F028
:1009200079F900206060284601F0B2FF012070BD17
:1009300000000020C401002010B5202000F046FA7D
:10094000BDE81040402000F041BA72B6FEE710B595
:1009500003460C46084600F017F8C2B2B2EB430F4C
:1009600020460ADA01F0B4FFD00702D002F062F9A3
:1009700001E002F03FF9002010BD01F089FF02F014
:1009800039F9012010BD0000024901EBC00050F808
:10099000080C70472C010020044901EBC00050F8FE
:1009A000080C00EBD0704010704700002C010020B4
:1009B000F8B50024009490F824202546012A12D08E
:1009C000012280F824204A681F23072A0DD20668D6
:1009D000776B521E02EB820293409F430B68934059
:1009E0001F43776319E00220F8BD06680D2A0AD27A
:1009F000376BD21F02EB820293409F430B689340F8
:100A00001F43376309E0F76A0D3A02EB8202934015
:100A10009F430B6893401F43F7620A6807230668E9
:100A20000A2A0AD3F7680A3A02EB420293409F432C
:100A30008B6893401F43F76008E0376902EB42027E
:100A400093409F438B6893401F4337610A68102A85
:100A500001D0112A20D1124B02689A4217D1936813
:100A60001B0219D4936843F40003936009681029AA
:100A700012D10C490C4A0968B1FBF2F101EB81017A
:100A8000490000E0491E00910029FBD104E0816A81
:100A900041F020018162012480F824502046F8BDF5
:100AA00000240140A800002040420F000068C06CF4
:100AB000704700002DE9F0414FF0000704003D466B
:100AC0007ED0A06A002628B9E66284F82460204619
:100AD00000F07EF82046FFF7D9FDA16AC90600D4D0
:100AE00020B1A06A40F01000A06269E0A16A21F480
:100AF000885141F00201A1626268E169237B0A43E7
:100B000047EA43010A43A1684FF48077B94209D00C
:100B1000012907D05FF0000194F814C0BCF1010F67
:100B200002D00AE03946F7E7F3B1A36A43F02003A5
:100B3000A362E36A43F00103E3622368D3F804C0CD
:100B40002CF4694C4CEA010CC3F804C021688B6892
:100B5000DFF870C003EA0C0313438B60A168B9424D
:100B60000BD0012909D00CE0DFF85CC0A3690CEBC5
:100B700043330B4343F40061DFE7218A0D05A5F5FC
:100B800080152168CB6A23F470032B43CB62216864
:100B900089680E4B1940914208D1E662A16A21F0A2
:100BA000020141F00101A162BDE8F081A06A20F0DC
:100BB000020040F01000A062E06A40F00100E06234
:100BC0000120F1E7FDF7E1FF00E0FFFFFE0E1FFF50
:100BD00000B585B000210091019102910391006858
:100BE0000E49884218D10E48816941F40071816133
:100BF000816901F400710491816941F0040181610E
:100C00008069694600F004000490012000900320F0
:100C10000190044800F0E6F805B000BD0024014052
:100C2000001002400008014070B5044690F824000E
:100C300001280DD0012084F824002046FFF74CFD48
:100C400002004FF0000005D084F82400104670BD6B
:100C5000022070BDA16A40F20123994341F48071E2
:100C6000A1621F4D23681F49AB4218D10E6816F4CC
:100C7000702F14D0A66A46F48016A6620E68760518
:100C800005D5A66A26F4005646F48056A662A66AE2
:100C9000F6040AD5E66A26F00606E66206E0A66ACB
:100CA00026F48016A6625E68E9E7E06284F8240014
:100CB0006FF00200186020688368C3F34243072B7B
:100CC00005D1A84208D1096811F4702F04D08168B9
:100CD00041F480118160B9E7816841F4A001F9E72E
:100CE000002801400424014010B590F82110002490
:100CF000022903D00421816301243DE001680A68D0
:100D000022F00E020A6001680A6822F001020A60FD
:100D10001A4A0168914201D1012121E0174A143297
:100D2000914201D110211BE0144A2832914201D195
:100D3000891515E0114A3C32914201D189140FE026
:100D40000E4A5032914202D14FF4803108E00B4AF2
:100D50006432914202D14FF4801101E04FF0807172
:100D6000064A083A5160012180F82110002180F8DC
:100D70002010416B01B18847204610BD0800024099
:100D800070B5044600F030F90546601C02D00448F6
:100D90000078044400F028F9401BA042FAD370BD4B
:100DA0009C0000200022084920280AD0402807D1B2
:100DB000C86D10B1886C401C88640120CA65486504
:100DC00070474A647047000000000020044910B5D5
:100DD0000A68024202D00860FFF7E4FF10BD00007D
:100DE000140401402DE9F84FDFF8B891002409F10F
:100DF000040A0AF1040B23460F270BF1040EC9E085
:100E00000125A5402A40AA427DD1674ED1F804C0F1
:100E1000ACEB0608B44532D014DCBCF1030F3AD079
:100E200009DCBCF1000F2AD0BCF1010F1CD0BCF1D1
:100E3000020F31D11DE0BCF1110F17D0BCF1120F20
:100E40002AD119E0B8F5881F19D006DCB8F5803F23
:100E500015D0B8F5801F1FD111E0B8F5001F0ED0D6
:100E6000B8F5041F18D10AE0CB6815E0CB681B1D4C
:100E700012E0CB6808330FE0CB680C330CE08B68D2
:100E80002BB1012B4FF0080303D0456104E004238C
:100E900002E0056100E00023FF2A01D8064601E0D8
:100EA00000F104064FEA840501D9A5F12005D6F822
:100EB000008007FA05FC28EA0C0803FA05F548EA61
:100EC0000508C6F800804D68ED0062D5374DAE6963
:100ED00046F00106AE61AD6924F0030605F0010598
:100EE0000095334D06EB050CDCF80850A607360FCD
:100EF00007FA06F825EA0805DFF8B880404503D16F
:100F00004FF0000817E044E0DFF8AC80404502D124
:100F10004FF001080FE0DFF8A480404502D14FF008
:100F2000020808E0DFF89880404502D14FF003083E
:100F300001E04FF0040808FA06F848EA0508CCF882
:100F400008804D68D9F80060ED034D4601D5164381
:100F500000E096432E604D68DAF80060AD03554618
:100F600001D5164300E096432E604D68DBF8006023
:100F7000ED025D4601D5164300E096432E604D68B4
:100F8000DEF80060AD02754601D5164300E09643D9
:100F90002E60641C0D682A46E5407FF431AFBDE841
:100FA000F88F000000040140000011100010024002
:100FB0000000014000080140000C01400010014009
:100FC000001401408068084000D001207047C268CA
:100FD00021EA02030A4043EA0241016170470AB173
:100FE000016170470904FBE7014880687047000011
:100FF0009C00002070B5040025D094F83D00002529
:1010000020B984F83C50204600F0B8F8242084F839
:101010003D002068016821F001010160206801683D
:1010200041F4004101602068016821F40041016041
:1010300000F076FA4D4A6168914201D84C4900E0CF
:101040004C49884201D2012070BD4B492368B0FB56
:10105000F1F15E6826F03F060E435E6063689342DE
:1010600006D94FF4967359434FF47A73B1FBF3F1F9
:101070002368491C1E6A26F03F06314319626168E5
:10108000914210D84900401EB0FBF1F2521CC2F34D
:101090000B02042A01D2042022E0B0FBF1F0401C34
:1010A000C0F30B001CE0A268F2B301EBC10303EB39
:1010B0000116431EB3FBF6F35B1C43F480431B0590
:1010C00049D092B301EBC10202EB0111401EB0FB0B
:1010D000F1F0401CC0F30B0040F4804040F40040AD
:1010E0002168CA694CF6FF739A431043C861D4E97A
:1010F000071001432068026822F0C002114301601A
:10110000D4E9030101432068826848F2FF339A431F
:1011100011438160D4E9050108432168CA6822F0BF
:10112000FF021043C86001E00EE016E0206801688D
:1011300041F0010101602564202084F83D00256311
:1011400084F83E50002070BD01EB4106431EB3FB06
:10115000F6F35B1CB3E70120C2E701EB4101401E3F
:10116000B0FBF1F0401CC0F30B00B7E7A086010014
:1011700080841E0000093D0040420F0010B586B07B
:101180000021009101910291039100680F4988426A
:101190001AD10F4CA06940F00800A061A06969460F
:1011A00000F008000490C02000901220019003205D
:1011B00003900848FFF716FEE06940F40010E06174
:1011C000E06900F40010049006B010BD0054004027
:1011D00000100240000C014002488168027811446E
:1011E000816070479C000020074810B5016841F0FD
:1011F00010010160032000F075F8002000F006F8EF
:1012000000F024F8002010BD0020024070B50D4D04
:1012100004464FF47A712878B1FBF0F00A49096866
:10122000B1FBF0F000F062FB48B9102C07D20022AD
:101230002146501E00F036F800206C6070BD012081
:1012400070BD00009C000020A80000200C4808B5DC
:10125000816941F001018161816901F00101009121
:10126000C16941F08051C161C06900F080500090B7
:101270000448416821F0E06141F00071416008BD1F
:101280000010024000000140002809DB00F01F02AE
:10129000012191404009800000F1E020C0F80011D8
:1012A00070470000F0B40E4B1B680C46C3F30223DA
:1012B000C3F10705042D00D90425191D072901D202
:1012C000002300E0DB1E012606FA05F1491E21403D
:1012D00099409E40761E16403143F0BC01F0DCBDC3
:1012E0000CED00E0064900F0070208684FF6FF0326
:1012F000184040EA0220034A10430860704700008B
:101300000CED00E00000FA052DE9F84305460078F1
:10131000354CC00754D0E0690026C00008D4E0690D
:1013200040F08050E061E069012600F080500090BC
:101330002E480168C90512D40168804641F48071C5
:101340000160FFF751FE074605E000BFFFF74CFEC6
:10135000C01B642823D8D8F80000C005F6D5206A41
:1013600010F4407021D0A98801F4407181421CD052
:10137000206A1F49012220F440700A6000220A609E
:101380002062C00711D0FFF72FFE074641F28838D0
:1013900008E000BFFFF728FEC11B414502D903202A
:1013A000BDE8F883206A8007F4D5206A696820F4D4
:1013B0004070084320621EB1E06920F08050E06177
:1013C0002878800705D56068A96820F44040084364
:1013D00060602878C00605D56068E96820F4800060
:1013E000084360600020DBE700100240007000400E
:1013F000400442422DE9F0470F46050061D0434EBC
:10140000306800F00700B84209D2306820F00700C9
:1014100038433060306800F00700B84251D1286886
:101420003B4C810712D5400703D5606840F4E0606B
:1014300060602878000703D5606840F46050606001
:101440006068A96820F0F000084360602878C00751
:1014500028D06868012810D02168022810D0890798
:1014600000292EDA616821F0030101436160FFF772
:10147000BBFD804641F288390DE021688903EFE722
:101480008901EDE7FFF7B0FDA0EB0801494502D95E
:101490000320BDE8F0876068696800F00C00B0EBDD
:1014A000810FEFD1306800F00700B8420BD93068E7
:1014B00020F0070038433060306800F00700B84281
:1014C00001D00120E5E72878400705D56068E96884
:1014D00020F4E060084360602878000706D5606863
:1014E000296920F4605040EAC100606000F038F8DB
:1014F0006168084AC1F30311515CC840064908609D
:1015000006480068FFF782FE0020C2E70020024084
:1015100000100240DC430008A8000020A0000020CA
:101520000448054900684968044AC1F30221515C36
:10153000C8407047A800002000100240EC4300089B
:101540000448054900684968044AC1F3C221515C56
:10155000C8407047A800002000100240EC4300087B
:1015600012A185B00FC98DE80F0014A0144A0068BD
:1015700004905168134801F00C03042B10D0082B81
:101580000ED1C1F38343C9031DF803000AD5516886
:1015900004AAC1F34041515C0A4A5043B0FBF1F048
:1015A00005B0704708494843FAE700000203040504
:1015B000060708090A0B0C0D0E0F1010010200009F
:1015C0000010024000127A0000093D002DE9F84F9A
:1015D000040070D02078C04DC00749D06868C0F3BF
:1015E0008100012807D06868C0F38100022809D172
:1015F0006868C00306D52868800339D5606800286C
:10160000E7D035E06068B0F5803F0BD010B1B0F5A1
:10161000A02F11D0286820F480302860286820F49A
:10162000802002E0286840F480302860606890B133
:10163000FFF7DAFC06460AE0286840F480202860BC
:10164000F0E700BFFFF7D0FC801B642873D8286840
:101650008003F7D50CE0FFF7C7FC064605E000BFA6
:10166000FFF7C2FC801B6428F0D828688003F7D4F9
:1016700020789A4E80074FF001094FF0000839D5C5
:10168000686810F00C0F07D06868C0F3810002286A
:1016900009D16868C00306D42868800714D520697A
:1016A000012808D110E02069B0B1C6F80090FFF71A
:1016B0009BFC074605E00AE1FFF796FCC01B0228E9
:1016C000C4D828688007F7D52868616920F0F80039
:1016D00040EAC10028600DE0C6F80080FFF784FCF6
:1016E000074604E0FFF780FCC01B022823D82868C7
:1016F0008007F7D4207800072CD57948A169D9B1A3
:10170000C0F80090FFF770FC074604E0FFF76CFCA0
:10171000C01B02280FD8686A8007F7D571484FF4BC
:10172000FA510068B0FBF1F0009000BF0098411E34
:101730000091FAD20EE080E0C0F80080FFF754FC80
:10174000074604E0FFF750FCC01B022875D8686A02
:101750008007F7D42078400760D5E8690027C000EB
:1017600008D4E86940F08050E861E869012700F09A
:10177000805000905C480168C90513D40168834615
:1017800041F480710160FFF72FFC824606E000BF44
:10179000FFF72AFCA0EB0A0064284ED8DBF8000013
:1017A000C005F5D5E06801280AD008B1052813D096
:1017B000286A20F001002862286A20F0040002E074
:1017C000286A40F001002862E06841F2883B98B145
:1017D000FFF70AFC82460BE0286A40F0040028620A
:1017E000EEE700BFFFF700FCA0EB0A0159455AD80D
:1017F000286A8007F6D50CE0FFF7F6FB824605E085
:10180000FFF7F2FBA0EB0A0159454CD8286A800784
:10181000F6D41FB1E86920F08050E861E06988B330
:101820006968C1F38101022944D00228C6F86080AA
:1018300004D0FFF7D9FB044638E034E0FFF7D4FBCF
:10184000074604E0FFF7D0FBC01B02282BD828680E
:101850008001F7D4206AB0F5803F05D16868A1689F
:1018600020F4003008436860D4E90801084369683F
:1018700021F4741108436860C6F86090FFF7B4FB68
:10188000044606E025E000BFFFF7AEFB001B022880
:1018900009D828688001F7D51BE000BFFFF7A4FB3B
:1018A000001B022802D90320BDE8F88F28688001B8
:1018B000F4D40EE00128F7D06868226A00F4803181
:1018C000914204D1616A00F47010884201D0012075
:1018D000EAE70020E8E70000001002400000424272
:1018E00080044242A80000200070004010B5401E55
:1018F000B0F1807F01D3012010BD4FF0E024606182
:101900000F21601701F0C8FA0020A06107202061B4
:10191000002010BD7047704770B590F83C20012A38
:1019200026D0012480F83C40022280F83D20036844
:101930005A689D6822F070060A6832435A600D4B5F
:1019400002689A4208D0B2F1804F05D00A4B9A4201
:1019500002D00A4B9A4204D1496825F0800319430A
:10196000916080F83D40002180F83C10084670BD31
:10197000022070BD002C014000040040000800401F
:1019800010B5040003D094F83D0010B107E0012029
:1019900010BD002084F83C00204600F01FF8022013
:1019A00084F83D00211D206801F006F8012084F82C
:1019B000460084F83E0084F83F0084F8400084F834
:1019C000410084F8420084F8430084F8440084F81D
:1019D000450084F83D00002010BD000008B51E4AF7
:1019E00001681E4891420ED1816941F40061816114
:1019F0008069002200F40060009011461920FFF772
:101A000051FC192022E0164A91420ED1C16941F0E1
:101A10000201C161C069002200F00200009011467D
:101A20001D20FFF73FFC1D2010E00E4A914211D10E
:101A3000C16941F00401C161C069002200F00400E5
:101A4000009011461E20FFF72DFC1E20BDE8084027
:101A5000FFF71ABC08BD0000002C01400010024036
:101A6000000400400008004090F83D10012901D01A
:101A700001207047022180F83D100168CA6842F0D9
:101A80000102CA6000680B49884208D0B0F1804F5B
:101A900005D00949884202D00849884204D18168AA
:101AA00001F00701062903D0016841F0010101603E
:101AB00000207047002C0140000400400008004056
:101AC00070B5044690F83C00012817D0012584F831
:101AD0003C50022084F83D002068826822F07702A2
:101AE00022F47F4282600868502830D00DDC202824
:101AF0004DD005DC98B310283BD148E0022070BDE2
:101B0000302844D0402834D139E0602828D07028CB
:101B100006D0B0F5805F2CD0B0F5005F29D10AE087
:101B2000CB68D1E90121206800F089FF2068816835
:101B300041F0770109E0CB68D1E90121206800F08C
:101B40007EFF2068816841F48041816011E0CA68AD
:101B50004968206800F085FF5021206807E016E002
:101B6000CA684968206800F0B9FF6021206800F069
:101B700070FF84F83D50002084F83C0070BDCA68B6
:101B80004968206800F06DFF40212068EFE7226877
:101B900001461046EBE700000349884203D10348A1
:101BA0004168491C41607047AC02002000000020E1
:101BB0002DE9F041054690F83C000C46012836D04E
:101BC000012085F83C008AB3042A42D02868082AFC
:101BD00051D0D4E90023E168066A26F480560662F3
:101BE000C669076A26F4407646EA03234FF6FF7675
:101BF00006EA013123F4704319434FF4005627F4E9
:101C0000005306EA02321A43C16102622868C169C0
:101C100021F44061C1612868C169A26841EA0221DA
:101C2000C161002085F83C00BDE8F08101E00220A0
:101C3000FAE7D4E90012E368286800F023FF286877
:101C4000816921F00C01816128688169A2681143D2
:101C50000FE0D4E90012E368286800F051FF28681B
:101C6000816921F44061816128688169A26841EA43
:101C700002218161D5E7D4E90027267B016A21F49E
:101C800080710162C169036A21F00301394321F0C7
:101C9000F00731074FF4007647EA116123F400732F
:101CA00006EA02221A43C16102622868C16921F072
:101CB0000C01C1612868C169A2681143B0E710B581
:101CC000040003D094F83D0010B107E0012010BDDE
:101CD000002084F83C00204600F01EF8022084F822
:101CE0003D00211D206800F067FE012084F84600B9
:101CF00084F83E0084F83F0084F8400084F84100F6
:101D000084F8420084F8430084F8440084F84500D5
:101D100084F83D00002010BD00B585B00021009181
:101D20000191029103910068B0F1804F1ED11048DB
:101D3000C16941F00101C161C16901F00101049172
:101D4000816941F0040181618069694600F0040005
:101D50000490082000900748FFF744F8002211463D
:101D60001C20FFF79FFA1C20FFF78EFA05B000BD7C
:101D7000001002400008014010B5044651B104298A
:101D80000DD0082910D094F8410094F8452001287E
:101D900011D10EE094F83E0094F84220F7E794F851
:101DA0003F0094F84320F2E794F8400094F8442070
:101DB000EDE7012A01D0012010BD022051B1042914
:101DC00011D0082918D084F8410084F845000C2966
:101DD0001BD136E084F83E0084F842002068C268D7
:101DE00042F0020210E084F83F0084F843002068CB
:101DF000C26842F0040207E084F8400084F844001E
:101E00002068C26842F00802C2600122206800F027
:101E100009FE0E492068884208D0B0F1804F05D0F5
:101E20000B49884202D00B49884204D1816801F0F5
:101E30000701062903D0016841F00101016000207B
:101E400010BD2068C26842F01002DDE7002C01409E
:101E5000000400400008004070B5044600680169B5
:101E60004FF00005C943890715D4C168C9438907E4
:101E700011D4E91E01610120207720688069800764
:101E8000204602D0FFF788FE04E000F098F82046D4
:101E900000F096F8257720680169C943490717D4EF
:101EA000C168C943490713D46FF0040101610220DE
:101EB00020772068806910F4407F204602D0FFF729
:101EC0006BFE04E000F07BF8204600F079F82577FF
:101ED00020680169C943090716D4C168C9430907C5
:101EE00012D46FF008010161042020772068C069D6
:101EF0008007204602D0FFF74FFE04E000F05FF8B5
:101F0000204600F05DF8257720680169C943C906BD
:101F100017D4C168C943C90613D46FF01001016119
:101F2000082020772068C06910F4407F204602D046
:101F3000FFF732FE04E000F042F8204600F040F8DF
:101F4000257720680169C943C90708D1C168C94319
:101F5000C90704D1891E0161204600F033F82068CA
:101F60000169C943090609D4C168C943090605D4F2
:101F70006FF0800101612046FFF7CCFC2068016909
:101F8000C943490609D4C168C943490605D46FF05D
:101F900040010161204600F079F820680169C943D9
:101FA00089060BD4C168C943890607D46FF02001A4
:101FB00001612046BDE87040FFF7ADBC70BD7047C1
:101FC0007047000070B506462B4800252B4C864212
:101FD0002CD102F029F94FF400512948FEF7F7FF00
:101FE0002848002100EBC102526822B150F831208C
:101FF000521C40F83120491C0529F3DB216F0229CE
:1020000001DA491C2167416809B9C16801B10121A0
:1020100041611A488030D0E9011209B1521C826036
:102020000A2A03DB012901D14560856016488642F2
:1020300020D1606D10B1A06D401CA0650120E0654D
:10204000A16D14290BDBA16C082901DD012100E041
:102050000021E16001B10121C4E91515A564616C9D
:102060001A2901DA491C6164142901DAA06000E030
:10207000A560A06370BD0000640200200000002085
:10208000000C01402C010020F40200207047704732
:1020900070B5026804461068D168536910F00F0FDC
:1020A00052D003F0010501F490762E435FD0C207B1
:1020B00005D0CA0503D5E26B42F00102E263420794
:1020C00005D5DA0703D0E26B42F00202E263820731
:1020D00005D5DA0703D0E26B42F00402E26302079F
:1020E00007D501F020022A4303D0E26B42F0080238
:1020F000E263E26B002A33D0800604D5880602D55D
:10210000204600F0CDFD20684069E16BC0F38010EF
:10211000090700D428B3204600F0B4FD20684169C7
:1021200049061AD5416921F040014161606BA0B1B7
:102130002D494163606BFEF7D7FD002810D0606B1E
:10214000416BBDE870400847830610D58B060ED55D
:102150002046BDE8704000F0A3BD2046FFF797FF82
:1021600070BD2046FFF793FF0020E06370BD0306BB
:102170002BD50B0629D594F839002128F6D1A06873
:10218000B0F5805F01D12069B0B1206A411C2162A5
:10219000216800784860E08C401E0004000CE08458
:1021A000E4D12068C16821F08001C1602068C16865
:1021B00041F04001C16070BD206A0088C0F3080092
:1021C0005060206A801C2062E5E74006F3D548068F
:1021D000F1D5D168204621F04001D160202184F85A
:1021E000391000F06AF970BD752C000870B5040054
:1021F00004D094F83900002510B106E0012070BD2C
:1022000084F83850204600F023F8242084F8390060
:102210002068C16821F40051C160204600F086FDAD
:102220002068016921F4904101612068416921F031
:102230002A0141612068C16841F40051C160E56331
:10224000202084F8390084F83A00002070BD000096
:1022500030B585B000240094019402940394006882
:10226000184988422CD11848816941F48041816124
:10227000816901F480410491816941F00401816127
:102280008069124D00F0040004904FF4007000903B
:10229000022001900320039069462846FEF7A2FD24
:1022A0002815CDE90004694628460294FEF79AFDF8
:1022B000002211462520FEF7F5FF2520FEF7E4FF5A
:1022C00005B030BD00380140001002400008014058
:1022D00090F83A30202B22D1F9B1F2B190F8383091
:1022E000012B1CD081628285C2850021C16322221C
:1022F00080F83A2080F838100168CA6842F4807289
:10230000CA6001684A6942F001024A610068C16816
:1023100041F02001C1600020704701207047022079
:1023200070470000F0B43549884264D13448354BD9
:10233000022542690178995401461E780C690021F2
:10234000521C5A2E01D06CB100E034B1012C0BD0DC
:10235000022C14D0032C22D022E04261012A1FDD7E
:10236000012216E041611BE05C78A52C02D041619E
:10237000016115E04261022A12DD056110E0DC789E
:10238000641D8461641E1F2C05D24261032A07DD8F
:102390000322026104E041610161816107E0426161
:1023A000D0E90524A24202D10269032A05D0F0BC7B
:1023B000012213491148FFF78BBFC0E907150A46F0
:1023C000661E02E05F5D6D1C3A44B542FADBC0E96F
:1023D00007251D1915F8015C954203D1426A521C6C
:1023E0004262D8E70A46016201E09954521CA242B7
:1023F000FBDB0262CFE7F0BC7047000084030020E3
:1024000000000020AC0000202DE9F843044690F8BD
:1024100039001F4616460D4620284CD1C5B1BEB125
:1024200094F83800012846D0012084F838004FF095
:102430000008C4F83C80212084F83900FEF7D4FD60
:10244000A6848146E684A068B0F5805F03D004E0EE
:102450000120BDE8F883206928B12E465FF0000511
:1024600084F838800EE00026FAE78021204600F04C
:10247000B9FCA0B9AEB116F8010B21684860E08C38
:10248000401EE084E08C4B464FF00002009700288D
:10249000EBD14FF04001204600F0A4FC30B1032006
:1024A000D7E735F8020BC0F30800E6E7202084F8F0
:1024B00039000020CDE70220CBE77047FEE700009F
:1024C0003EB5002410480094019402940D498460A4
:1024D000016001250573047505614FF460214460B6
:1024E000C161FEF7E7FA08B1FEF72FFACDE9004522
:1024F000694605480294FEF75BFA002801D0FEF712
:1025000024FA3EBD00240140E00100202DE9F04303
:1025100085B00024394800940194029403948169A1
:1025200041F020018161816901F0200104918169FC
:1025300041F004018161816901F004010491816924
:1025400041F0080181618069DFF8B48000F0080083
:102550000490002280214046FEF741FDDFF8A49060
:1025600046F60747002239464846FEF738FD062062
:10257000CDE90004694640460294FEF733FC102082
:1025800001258DE8310069464046FEF72BFC2020EE
:1025900000901D48CDE9010469464046FEF722FC43
:1025A000402000901948CDE9010569464046FEF7F4
:1025B00019FC80200226CDE90005CDE902466946D6
:1025C0004046FEF70FFC00970396CDE9015469469B
:1025D0004846FEF707FC28038DE831006946484667
:1025E000FEF700FC002211461720FEF75BFE1720C5
:1025F000FEF74AFE05B0BDE8F0830000001002407F
:1026000000080140000C01400000111000002110E2
:102610000D4810B50B4901600C49416000214FF491
:1026200080428160C0E9031241618161C161016240
:10263000FEF7E0FC002803D0BDE81040FEF785B9A6
:1026400010BD00000054004010020020A0860100D0
:1026500010B586B0002418480094019402940394A5
:1026600004941449059401604FF4E151C0E9011448
:1026700041F28831C0E9031444618461FFF780F9B5
:1026800008B1FEF762F94FF48050009069460A489D
:10269000FFF716FA08B1FEF758F9049404A90648A2
:1026A0000594FFF739F9002801D0FEF74EF906B07E
:1026B00010BD0000002C01406402002010B586B05F
:1026C00000241848059404940094019402944FF057
:1026D00080410394C0E900144FF6FF71C0E9024144
:1026E00004618461FFF7EBFA08B1FEF72EF9049458
:1026F00004A90C480594FFF70FF908B1FEF725F976
:102700000120CDE900400F20CDE902400C226946AE
:102710000448FFF74DFA002801D0FEF716F906B07D
:1027200010BD0000AC02002010B586B00024174890
:102730000094019402940394049413490594016055
:102740004FF4E151C0E901146421C0E9031484612C
:10275000FFF716F908B1FEF7F8F84FF48050009033
:1027600069460A48FFF7ACF908B1FEF7EEF80494A1
:1027700004A906480594FFF7CFF8002801D0FEF71A
:10278000E4F806B010BD000000040040F402002090
:1027900010B586B000241748009401940294039465
:1027A00004941349059401604FF4E151C0E9011408
:1027B0000A21C0E903148461FFF7E2F808B1FEF7CB
:1027C000C4F84FF48050009069460A48FFF778F942
:1027D00008B1FEF7BAF8049404A906480594FFF777
:1027E0009BF8002801D0FEF7B0F806B010BD00003D
:1027F000000800403C0300200C4810B50A49016065
:102800004FF416414160002181600C22C160C0E993
:1028100004128161C161FFF7E9FC002803D0BDE823
:102820001040FEF792B810BD00380140840300202C
:10283000FEE7FEE7012280210148FEF7D0BB000041
:1028400000080140012202210148FEF7C8BB000038
:10285000000C0140012211460148FEF7C0BB0000F8
:10286000000C01407047072811D2DFE800F0100487
:1028700006080A0C0E0000F033BD00F01DBF01F089
:1028800089B801F0E3B901F0FFBA01F0CDBB7047A0
:1028900004494FF0FF3201EBC000002140E9021271
:1028A000704700002C01002000B50120FFF7F0FF69
:1028B00002205DF804EBFFF7EBBF7047034A4900C5
:1028C00002EBC00040F8081C704700002C010020FB
:1028D000054901EBC00050F8041C002902D1012178
:1028E00040F8041C704700002C010020054901EB52
:1028F000C00050F8041C012902D1002140F8041C3A
:10290000704700002C010020FEF766BC30B593B084
:1029100028216846FDF71DFC14210AA8FDF719FCC3
:10292000002501200F9510951195010412958DE851
:10293000230004904FF4E010CDE90810022407941E
:102940006846FEF743FE08B172B6FEE70AA90F20FB
:1029500081E831004FF48060CDE90D0502210AA81D
:10296000FEF748FD08B172B6FEE74FF40040119043
:102970000F940FA8FEF7C8FC002801D072B6FEE73E
:1029800013B030BD704700000148FFF765BA000082
:10299000640200200148FFF75FBA0000AC0200208B
:1029A0000148FFF759BA0000F40200200148FFF780
:1029B00053BA00003C030020F0B50268164B174CD8
:1029C000174D4FF08047984205D0B84203D0A0423F
:1029D00001D0A84203D122F070064A6832439842DF
:1029E00005D0B84203D0A04201D0A84203D122F4BE
:1029F0004074CA6822434C6922F08002224302607C
:102A00008A68C2620A688262984201D109690163D8
:102A100001214161F0BD0000002C01400004004094
:102A20000008004010B501F01F030121046A99401D
:102A30008C430462016A9A401143016210BD10B5D3
:102A4000846842EA032224F47F440A4322438260DA
:102A500010BD826822F070020A4342F007018160D3
:102A6000704710B5036A046A24F0010404628469A3
:102A700024F0F00444EA021423F00A020A438461B9
:102A8000026210BD70B5046A24F001040462846916
:102A9000056A0F4EB04208D0B0F1804F05D00D4E00
:102AA000B04202D00C4EB04203D124F003041443D0
:102AB00001E044F001041A0724F0F00444EA126231
:102AC00025F00A0301F00A0119438261016270BD19
:102AD000002C0140000400400008004010B5036ACB
:102AE00023F0100303628369046A23F4704343EA0A
:102AF000023224F0A00343EA01118261016210BD99
:102B000030B5046A24F0100404628469056A24F470
:102B1000407444EA022222F470444FF6FF7202EA43
:102B200003322243A02425F0A00304EA0111194333
:102B30008261016230BD000002460F4810B50B46AD
:102B4000816809B1C06828B11846FFF7CFFE01F0CF
:102B50000BFB09E01846FDF71FFF9042184605DA07
:102B6000FFF7B6FEFFF766FE002010BDFFF790FEF0
:102B7000FDF774FE012010BD000000202DE9F0419A
:102B80001A4C05460E46A068174608B1E06828B101
:102B90001046FFF7ABFE01F0E7FA1DE06068A842BF
:102BA0000ADB00F07DFA38B16068A84214DB00F05F
:102BB00077FA012813D00FE03846FFF789FEFFF7B8
:102BC00041FE3846FDF7E8FEB04205DB084901202A
:102BD00048603846FFF75CFE0020BDE8F0813846CB
:102BE000FFF756FEFDF742FE0120F6E70000002049
:102BF000C401002000224FF480410148FEF7EFB9E4
:102C0000000C014000224FF400610148FEF7E7B9D3
:102C1000000C0140002204210148FEF7E0B9000049
:102C2000000C014000224FF480610148FEF7D7B943
:102C3000000C0140012291030148FEF7D0B90000C9
:102C4000000C01400122D1020148FEF7C8B9000082
:102C5000000C0140012204210148FEF7C0B9000028
:102C6000000C0140012291020148FEF7B8B90000B2
:102C7000000C014010B5406A0021C185C184FFF7F6
:102C800006FA10BD0168CA6822F49072CA60016831
:102C90004A6922F001024A61202180F83A10704707
:102CA00010B590F83A10222901D0022010BD826898
:102CB0004FF480539A4201D1016921B1816A9A424D
:102CC0001BD04AB10AE00268816A5268C2F3080266
:102CD0000A80816A891C08E0026972B10268526840
:102CE00002F07F020A70816A491C8162C18D491E0F
:102CF0000904090CC18503D016E002685268F1E7A7
:102D00000168CA6822F02002CA600168CA6822F419
:102D10008072CA6001684A6922F001024A6120217A
:102D200080F83A10FFF7FEFA002010BD70B5044697
:102D300000680169E26821F4405111430161216991
:102D4000A0680843616908432168CA6841F20C63BE
:102D50009A430243CA6020684169A26921F4407124
:102D6000114341611E492068884202D1FEF7E8FB09
:102D700001E0FEF7D5FB00EBC00101EB001260683B
:102D800064218000B2FBF0F3B3FBF1F36FF018069F
:102D90007343B2FBF0F5B2FBF0F605EB830532238B
:102DA00003EB0515B5FBF1F5B6FBF1F605F0F00503
:102DB00005EB0615B2FBF0F6B2FBF0F0B0FBF1F05C
:102DC0006FF01802504306EB800003EB0010B0FBDD
:102DD000F1F0216800F00F002844886070BD000009
:102DE000003801402DE9F041984617460E4604464A
:102DF000069D1DE0681C1BD02DB1FEF7F5F8A0EB79
:102E00000800A84214D92068C16821F4D071C160BB
:102E10002068416921F001014161202084F83900D6
:102E200084F83A00002084F838000320BDE8F081DF
:102E30002068006836EA000004D00020B842D9D0EB
:102E40000020F3E70120F9E70148FFF721B900006E
:102E500084030020FEE7000002460E4810B50B4632
:102E6000816809B1C06818B101F07EF9002010BD79
:102E70001846FDF791FD9042184602DAFFF728FD4B
:102E8000F4E7FDF789FD9042F0DB1846FFF700FDFF
:102E9000012010BD000000200907090E002804DBF6
:102EA00000F1E02080F80014704700F00F0000F1FE
:102EB000E02080F8141D704702E008C8121F08C106
:102EC000002AFAD170477047002001E001C1121FAB
:102ED000002AFBD17047000070B506460C48006D13
:102EE000FDF7C1FA04460D463046FDF7CDFA094A12
:102EF000094BFDF738FA094A094BFDF78DF92246CF
:102F00002B46FDF789F9BDE87040FDF7D0BA000007
:102F100000000020C5FEB27BF2B0903FB7627FD9BF
:102F20003D391F4010B5FFF785FEFA20FDF728FF59
:102F3000FFF760FEBDE81040FA20FDF721BF00005A
:102F400007480849012283681BB1C368012B00D1DF
:102F50000A61006C044B984200DDCA6070470000B3
:102F600000000020C40100200000A0422DE9F04133
:102F70003A493B4C01260868002538B1206F0228E9
:102F800001D1C4E91B658E60C1E9005633484FF09A
:102F9000020C103002683AB1226F022A01D1C4E952
:102FA0001BC58660C0E900562C4A203202F110078A
:102FB000136802F14008E3B1236F022B02D103230F
:102FC000C4E91B35D3681560C2E901638BB18D601C
:102FD0008560BD60C8F80850C8F80C50A567C0F8F7
:102FE0000CC0E56301F0C0F801F0E6F81B48703052
:102FF0000560386858B1206F022802D10420C4E966
:103000001B05F8683D60C7E9016001F0D5F8134879
:103010004030016841B1216F022902D10521C4E984
:103020001B158660C0E90056D8F8001040460029FC
:1030300011D0216F02290BD10621C4E91B15C168EB
:10304000182903DA491CC0E9026101E08560C56006
:103050004660C8F80050BDE8F0810000540100202F
:103060000000002010B50D4C206858B9606848B9C0
:10307000A06838B9206928B9E06818B9606908B94A
:10308000A06948B1FFF74EFF01F06EF8206908B95A
:10309000E06808B1012010BD002010BDC40100206F
:1030A00010B510210448FDF78DFF18B10348C06822
:1030B000002800D0012010BD000801408000002041
:1030C00010B51648FDF7B0FD0C211548FEF754FE6B
:1030D0001448FEF7C9FC012213491448FFF7F8F819
:1030E0001348FEF7C1FC1348FEF7BEFC124901204D
:1030F00001F11002486009235060CB600221D160C9
:1031000002F1100148608860103148601031486059
:10311000203148600020886010BD0000E0010020E0
:10312000AC020020F40200200000002084030020F4
:103130003C0300206402002054010020FEF754F8F4
:10314000FFF7E4FBFFF7E2F9FFF7BAF9FFF760FAE0
:10315000FFF752FBFFF7E8FAFFF71AFBFFF7AEFAAB
:10316000FFF776FAFFF7ACFF5B4EDFF870A1A6F130
:10317000600906F11007A6F13008A6F1200B002522
:10318000AAF18004386828B1A06818B101203D6018
:10319000CAF80400B068B8B1D8F80800012813D103
:1031A0000221CAF8041001214FF46160FFF754FEB8
:1031B0000028F06801D0401EF06028B9B5600320F7
:1031C000CAF80450FFF764FBFFF7BAFEFFF74AFFA7
:1031D0002066606E08B100F0EFFF00F081FF00286C
:1031E00063D1D9F8080018B3D8F8080040B1E06CF2
:1031F00030B9D9F80C0001F0A5F808B10120E0645D
:10320000DBF80810584681B3416871BBD9F80C103F
:10321000DBF80C00814200D0E56400F0A5FFFFF769
:1032200043FBDBF80C20C9F80C20CBF808503CE03D
:10323000294A503A9068C0B10320FDF7ADFB3C210C
:1032400090FBF1F12448254A50381032C06802EB57
:10325000400232F8022C511A6167D8F8081001298F
:1032600004D069B1491C0ED010E01EE0A16809B974
:1032700001213960DAF8041041B9FFF7F4FA05E0EA
:1032800000F072FF02E000F06FFFE563DBF808106A
:10329000584651B1416841B90F49C2685039CA60B6
:1032A000CBF80850E563CAF80050606A002806DDD4
:1032B00000F036FFFFF75AFE606A401E6062A06BA6
:1032C00010B1FDF7A3FAA563E06E00283FF45AAFF2
:1032D000FFF728FEE56655E7B401002080000020D6
:1032E0002DE9F041F24C0126E16BE9B3012968D0E8
:1032F000022974D003296DD020460429806E6AD03B
:10330000052969D0062968D0072967D0082970D017
:10331000002509296ED00A296DD00B296CD00C2903
:103320006BD00D296AD00E2969D00F2968D01029D9
:1033300067D0112974D0122973D041F604271329BC
:1033400070D014296FD015296ED016296DD0172989
:103350006CD018296BD019296AD01A2969D01B2979
:1033600068D01C2967D000E01EE01D2970D01E29FE
:103370006FD01F296ED020296DD021296CD0222931
:103380001DD104F18000012106600420FDF7DFFA61
:10339000002814D0681EE567E063C6488560BDE874
:1033A000F0410320FFF774BA0320A667FFF790FAF5
:1033B00001210A20FFF750FD002800D0E663BDE898
:1033C000F08101211E20FDF78DFA0028F7D00220A0
:1033D0000DE004E016E02FE03FE047E04EE0012280
:1033E0003C216420FFF7CAFB0028E8D00320E063FB
:1033F000E5E74CE05BE079E081E088E097E09DE084
:10340000A4E0B2E001210A20FDF742FA0028D6D05C
:103410000420E0630320FDF7BFFAC0F5527044E0DA
:10342000AAE0B1E0B9E0C5E0D3E0DDE0E4E0EBE044
:10343000F2E0F9E001E108E1014601222820FDF770
:10344000A3F90028BBD005204FF45271E063BBE024
:1034500004E10BE113E11AE121E101214FF496703F
:10346000FDF716FA0028AAD00620C0E701211E2089
:10347000FDF738FA0028A2D00720B8E701223C2146
:103480006420FFF77BFB002899D00820AFE70121DB
:103490000A20FDF7FDF9002891D00920E063032000
:1034A000FDF77AFAA0F624104042A06687E761781B
:1034B00029B9014601223C20FDF766F96070A07829
:1034C00020B902215A20FFF737FBA070607800284E
:1034D0008ED0A07800288BD00A20E06340F624111B
:1034E0000320FFF7EBF9A570657068E7012140F64E
:1034F0003400FDF7CDF90028D8D00B2077E7012163
:103500001E20FDF7EFF90028D0D00C206FE7012234
:103510003C216420FFF732FB0028C7D00D20E06378
:103520000320FDF739FA41F2FC21081ABDE7012119
:10353000FDF7AEF90028B9D00E2058E701211E2072
:10354000FDF7D0F90028B1D00F2050E701223C212F
:103550006420FFF713FB0028A8D01020E0630320AD
:10356000FDF71AFAC0F5A5509FE70121FDF790F984
:1035700000289BD011203AE701211E20FDF7B2F967
:10358000002893D0122032E701223C216420FFF76B
:10359000F5FA00288AD0132029E701210A20FDF737
:1035A00077F90028A1D01420E0630320FDF7F4F997
:1035B000381A7AE7014601224120FDF7E5F8002894
:1035C00093D015203946E063BDE8F0410320FFF7B2
:1035D00075B901213C20FDF75BF9002885D0162044
:1035E000E063C4E91E56EAE601211E20FFF734FC21
:1035F0000028F8D01720FAE601211E20FDF772F905
:103600000028F0D01820F2E601219620FFF724FCD4
:103610000028E8D01920EAE601211E20FDF762F912
:103620000028E0D01A20E2E6012140F2B220FFF7A4
:1036300013FC0028D7D01B20D9E601211E20FDF75E
:1036400051F90028CFD01C20D1E6012140F2CE4014
:10365000FFF702FC0028C6D01D20C8E601211E206D
:10366000FDF740F90028BED01E20C0E6012140F23F
:103670009240FFF7F1FB0028B5D01F20B7E60121EB
:103680001E20FDF72FF90028ADD02020AFE6012144
:103690003C20FFF7E1FB0028A5D02120A7E601216F
:1036A0003C20FDF71FF900289DD022209FE6000056
:1036B000000000208401002070B5B44C0126E16BAD
:1036C000F1B3012953D0022959D020460329806E35
:1036D00063D0042969D0052977D006296ED000254A
:1036E00007296CD008296BD009296AD00A2969D02A
:1036F0000B2968D00C2967D00D296FD00E296ED008
:103700000F296DD010296CD011296BD012296AD0E5
:10371000132969D0142968D0152967D0162975D0C6
:10372000172974D0182973D019291FD104F18000EA
:10373000012106600420FDF70AF9002816D000E0F8
:1037400009E0681EE567E06391488560BDE8704068
:103750000320FFF79DB80320A667FFF7B9F8012102
:103760000A20FFF779FB002800D0E66370BD012135
:103770001E20FDF7B7F80028F8D0022013E0012240
:103780003C216420FFF7FAF90028EFD00320E06322
:10379000FDF702F9C0F5C36036E00121FDF778F8C6
:1037A0000028E3D00420E06370BD01211E20FDF756
:1037B00099F80028F8D00520F5E706E017E028E0A2
:1037C00046E04EE055E05DE06AE001223C216420E5
:1037D000FFF7D4F90028E7D00620E4E770E07AE0AC
:1037E00081E088E08FE097E09EE0A6E0ADE0012177
:1037F0000A20FDF74DF80028D6D00720E06303200B
:10380000FDF7CAF8C0F52560A06670BDA6E0ADE082
:10381000B4E0617829B9014601222D20FCF7B4FFFC
:103820006070A07820B902215A20FFF785F9A070B6
:1038300060780028E9D0A0780028E6D00820E0636E
:103840004FF425610320FFF739F8A5706570DCE7B8
:1038500001214FF46160FDF71BF80028D5D0092045
:10386000A1E701211E20FDF73DF80028CDD00A2058
:1038700099E701223C216420FFF780F90028C4D099
:103880000B2090E701210A20FDF702F80028BCD0A8
:103890000C20E0630320FDF77FF8C0F5E150B3E7AB
:1038A000014601223C20FCF76FFF0028ADD00D201F
:1038B000E063BDE870404FF4E1510320FEF7FEBF26
:1038C00001213C20FCF7E4FF00289ED00E20E0639D
:1038D000C4E91E5699E701211E20FDF703F80028D0
:1038E00093D00F205FE701219620FFF7B5FA00285B
:1038F0008BD0102057E701211E20FCF7F3FF002892
:1039000083D011204FE7012140F2B220FFF7A4FA43
:1039100000289CD0122046E701211E20FCF7E2FF80
:10392000002894D013203EE7012140F2CE40FFF75B
:1039300093FA00288BD0142035E701211E20FCF7D4
:10394000D1FF0028C6D015202DE7012140F292407A
:10395000FFF782FA0028BDD0162024E701211E209F
:10396000FCF7C0FF0028B5D017201CE701213C2040
:10397000FFF772FA0028ADD0182014E701213C208F
:10398000FCF7B0FF0028A5D019200CE700000020AC
:103990008401002070B5AB4C0126E16BF1B3012925
:1039A0004FD0022955D020460329806E5FD00429CC
:1039B00065D005296BD006297DD00025072970D058
:1039C00008296FD009296ED00A296DD00C296CD036
:1039D0000D296BD00E296AD00F2969D0102968D023
:1039E000112967D0122975D0132974D0142973D0E6
:1039F000152972D0162971D0172970D018291FD116
:103A000004F18000012106600420FCF7A0FF0028DB
:103A100016D0681EE567E0638B4800E005E085602E
:103A2000BDE870400320FEF733BF0320A667FEF712
:103A30004FFF01210A20FFF70FFA002800D0E663AC
:103A400070BD01211E20FCF74DFF0028F8D0022098
:103A500013E001223C216420FFF790F80028EFD00A
:103A60000320E063FCF798FFC0F5257030E00121EA
:103A7000FCF70EFF0028E3D00420E06370BD0121B5
:103A80001E20FCF72FFF0028F8D00520F5E70122C3
:103A90003C216420FFF772F80028EFD00620ECE705
:103AA00009E01DE03BE043E04AE058E05EE065E00D
:103AB0006DE07AE089E001210A20FCF7E9FE0028A8
:103AC000DCD00720E0630320FCF766FFC0F5D2607E
:103AD000A06670BD84E08BE092E09AE0A1E0A9E0EE
:103AE000617829B9014601222D20FCF74DFE607056
:103AF000A07820B902215A20FFF71EF8A070607844
:103B00000028E6D0A0780028E3D00820E0634FF436
:103B1000D2610320FEF7D2FEA5706570D9E70121BE
:103B20004FF41660FCF7B4FE0028D2D00920A4E7B9
:103B300001211E20FCF7D6FE0028CAD00A209CE7EF
:103B400001223C216420FFF719F80028C1D00B2086
:103B5000E0630320FCF720FFC0F58750B8E70121A0
:103B6000FCF796FE0028B4D00D2086E701211E2028
:103B7000FCF7B8FE0028ACD00E207EE701223C21E5
:103B80006420FEF7FBFF0028A3D00F2075E701217A
:103B90000A20FCF77DFE00289BD01020E063032064
:103BA000FCF7FAFEC0F5A55092E701460122372046
:103BB000FCF7EAFD00288CD01120E063BDE87040DE
:103BC0004FF4A5510320FEF779BE01213C20FCF7FC
:103BD0005FFE0028A2D01220E063C4E91E5678E7F9
:103BE00001219620FFF738F9002897D0132044E7E9
:103BF00001211E20FCF776FE00288FD014203CE720
:103C0000012140F29E70FFF727F9002886D0152089
:103C100033E701211E20FCF765FE0028DFD01620C7
:103C20002BE7012140F2EC40FFF716F90028D6D02F
:103C3000172022E701213C20FCF754FE0028CED0BB
:103C400018201AE7000000208401002070B58C4C79
:103C50000126E26BDAB3012A45D0022A4BD0032AAF
:103C600053D02046042A816E5DD04FF49670052A09
:103C700064D0062A69D0072A77D0082A6ED000259A
:103C8000092A6CD00A2A6BD00B2A6AD00C2A69D078
:103C90000D2A68D00E2A67D00F2A6FD0102A6ED056
:103CA000112A6DD0122A1DD104F180000121066075
:103CB0000420FCF74CFE002814D0681EE567E06382
:103CC00070488560BDE870400320FEF7E1BD032029
:103CD000A667FEF7FDFD01210A20FFF7BDF80028C9
:103CE00000D0E66370BD01211E20FCF7FBFD00281B
:103CF000F8D0022007E001223C216420FEF73EFFBD
:103D00000028EFD00320E06370BD01210A20FCF7FA
:103D1000BFFD0028F8D00420E0630320FCF73CFE40
:103D2000C0F587603BE001223220FCF72DFD002822
:103D3000EAD005204FF48761E06381E00121FCF7C0
:103D4000A7FD0028E0D00620DDE701211E20FCF7BA
:103D5000C9FD0028D8D00720D5E706E011E020E013
:103D60003DE043E04AE052E060E001223C21642073
:103D7000FEF704FF0028C7D00820C4E765E06FE025
:103D800075E001210A20FCF783FD0028BCD0092042
:103D9000E0630320FCF700FEA0F2BC7044E0A066E4
:103DA00070BD607820B901222820FCF7EDFC60701E
:103DB000A07820B902215A20FEF7BEFEA0706078DC
:103DC0000028EDD0A0780028EAD00A20E06340F275
:103DD000BC710320FEF772FDA570657070BD0121F6
:103DE000FCF756FD0028F9D00B208CE701211E209E
:103DF000FCF778FD0028F1D00C2084E701223C215B
:103E00006420FEF7BBFE0028E8D00D207BE70121EF
:103E10000A20FCF73DFD0028E0D00E20E0630320DF
:103E2000FCF7BAFDA0F66C404042B8E701223C2006
:103E3000FCF7AAFC0028D1D00F2040F66C41E063CB
:103E4000BDE870400320FEF739BD01213C20FCF79E
:103E50001FFD0028C2D01020E063C4E91E5670BDCB
:103E60000121FEF7F9FF0028F9D011204BE70121CD
:103E70003C20FCF737FD0028F1D0122043E700007A
:103E8000000000208401002070B5654C0126E06B25
:103E900068B3012837D002283DD0032845D02146F9
:103EA0000025896E04284ED005286AD0062877D0D0
:103EB00007287DD008286FD009286ED00A286DD039
:103EC0000B286CD00C281DD104F180000121066064
:103ED0000420FCF73CFD002814D0681EA567E063B1
:103EE00050488560BDE870400320FEF7D1BC032038
:103EF000A667FEF7EDFC01210A20FEF7ADFF0028C2
:103F000000D0E66370BD01211E20FCF7EBFC002809
:103F1000F8D0022007E001223C216420FEF72EFEAB
:103F20000028EFD00320E06370BD01210A20FCF7D8
:103F3000AFFC0028F8D00420E0630320FCF72CFD40
:103F4000C0F552704BE0607820B901222820FCF7C0
:103F50001BFC6070A07820B902215A20FEF7ECFD0E
:103F6000A07060780028DFD0A0780028DCD0052081
:103F7000E0634FF452710320FEF7A0FCA57065705A
:103F800070BD01214FF4F070FCF782FC0028F7D0DF
:103F90000620C8E704E00BE013E022E030E037E061
:103FA00001211E20FCF79EFC0028E9D00720BAE77B
:103FB00001223C216420FEF7E1FD0028E0D008202A
:103FC000B1E701210A20FCF763FC0028D8D00920C2
:103FD000E0630320FCF7E0FCA0F2BC704042A06666
:103FE00070BD01222D20FCF7CFFB0028F8D00A205D
:103FF000E063BDE8704040F2BC710320FEF75EBC98
:1040000001217820FCF744FC0028E9D00B208AE746
:1040100001213C20FCF766FC0028E1D00C2082E75F
:10402000000000208401002070B52B4C0125E06BBE
:10403000E8B1012827D002282DD003283AD004283F
:1040400041D005281ED104F1800001210560042023
:10405000FCF77DFC002815D00020411EE1631F49BC
:10406000A0678860BDE870400320FEF711BC032004
:10407000A567FEF72DFC01210A20FEF7EDFE0028C2
:1040800000D0E56370BD01211E20FCF72BFC002849
:10409000F8D0022015E001223C216420FEF76EFDDD
:1040A0000028EFD00320E063FCF776FCC0F5167023
:1040B000A06670BD0121A06EFCF7EAFB0028F8D0D5
:1040C0000420E06370BD01213C20FCF70BFC0028BC
:1040D000F8D00520F5E70000000000208401002052
:1040E0000E48016909B105207047C16809B1042073
:1040F0007047016809B101207047416809B1022089
:104100007047816809B103207047416909B10620F1
:10411000704780690028FBD007207047C401002049
:10412000104800F1A8020179116010324179116044
:1041300000F1C80182790A60C279CA601031027A3E
:104140000A60427ACA601031827A0A60C27ACA6012
:1041500000F1F802017B116002F11001407B086060
:1041600070470000AC00002010B5114C0022022165
:104170002046FCF734FF002280210E48FCF72FFF79
:10418000002204212046FCF72AFF002221152046A8
:10419000FCF725FF002201212046FCF720FF01202B
:1041A000FEF7A4FBBDE810400220FEF79FBB000015
:1041B000000C01400008014004490020886088612B
:1041C000486048610249486670470000C401002009
:1041D00000000020F0B55C1D91B0E5B25A248DF8C6
:1041E0000040A5248DF801408DF802100DEB030668
:1041F0008DF80330194431716C4600210BE004EB5B
:10420000010C575C8CF8047012F801C03779491C16
:1042100067443771C9B29942F1D3C8232A4621466F
:10422000FEF7F2F811B0F0BD2DE9F05F414E424DBE
:10423000A6F168043179A86A04F1780704F18809C5
:104240002154401C317A2154401C317B2154401CA4
:1042500039792154401C397A2154401C397B21542E
:10426000401C99F804102154401C99F8081021545E
:1042700004F1980B401C9BF804102154401C9BF83F
:104280000810215404F1A80A401C9AF80410215483
:10429000401C9AF808102154401CA862FFF720FF28
:1042A000A96ADFF898806054491C95F8740060543E
:1042B000491CA96204214046FCF784FEA96A6054A7
:1042C000491CA96202214046FCF77CFEA96A04F160
:1042D000C80822466054491C95F878006054491C6F
:1042E00095F87C00605405F18000491C007860540A
:1042F000491C98F804006054491C98F80800605460
:10430000491C98F80C006054491CCBB2A9620021EA
:104310000B48FFF75FFF0020A86270607860C9F863
:104320000400CBF80400CAF80400C8F80400BDE893
:10433000F09F000054010020000000200008014010
:10434000840300200246234810B58168224871B1D9
:1043500000210160FFF7C4FE00283AD10A2A37D2B3
:10436000DFE802F0302A241E172A100D071701215A
:10437000EFE70121BDE810400320FEF7DDBB01217E
:104380001E200FE001220A21BDE810403C20FCF76E
:10439000FBB901227821BDE810406420FEF7EEBB96
:1043A00001210A20BDE81040FCF772BA0121BDE8E6
:1043B00010405A20FCF7C8B90121BDE810401E206A
:1043C000FCF790BA0121BDE810400220FCF7BFBA0B
:1043D000002010BD00000020C401002000000000EB
:1043E00000000000010203040607080900000000A5
:1043F000010203041444000800000020AC00000087
:10440000B82E0008C0440008AC0000201C070000C3
:10441000C82E00080000000000000000000000009E
:10442000000000000000000000000000000000008C
:10443000000000000000000000000000000000007C
:10444000000000000000000000000000000000006C
:10445000000000000000000000000000000000005C
:10446000000000000000000000000000000000004C
:10447000000000000000000000000000000000003C
:10448000000000000000000000000000000000002C
:10449000000000000000000000000000000000001C
:1044A00000000000A900B20093003C0024000B00B3
:1044B0000100000010000000000000000024F400D3
:04000005080000ED02
:00000001FF
