:020000040800F2
:10000000E807002001010008573000080529000812
:100010005530000811080008A13600080000000053
:10002000000000000000000000000000DF300008B9
:100030009508000800000000893000082D310008F4
:100040001B0100081B0100081B0100081B01000820
:100050001B0100081B0100081B0100081B01000810
:100060001B0100081B0100081B0100081B01000800
:100070001B0100081B0100081B0100081B010008F0
:100080001B0100081B0100081B0100081B010008E0
:100090001B0100081B0100081B0100085109000892
:1000A0001B010008AD3100081B0100081B010008FE
:1000B000B9310008C5310008D13100081B01000822
:1000C0001B0100081B0100081B0100081B010008A0
:1000D0001B010008953600081B0100081B010008E1
:1000E000490900081B0100081B010008DFF80CD0BB
:1000F00000F0BAFA004800473D3A0008E80700203F
:100100000648804706480047FEE7FEE7FEE7FEE7B1
:10011000FEE7FEE7FEE7FEE7FEE7FEE7A93100089F
:10012000ED000008202A04DB203A21FA02F0002129
:10013000704721FA02F3D040C2F1200291400843F7
:1001400019467047D2B201E000F8012B491EFBD2DC
:1001500070470022F6E710B513460A4604461946D2
:10016000FFF7F0FF204610BDF0B480EA0102D40F83
:100170004200B2EB410F02D20246084611464A0045
:1001800042D0C30DDDB2C1F3C752AD1A202D35DA0E
:10019000C1F3160141F4000204B15242C5F1200638
:1001A00002FA06F12A411044B3EBD05F23D0C4B168
:1001B000012DA0EBC35009DCF0BC4FF0004202EA75
:1001C000C352DBB200F5000000F0C2B9400000F1FC
:1001D000807000EBC350A0F1807040EAD1704900FC
:1001E00009E0490841EAC071A0EBC35000F50000E6
:1001F000400800EBC350F0BC00F0A1B961420122FD
:1002000002EB4101001BF6E7F0BC704781F00041B2
:10021000AAE780F00040A7E72DE9FE4F804681EA7B
:100220000300C00F0C46009021F0004123F0004570
:10023000B8EB0200A94105D24046214690461C4633
:100240000B46024623F00040104347D0270DC7F36A
:100250000A00C3F30A510290401A019040286BDA59
:10026000C3F3130040F4801B0098924620B1002392
:10027000D2EB030A63EB0B0B01985946C0F1400225
:10028000504600F03BF906460D4650465946019A45
:1002900000F043F910EB08006141002487EA115295
:1002A00084EAE7731A4340D0009A62B3019A012AA4
:1002B0004FEA075215DC001B61EB02014FF00042D0
:1002C00002EA0752CDE90042001C41F58011324696
:1002D0002B4600F07AF903B0BDE8F08F4046214686
:1002E000F9E7001B61EB0201001C41F580130018C7
:1002F0005B412018A2F5001747EB030140EAD570D7
:10030000B6196D4111E06D084FEA360645EAC07531
:100310004FEA0752001B61EB0201001C41F58011FE
:1003200049084FEA30000019514132462B4603B0CC
:10033000BDE8F04F00F03AB90098012240000023D8
:10034000D0EB020263EBE073009821464FEAE074C1
:10035000B8EB000061EB0401E9E783F000435BE7E1
:1003600081F0004158E72DE9FE4F81EA030404F0D3
:10037000004421F0004100944FF0000B23F00043B3
:1003800050EA01045ED052EA03045BD0C3F30A547E
:10039000C1F30A552C44A4F2F3340194A0FB025497
:1003A000C1F3130141F48011C3F3130343F4801329
:1003B00001FB024400FB034E840A970A44EA81547D
:1003C00047EA8357A4FB076802958D0A05FB07855A
:1003D0004FEA932C04FB0C542705029D4FEA065864
:1003E00047EA1637B5EB08056EEB070C870E920E41
:1003F00047EA811742EA8312A7FB0201B6EB0B0121
:1004000064EB00042B0D43EA0C335E1844EB1C50E4
:10041000DA465146E7FB0201C5F313044FEA0B33FA
:1004200043EA14534FEA0432019C43EA0603A4F161
:100430000C040294009CCDE900B400F0C6F803B0AF
:10044000BDE8F08F00200146F9E7C10F80EAE070B7
:100450000844CA079623002100F07AB896230022A8
:10046000114600F075B80EB5C10F80EAE07008447F
:10047000CA07002140F233438DE80E000A460B46BE
:1004800000F0A3F803B000BD00F0004230F00040DF
:100490000AD0C10D01F56071C0F3160042EA0151A6
:1004A000C20840071143704700200146704701F021
:1004B000004330B421F0004150EA010206D00A0D99
:1004C000A2F56072C1F31301002A02DC30BC0020E7
:1004D0007047440F44EAC104C100E01830BC00EB8F
:1004E000C25000F02CB80000002801DBC0F1004031
:1004F000002901DBC1F1004188427047202A04DB5A
:10050000203A00FA02F1002070479140C2F1200326
:1005100020FA03F3194390407047202A06DBCB17DB
:10052000203A41FA02F043EAE07306E041FA02F3AE
:10053000D040C2F12002914008431946704700297B
:10054000A8BF7047401C490008BF20F00100704759
:1005500010B4B0FA80FC00FA0CF050EA010404BFB9
:1005600010BC704749B1CCF1200421FA04F411FA0F
:100570000CF118BF012121430843A3EB0C01CB1D53
:100580004FEA00614FEA102042BF002010BC7047C4
:1005900000EBC35010440029A4BF10BC7047401C9E
:1005A000490008BF20F0010010BC704710B5141EB0
:1005B00073F1000408DA401C41F1000192185B411C
:1005C0001A4301D120F0010010BD2DE9F04D9246F3
:1005D0009B4611B1B1FA81F202E0B0FA80F220320A
:1005E0009046FFF78BFF04460F4640EA0A0041EAB7
:1005F0000B0153465A46084313D0114653EA0100F3
:1006000019D0C8F140025046FFF78CFD05460E4652
:10061000504659464246FFF771FF084305D0012076
:1006200004E020463946BDE8F08D0020054346EA47
:10063000E0762C4337430A986305E40AA0EB0800F0
:100640000022FD0A44EA47540A3002D50020014640
:10065000E9E7010510196941DDE90845001969411B
:10066000BDE8F04DA2E70000064C074D06E0E0684B
:1006700040F0010394E8070098471034AC42F6D3E9
:10068000FFF738FDEC5200080C53000870B5044623
:1006900000688168C943C9071CD1816821F0010144
:1006A000816000F0AFFC05460FE000BF00F0AAFC3F
:1006B000401B022809D9A06A40F01000A062E06A3D
:1006C00040F00100E062012070BD20688068C043F6
:1006D000C007EBD0002070BDF8B500260446009698
:1006E00000688168C943C90728D0816841F00101C9
:1006F0008160134813490068B0FBF1F000E0401E30
:1007000000900028FBD100F07DFC054611E000BF01
:1007100000F078FC401B02280BD9A06A40F01000C2
:10072000A062E06A40F00100E06284F824600120E9
:10073000F8BD20688068C043C007E9D10020F8BD3B
:10074000B400002040420F0002460F4810B50B468F
:10075000816809B1C06818B104F094FC002010BD94
:10076000184600F027F99042184604DA02F0C2FC5D
:1007700002F082FCF2E702F09DFC00F083F804F046
:1007800081FC012010BD0000000000202DE9F04197
:100790001D4C07461646A0680D4608B1E06820B11A
:1007A00004F070FC0020BDE8F08103F0A3F80028FD
:1007B000304622D002F09EFC00F05CF802F078FE99
:1007C00002F066FE3846FFF740FE0146206CFFF758
:1007D0008BFE304609D802F06DFC02F041FE02F0BB
:1007E0002FFE04F04FFC0120DDE700F0E3F8A84203
:1007F000D8DB064901208861D4E702F089FC02F0C9
:100800001FFE02F031FCCDE700000020E4010020D3
:10081000FEE7000010B50F4800F056F9FFF71EFE86
:100820000D4C216BFFF7A0FC2063E16A491CE162DB
:1008300064290EDBFFF728FE084A094BFFF793FDFA
:10084000FFF735FE606302F06FFF20640020E06276
:10085000206310BD00020020000000207B14AE4782
:10086000E17A843F00228021014800F0C6BB0000ED
:100870000008014000220221014800F0BEBB000038
:10088000000C014000220121014800F0B6BB00002D
:10089000000C01407047000070B5044613480D4637
:1008A000816809B1C06818B104F0ECFB002070BD8C
:1008B00003F020F80028284613D002F01BFC02F0B9
:1008C000F7FDFFF7D7FF284600F074F8A042EDDBF4
:1008D000284602F0EFFB02F0C3FD04F0D3FB012039
:1008E00070BD02F015FC02F0BFFBDFE70000002046
:1008F00070B5134C02460D46A06890B1E06880B90F
:10090000084602F0F7FB284600F054F8904202DA5D
:1009100002F0C6FD07E002F0EDFF30B10949012009
:10092000886004F0AFFB002070BD02F091FD04F080
:10093000A9FB00206060284602F0BCFB012070BDCE
:1009400000000020E40100204FF4805000F04CBA79
:1009500010B5202000F048FABDE81040402000F01B
:1009600043BA72B6FEE710B503460C46084600F0DF
:1009700019F8C2B2B2EB430F20460ADA02F0BAFB12
:10098000D00702D002F074FD01E002F051FD00201A
:1009900010BD02F08FFB02F04BFD04F073FB012051
:1009A00010BD0000024901EBC00050F8080C704770
:1009B0004C010020044901EBC00050F8080C00EB8A
:1009C000D0704010704700004C010020F8B50024A2
:1009D000009490F824202546012A12D0012280F8A4
:1009E00024204A681F23072A0DD20668776B521EFF
:1009F00002EB820293409F430B6893401F4377634F
:100A000019E00220F8BD06680D2A0AD2376BD21F02
:100A100002EB820293409F430B6893401F4337636E
:100A200009E0F76A0D3A02EB820293409F430B689C
:100A300093401F43F7620A68072306680A2A0AD30D
:100A4000F7680A3A02EB420293409F438B68934057
:100A50001F43F76008E0376902EB420293409F436F
:100A60008B6893401F4337610A68102A01D0112A0E
:100A700020D1124B02689A4217D193681B0219D4F5
:100A8000936843F4000393600968102912D10C495C
:100A90000C4A0968B1FBF2F101EB8101490000E069
:100AA000491E00910029FBD104E0816A41F0200138
:100AB0008162012480F824502046F8BD00240140C2
:100AC000B400002040420F000068C06C7047000076
:100AD0002DE9F0414FF0000704003D467ED0A06AAA
:100AE000002628B9E66284F82460204600F07EF8EB
:100AF0002046FFF7CBFDA16AC90600D420B1A06A49
:100B000040F01000A06269E0A16A21F4885141F030
:100B10000201A1626268E169237B0A4347EA43015B
:100B20000A43A1684FF48077B94209D0012907D060
:100B30005FF0000194F814C0BCF1010F02D00AE08C
:100B40003946F7E7F3B1A36A43F02003A362E36AEF
:100B500043F00103E3622368D3F804C02CF4694C2A
:100B60004CEA010CC3F804C021688B68DFF870C040
:100B700003EA0C0313438B60A168B9420BD001292F
:100B800009D00CE0DFF85CC0A3690CEB43330B43E6
:100B900043F40061DFE7218A0D05A5F58015216882
:100BA000CB6A23F470032B43CB62216889680E4B18
:100BB0001940914208D1E662A16A21F0020141F098
:100BC0000101A162BDE8F081A06A20F0020040F0BE
:100BD0001000A062E06A40F00100E0620120F1E74D
:100BE000FDF7E1FF00E0FFFFFE0E1FFF00B585B03F
:100BF0000021009101910291039100680E49884201
:100C000018D10E48816941F400718161816901F454
:100C100000710491816941F0040181618069694634
:100C200000F004000490012000900320019004488B
:100C300000F0E6F805B000BD0024014000100240BD
:100C40000008014070B5044690F8240001280DD03A
:100C5000012084F824002046FFF73EFD02004FF0FB
:100C6000000005D084F82400104670BD022070BD3D
:100C7000A16A40F20123994341F48071A1621F4DA2
:100C800023681F49AB4218D10E6816F4702F14D098
:100C9000A66A46F48016A6620E68760505D5A66A91
:100CA00026F4005646F48056A662A66AF6040AD5D3
:100CB000E66A26F00606E66206E0A66A26F48016D4
:100CC000A6625E68E9E7E06284F824006FF0020043
:100CD000186020688368C3F34243072B05D1A842FC
:100CE00008D1096811F4702F04D0816841F4801193
:100CF0008160B9E7816841F4A001F9E7002801406B
:100D00000424014010B590F821100024022903D0DA
:100D10000421816301243DE001680A6822F00E028B
:100D20000A6001680A6822F001020A601A4A016832
:100D3000914201D1012121E0174A1432914201D19F
:100D400010211BE0144A2832914201D1891515E087
:100D5000114A3C32914201D189140FE00E4A5032BF
:100D6000914202D14FF4803108E00B4A6432914243
:100D700002D14FF4801101E04FF08071064A083A29
:100D80005160012180F82110002180F82010416B72
:100D900001B18847204610BD0800024070B50446E6
:100DA00000F030F90546601C02D004480078044485
:100DB00000F028F9401BA042FAD370BDA800002023
:100DC0000022084920280AD0402807D1C86D10B158
:100DD000886C401C88640120CA65486570474A6475
:100DE0007047000000000020044910B50A68024264
:100DF00002D00860FFF7E4FF10BD000014040140BA
:100E00002DE9F84FDFF8B891002409F1040A0AF13E
:100E1000040B23460F270BF1040EC9E00125A54062
:100E20002A40AA427DD1674ED1F804C0ACEB060837
:100E3000B44532D014DCBCF1030F3AD009DCBCF16C
:100E4000000F2AD0BCF1010F1CD0BCF1020F31D130
:100E50001DE0BCF1110F17D0BCF1120F2AD119E01F
:100E6000B8F5881F19D006DCB8F5803F15D0B8F565
:100E7000801F1FD111E0B8F5001F0ED0B8F5041F78
:100E800018D10AE0CB6815E0CB681B1D12E0CB68D7
:100E900008330FE0CB680C330CE08B682BB1012BCF
:100EA0004FF0080303D0456104E0042302E005612C
:100EB00000E00023FF2A01D8064601E000F1040605
:100EC0004FEA840501D9A5F12005D6F8008007FA7C
:100ED00005FC28EA0C0803FA05F548EA0508C6F8F7
:100EE00000804D68ED0062D5374DAE6946F00106D1
:100EF000AE61AD6924F0030605F001050095334DA0
:100F000006EB050CDCF80850A607360F07FA06F8C2
:100F100025EA0805DFF8B880404503D14FF0000806
:100F200017E044E0DFF8AC80404502D14FF0010803
:100F30000FE0DFF8A480404502D14FF0020808E03E
:100F4000DFF89880404502D14FF0030801E04FF0F0
:100F5000040808FA06F848EA0508CCF808804D6845
:100F6000D9F80060ED034D4601D5164300E09643E5
:100F70002E604D68DAF80060AD03554601D5164382
:100F800000E096432E604D68DBF80060ED025D46A0
:100F900001D5164300E096432E604D68DEF80060F0
:100FA000AD02754601D5164300E096432E60641CE1
:100FB0000D682A46E5407FF431AFBDE8F88F0000A8
:100FC0000004014000001110001002400000014028
:100FD00000080140000C01400010014000140140D5
:100FE0008068084000D001207047C26821EA0203EF
:100FF0000A4043EA0241016170470AB1016170474A
:101000000904FBE70148806870470000A800002041
:1010100070B5040025D094F83D00002520B984F86F
:101020003C50204600F078FA242084F83D002068E7
:10103000016821F0010101602068016841F400416C
:1010400001602068016821F40041016000F036FC75
:101050004D4A6168914201D84C4900E04C498842B0
:1010600001D2012070BD4B492368B0FBF1F15E68ED
:1010700026F03F060E435E606368934206D94FF444
:10108000967359434FF47A73B1FBF3F12368491C0B
:101090001E6A26F03F06314319626168914210D8FA
:1010A0004900401EB0FBF1F2521CC2F30B02042AAD
:1010B00001D2042022E0B0FBF1F0401CC0F30B0091
:1010C0001CE0A268F2B301EBC10303EB0116431E5F
:1010D000B3FBF6F35B1C43F480431B0549D092B38A
:1010E00001EBC10202EB0111401EB0FBF1F0401C0C
:1010F000C0F30B0040F4804040F400402168CA690E
:101100004CF6FF739A431043C861D4E907100143BA
:101110002068026822F0C00211430160D4E9030193
:1011200001432068826848F2FF339A43114381608B
:10113000D4E9050108432168CA6822F0FF02104380
:10114000C86001E00EE016E02068016841F001018E
:1011500001602564202084F83D00256384F83E501A
:10116000002070BD01EB4106431EB3FBF6F35B1C90
:10117000B3E70120C2E701EB4101401EB0FBF1F0F3
:10118000401CC0F30B00B7E7A086010080841E005E
:1011900000093D0040420F002DE9FF4F83B00025BC
:1011A000DDE910799A4693460446DDF848800095BB
:1011B000FFF728FF064694F83D0020287CD119232C
:1011C000012285492046009601F0ACFC0028F5D1AB
:1011D00094F83C0001286FD0012084F83C0020687E
:1011E0000168C90703D1016841F00101016020686D
:1011F000016821F400610160222084F83D00402054
:1012000084F83E0025646762A4F82A90608D2085EA
:101210007248E062CDE9008653465A46204604995A
:1012200001F088FB00287DD1208DDFF8B4912027C4
:1012300068B1012814D00228206801681ED041F44A
:10124000806101602068416980690090B6E0206893
:10125000416981690091016841F400710160ADE06C
:101260002068016821F48061016072B620684169DC
:1012700081690091016841F400710AE041F4006164
:10128000016072B62068416981690091016821F4AA
:101290008061016062B691E0032868D801280CD013
:1012A000022843464FF000024946204600960FD0E0
:1012B00001F038FCB0BB10E08BE0324641462046DE
:1012C00001F0AFFC70BB20680069616A08706CE0D7
:1012D00001F028FC30BB72B634E02068016821F4CC
:1012E0008061016072B620680069616A0870606A96
:1012F000401C6062208D401E2085608D401E6085F0
:10130000384846F2A8110068B0FBF1F0C0EBC0000D
:1013100000EB80000090401E009008D020684069DB
:10132000C04300E029E040070CD50098F3E744F8FB
:10133000305F6773A573206940F02000206162B6BA
:1013400025731AE02068016841F40071016020688B
:101350000069616A0870606A401C6062218D491EE4
:101360002185618D491E618562B621681BE0324688
:101370004146204601F055FC18B1012007B0BDE8F8
:10138000F08F20680069616A0870606A401C6062C2
:10139000218D491E2185618D491E618521684A691B
:1013A000D24352070AD409690170606A401C606226
:1013B000208D401E2085608D401E6085208D002878
:1013C0007FF46AAF84F83D7084F83E5084F83C5056
:1013D000D4E70220D2E70000020010000000FFFF67
:1013E00004000100B40000202DE9FF4F83B09A46AD
:1013F000DDE9119793460446DDF84080FFF702FED1
:10140000054694F83D0020287FD119230122404948
:101410002046009501F086FB002876D194F83C0028
:10142000012872D0012084F83C0020680168C907B7
:1014300003D1016841F0010101602068016821F4D5
:1014400000610160212084F83D00402084F83E00C6
:1014500000262664C4F82480A4F82A90608D208594
:101460002C48E062CDE9007553465A46204604995F
:1014700001F0DEFA70B930E02A463946204601F024
:1014800003FC58B1206C042804D12068016841F4A1
:1014900000710160012007B0BDE8F08F606A21682B
:1014A00000780861606A401C6062218D491E89B223
:1014B0002185628D521E628522685369DB435B077A
:1014C0000BD469B100781061606A401C6062208DA5
:1014D000401E2085608D401E6085208D0028CBD168
:1014E0002A463946204601F0F7FA0028CAD154F8B6
:1014F0003D0B016841F400710160202004F81E09D1
:10150000E67766770020C6E7FFE70220C3E7000022
:10151000020010000000FFFF10B586B0002100910E
:1015200001910291039100680F4988421AD10F4C32
:10153000A06940F00800A061A069694600F00800B9
:101540000490C020009012200190032003900848CE
:10155000FFF756FCE06940F40010E061E06900F438
:101560000010049006B010BD00540040001002406E
:10157000000C014002488168027811448160704784
:10158000A8000020074810B5016841F01001016073
:10159000032000F075F8002000F006F800F024F8B1
:1015A000002010BD0020024070B50D4D04464FF4E0
:1015B0007A712878B1FBF0F00A490968B1FBF0F0C4
:1015C00000F062FB48B9102C07D200222146501EC1
:1015D00000F036F800206C6070BD012070BD000086
:1015E000A8000020B40000200C4808B5816941F033
:1015F00001018161816901F001010091C16941F03E
:101600008051C161C06900F0805000900448416879
:1016100021F0E06141F00071416008BD001002401E
:1016200000000140002809DB00F01F020121914069
:101630004009800000F1E020C0F800117047000070
:10164000F0B40E4B1B680C46C3F30223C3F107052D
:10165000042D00D90425191D072901D2002300E01B
:10166000DB1E012606FA05F1491E214099409E40E5
:10167000761E16403143F0BC02F036B80CED00E0A7
:10168000064900F0070208684FF6FF03184040EAD9
:101690000220034A10430860704700000CED00E090
:1016A0000000FA052DE9F84305460078354CC007DF
:1016B00054D0E0690026C00008D4E06940F08050B2
:1016C000E061E069012600F0805000902E4801683A
:1016D000C90512D40168804641F480710160FFF7AA
:1016E00091FC074605E000BFFFF78CFCC01B642897
:1016F00023D8D8F80000C005F6D5206A10F4407051
:1017000021D0A98801F4407181421CD0206A1F4970
:10171000012220F440700A6000220A602062C007A3
:1017200011D0FFF76FFC074641F2883808E000BF90
:10173000FFF768FCC11B414502D90320BDE8F883CF
:10174000206A8007F4D5206A696820F44070084355
:1017500020621EB1E06920F08050E06128788007A7
:1017600005D56068A96820F4404008436060287887
:10177000C00605D56068E96820F480000843606011
:101780000020DBE7001002400070004040044242AD
:101790002DE9F0470F46050061D0434E306800F058
:1017A0000700B84209D2306820F0070038433060A3
:1017B000306800F00700B84251D128683B4C8107DF
:1017C00012D5400703D5606840F4E0606060287877
:1017D000000703D5606840F4605060606068A968E5
:1017E00020F0F000084360602878C00728D06868BF
:1017F000012810D02168022810D0890700292EDA8C
:10180000616821F0030101436160FFF7FBFB804643
:1018100041F288390DE021688903EFE78901EDE79E
:10182000FFF7F0FBA0EB0801494502D90320BDE812
:10183000F0876068696800F00C00B0EB810FEFD1B1
:10184000306800F00700B8420BD9306820F007007C
:1018500038433060306800F00700B84201D0012002
:10186000E5E72878400705D56068E96820F4E0607E
:10187000084360602878000706D56068296920F46D
:10188000605040EAC100606000F038F86168084AC2
:10189000C1F30311515CC84006490860064800685E
:1018A000FFF782FE0020C2E7002002400010024045
:1018B000D4520008B4000020AC00002004480549C0
:1018C00000684968044AC1F30221515CC84070476E
:1018D000B400002000100240E4520008044805490A
:1018E00000684968044AC1F3C221515CC84070478E
:1018F000B400002000100240E452000812A185B09C
:101900000FC98DE80F0014A0144A006804905168B4
:10191000134801F00C03042B10D0082B0ED1C1F397
:101920008343C9031DF803000AD5516804AAC1F313
:101930004041515C0A4A5043B0FBF1F005B070479A
:1019400008494843FAE700000203040506070809AE
:101950000A0B0C0D0E0F10100102000000100240C7
:1019600000127A0000093D002DE9F84F040070D004
:101970002078C04DC00749D06868C0F381000128B5
:1019800007D06868C0F38100022809D16868C003E5
:1019900006D52868800339D560680028E7D035E08F
:1019A0006068B0F5803F0BD010B1B0F5A02F11D01A
:1019B000286820F480302860286820F4802002E025
:1019C000286840F480302860606890B1FFF71AFB07
:1019D00006460AE0286840F480202860F0E700BF4F
:1019E000FFF710FB801B642873D828688003F7D5A5
:1019F0000CE0FFF707FB064605E000BFFFF702FB20
:101A0000801B6428F0D828688003F7D420789A4E89
:101A100080074FF001094FF0000839D5686810F0D1
:101A20000C0F07D06868C0F38100022809D16868EC
:101A3000C00306D42868800714D52069012808D17E
:101A400010E02069B0B1C6F80090FFF7DBFA074656
:101A500005E00AE1FFF7D6FAC01B0228C4D82868BF
:101A60008007F7D52868616920F0F80040EAC100D6
:101A700028600DE0C6F80080FFF7C4FA074604E0CE
:101A8000FFF7C0FAC01B022823D828688007F7D4C4
:101A9000207800072CD57948A169D9B1C0F8009009
:101AA000FFF7B0FA074604E0FFF7ACFAC01B0228C4
:101AB0000FD8686A8007F7D571484FF4FA5100686B
:101AC000B0FBF1F0009000BF0098411E0091FAD2E7
:101AD0000EE080E0C0F80080FFF794FA074604E0CB
:101AE000FFF790FAC01B022875D8686A8007F7D400
:101AF0002078400760D5E8690027C00008D4E8696D
:101B000040F08050E861E869012700F080500090C3
:101B10005C480168C90513D40168834641F48071AB
:101B20000160FFF76FFA824606E000BFFFF76AFA2E
:101B3000A0EB0A0064284ED8DBF80000C005F5D5FC
:101B4000E06801280AD008B1052813D0286A20F0DF
:101B500001002862286A20F0040002E0286A40F0B0
:101B600001002862E06841F2883B98B1FFF74AFA29
:101B700082460BE0286A40F004002862EEE700BFCE
:101B8000FFF740FAA0EB0A0159455AD8286A8007A6
:101B9000F6D50CE0FFF736FA824605E0FFF732FA99
:101BA000A0EB0A0159454CD8286A8007F6D41FB12A
:101BB000E86920F08050E861E06988B36968C1F3A2
:101BC0008101022944D00228C6F8608004D0FFF7C2
:101BD00019FA044638E034E0FFF714FA074604E047
:101BE000FFF710FAC01B02282BD828688001F7D411
:101BF000206AB0F5803F05D16868A16820F4003004
:101C000008436860D4E908010843696821F4741145
:101C100008436860C6F86090FFF7F4F9044606E0F0
:101C200025E000BFFFF7EEF9001B022809D828685D
:101C30008001F7D51BE000BFFFF7E4F9001B022885
:101C400002D90320BDE8F88F28688001F4D40EE0A3
:101C50000128F7D06868226A00F48031914204D1EB
:101C6000616A00F47010884201D00120EAE7002088
:101C7000E8E70000001002400000424280044242B7
:101C8000B40000200070004010B5401EB0F1807F0D
:101C900001D3012010BD4FF0E02460610F216017D7
:101CA00001F022FD0020A06107202061002010BD6E
:101CB0007047704770B590F83C20012A26D0012467
:101CC00080F83C40022280F83D2003685A689D68F5
:101CD00022F070060A6832435A600D4B02689A423D
:101CE00008D0B2F1804F05D00A4B9A4202D00A4B7D
:101CF0009A4204D1496825F080031943916080F825
:101D00003D40002180F83C10084670BD022070BDA7
:101D1000002C0140000400400008004010B5040001
:101D200003D094F83D0010B107E0012010BD002061
:101D300084F83C00204600F01FF8022084F83D00A3
:101D4000211D206801F04AFA012084F8460084F839
:101D50003E0084F83F0084F8400084F8410084F895
:101D6000420084F8430084F8440084F8450084F875
:101D70003D00002010BD000008B51E4A01681E4845
:101D800091420ED1816941F4006181618069002234
:101D900000F40060009011461920FFF751FC192053
:101DA00022E0164A91420ED1C16941F00201C1619F
:101DB000C069002200F00200009011461D20FFF7CC
:101DC0003FFC1D2010E00E4A914211D1C16941F043
:101DD0000401C161C069002200F0040000901146B6
:101DE0001E20FFF72DFC1E20BDE80840FFF71ABC9F
:101DF00008BD0000002C014000100240000400401B
:101E00000008004090F83D10012901D001207047E2
:101E1000022180F83D100168CA6842F00102CA60E0
:101E200000680B49884208D0B0F1804F05D00949BD
:101E3000884202D00849884204D1816801F0070134
:101E4000062903D0016841F00101016000207047BC
:101E5000002C0140000400400008004070B504461A
:101E600090F83C00012817D0012584F83C5002204E
:101E700084F83D002068826822F0770222F47F42D5
:101E800082600868502830D00DDC20284DD005DC59
:101E900098B310283BD148E0022070BD302844D0D0
:101EA000402834D139E0602828D0702806D0B0F519
:101EB000805F2CD0B0F5005F29D10AE0CB68D1E972
:101EC0000121206801F0CDF92068816841F0770197
:101ED00009E0CB68D1E90121206801F0C2F920684E
:101EE000816841F48041816011E0CA6849682068D6
:101EF00001F0C9F95021206807E016E0CA68496876
:101F0000206801F0FDF96021206801F0B4F984F83F
:101F10003D50002084F83C0070BDCA6849682068C4
:101F200001F0B1F940212068EFE722680146104630
:101F3000EBE700000349884203D103484168491C8C
:101F400041607047CC020020000000202DE9F041E4
:101F5000054690F83C000C46012836D0012085F853
:101F60003C008AB3042A42D02868082A51D0D4E918
:101F70000023E168066A26F480560662C669076A8D
:101F800026F4407646EA03234FF6FF7606EA01314F
:101F900023F4704319434FF4005627F4005306EA24
:101FA00002321A43C16102622868C16921F44061AA
:101FB000C1612868C169A26841EA0221C1610020AB
:101FC00085F83C00BDE8F08101E00220FAE7D4E9A1
:101FD0000012E368286801F067F92868816921F038
:101FE0000C01816128688169A26811430FE0D4E97E
:101FF0000012E368286801F095F92868816921F4E6
:102000004061816128688169A26841EA0221816199
:10201000D5E7D4E90027267B016A21F480710162AB
:10202000C169036A21F00301394321F0F007310748
:102030004FF4007647EA116123F4007306EA0222A6
:102040001A43C16102622868C16921F00C01C161B3
:102050002868C169A2681143B0E710B5040003D035
:1020600094F83D0010B107E0012010BD002084F875
:102070003C00204600F01EF8022084F83D00211D9F
:10208000206801F0ABF8012084F8460084F83E0097
:1020900084F83F0084F8400084F8410084F842004E
:1020A00084F8430084F8440084F8450084F83D0037
:1020B000002010BD00B585B0002100910191029172
:1020C00003910068B0F1804F1ED11048C16941F002
:1020D0000101C161C16901F001010491816941F00F
:1020E000040181618069694600F0040004900820C1
:1020F00000900748FEF784FE002211461C20FFF7DF
:102100009FFA1C20FFF78EFA05B000BD00100240B8
:102110000008014010B5044651B104290DD008292A
:1021200010D094F8410094F84520012811D10EE018
:1021300094F83E0094F84220F7E794F83F0094F8B2
:102140004320F2E794F8400094F84420EDE7012A98
:1021500001D0012010BD022051B1042911D008295D
:1021600018D084F8410084F845000C291BD136E0D2
:1021700084F83E0084F842002068C26842F00202FF
:1021800010E084F83F0084F843002068C26842F001
:10219000040207E084F8400084F844002068C26824
:1021A00042F00802C2600122206801F04DF80E4999
:1021B0002068884208D0B0F1804F05D00B49884292
:1021C00002D00B49884204D1816801F00701062939
:1021D00003D0016841F001010160002010BD2068BA
:1021E000C26842F01002DDE7002C0140000400400C
:1021F0000008004070B50446006801694FF0000512
:10220000C943890715D4C168C943890711D4E91E98
:10221000016101202077206880698007204602D074
:10222000FFF788FE04E000F098F8204600F096F8EA
:10223000257720680169C943490717D4C168C94394
:10224000490713D46FF00401016102202077206850
:10225000806910F4407F204602D0FFF76BFE04E057
:1022600000F07BF8204600F079F8257720680169B6
:10227000C943090716D4C168C943090712D46FF0CE
:1022800008010161042020772068C069800720468A
:1022900002D0FFF74FFE04E000F05FF8204600F0A8
:1022A0005DF8257720680169C943C90617D4C1685C
:1022B000C943C90613D46FF01001016108202077CB
:1022C0002068C06910F4407F204602D0FFF732FE3C
:1022D00004E000F042F8204600F040F8257720683E
:1022E0000169C943C90708D1C168C943C90704D1F5
:1022F000891E0161204600F033F820680169C94356
:10230000090609D4C168C943090605D46FF08001E4
:1023100001612046FFF7CCFC20680169C9434906EA
:1023200009D4C168C943490605D46FF04001016171
:10233000204600F0CFF820680169C94389060BD414
:10234000C168C943890607D46FF0200101612046A6
:10235000BDE87040FFF7ADBC70BD7047704700002E
:102360002DE9FE4F07465448564CDFF850A1DFF8E0
:102370005091002604F1800587423BD102F0CEFE49
:102380004FF400515046FEF730FE00204FEA09019D
:1023900001EBC0035A68012A05D0B2F1FF3F08D013
:1023A000FF2A06D006E051F83020521C41F83020B8
:1023B00000E05E60401C0528EADB206F022801DA9D
:1023C000401C20674868012810D0C86801280DD03B
:1023D0005FF00000C9F81400D5E9010108B1491CFB
:1023E000A9600A2906DB012802D003E00120F1E7F9
:1023F0006E60AE6034484FF00108874221D1606DB5
:1024000010B1A06D401CA065C4F85C80A16D404671
:1024100014290BDBA16C082901DD012100E000215A
:10242000E16001B10121C4E91516A664616C1A29A5
:1024300001DA491C6164142901DAA06000E0A66099
:10244000A0632248874235D168694FF48051401C0F
:1024500068615046FEF7C4FDA9690844A86169692E
:10246000142927DBC5E90406AE61122822DB1449D2
:102470003831886801281DD1A1F1CC00062280F8EE
:102480000080097B417000F1EC011023097A817012
:1024900094F83C10C170B9F810100171090A41712B
:1024A000CDE900024FF0FF3102910822A021084837
:1024B000FEF79AFFBDE8FE8F84020020000C014069
:1024C0004C01002000000020140300205C030020C9
:1024D000300200207047704770B5026804461068EB
:1024E000D168536910F00F0F52D003F0010501F4C9
:1024F00090762E435FD0C20705D0CA0503D5E26BA4
:1025000042F00102E263420705D5DA0703D0E26B2D
:1025100042F00202E263820705D5DA0703D0E26BDC
:1025200042F00402E263020707D501F020022A43C9
:1025300003D0E26B42F00802E263E26B002A33D080
:10254000800604D5880602D5204600F0CFFF20681B
:102550004069E16BC0F38010090700D428B320461E
:1025600000F0B6FF2068416949061AD5416921F09B
:1025700040014161606BA0B12D494163606BFEF782
:10258000C1FB002810D0606B416BBDE8704008476C
:10259000830610D58B060ED52046BDE8704000F0AE
:1025A000A5BF2046FFF797FF70BD2046FFF793FFBA
:1025B0000020E06370BD03062BD50B0629D594F8E7
:1025C00039002128F6D1A068B0F5805F01D12069DB
:1025D000B0B1206A411C2162216800784860E08C1B
:1025E000401E0004000CE084E4D12068C16821F0A2
:1025F0008001C1602068C16841F04001C16070BDC8
:10260000206A0088C0F308005060206A801C2062A5
:10261000E5E74006F3D54806F1D5D168204621F01C
:102620004001D160202184F8391000F06AF970BDB2
:10263000C134000870B5040004D094F839000025B6
:1026400010B106E0012070BD84F83850204600F03B
:1026500023F8242084F839002068C16821F400514F
:10266000C160204600F088FF2068016921F4904194
:1026700001612068416921F02A0141612068C16837
:1026800041F40051C160E563202084F8390084F8EA
:102690003A00002070BD000030B585B000240094E1
:1026A0000194029403940068184988422CD1184878
:1026B000816941F480418161816901F48041049123
:1026C000816941F0040181618069124D00F00400CC
:1026D00004904FF4007000900220019003200390BA
:1026E00069462846FEF78CFB2815CDE900046946AB
:1026F00028460294FEF784FB002211462520FEF7AF
:102700009FFF2520FEF78EFF05B030BD0038014049
:10271000001002400008014090F83A30202B22D1EE
:10272000F9B1F2B190F83830012B1CD0816282856A
:10273000C2850021C163222280F83A2080F8381037
:102740000168CA6842F48072CA6001684A6942F04E
:1027500001024A610068C16841F02001C1600020A7
:10276000704701207047022070470000F0B43549DF
:10277000884264D13448354B022542690178995426
:1027800001461E780C690021521C5A2E01D06CB1F2
:1027900000E034B1012C0BD0022C14D0032C22D039
:1027A00022E04261012A1FDD012216E041611BE0A7
:1027B0005C78A52C02D04161016115E04261022ADA
:1027C00012DD056110E0DC78641D8461641E1F2C3D
:1027D00005D24261032A07DD0322026104E0416160
:1027E0000161816107E04261D0E90524A24202D182
:1027F0000269032A05D0F0BC012213491148FFF7F2
:102800008BBFC0E907150A46661E02E05F5D6D1CBE
:102810003A44B542FADBC0E907251D1915F8015CF9
:10282000954203D1426A521C4262D8E70A460162CD
:1028300001E09954521CA242FBDB0262CFE7F0BCDC
:1028400070470000A403002000000020CC000020FE
:102850002DE9F843044690F839001F4616460D4608
:1028600020284CD1C5B1BEB194F83800012846D01B
:10287000012084F838004FF00008C4F83C80212083
:1028800084F83900FEF7BEFBA6848146E684A06882
:10289000B0F5805F03D004E00120BDE8F883206933
:1028A00028B12E465FF0000584F838800EE000263F
:1028B000FAE78021204600F0BBFEA0B9AEB116F8C1
:1028C000010B21684860E08C401EE084E08C4B46A0
:1028D0004FF0000200970028EBD14FF04001204656
:1028E00000F0A6FE30B10320D7E735F8020BC0F3A5
:1028F0000800E6E7202084F839000020CDE7022018
:10290000CBE77047FEE701684A69D24352050FD40E
:102910006FF480624A61002140F8301F2022427328
:102920008173026942F00402026101730120704761
:10293000002070472DE9F84F0446006889460B9D3A
:1029400001689846174641F480610160206801687B
:1029500041F48071016000954FF0011B002259463F
:1029600020460A9B00F0DEF84FF4007A40B1206860
:102970000068C00501D5C4F840A00320BDE8F88F69
:10298000216809F0FE0008612B46284920460A9A72
:1029900000F0FCF8F0BB20684169806900902A468D
:1029A00020460A9900F070F940B1206C04283AD111
:1029B0002068016841F40071016034E0FEB2B8F1B2
:1029C000010F09D02168380A08612A4620460A9971
:1029D00000F05AF90028E8D1206806612A4620460E
:1029E0000A9900F051F90028DFD12068016841F40C
:1029F0008071016000950022594620460A9B00F034
:102A000091F80028B3D1216809F0FF0040F00100DF
:102A1000086100E007E02B46044920460A9A00F0CE
:102A2000B5F80028AAD00120A8E7000002000100A4
:102A30002DE9F843044600680D46DDE90897016872
:102A40009846164641F4807101604B4600224FF0D3
:102A500001112046009700F065F848B12068006831
:102A6000C00502D54FF4007020640320BDE8F88350
:102A7000216805F0FE0008613B464A46154920469C
:102A800000F084F888B920684169806900903A466E
:102A90004946204600F0F8F848B1206C042804D1DB
:102AA0002068016841F4007101600120DEE7F5B2A1
:102AB000B8F1010F09D02168300A08613A46494649
:102AC000204600F0E1F80028E7D1206805610020E9
:102AD000CCE700000200010070B516460D46044622
:102AE0000DE02046FFF70FFF08B1012070BD681C04
:102AF00005D0FEF787FA801BA84207D835B12068B9
:102B00004069C0434007ECD4002070BD002044F869
:102B1000300F20216173A073216941F020012161F0
:102B20002073E2E72DE9F0471E4690460D46044625
:102B3000C1F30747DDF8209008E0701C06D0FEF7CF
:102B400061FAA0EB0900B0420FD876B12068012FDE
:102B500018D0806925EA00000004000C14D0002180
:102B60004145EAD00020BDE8F087002044F8300F4E
:102B700020216173A073216941F02001216120733C
:102B80000120F0E74069E5E70121E9E72DE9F04799
:102B90009A4691460E46044600254FF02008C1F3A0
:102BA000074725E020684069C043400514D42068E9
:102BB000016841F40071016021686FF48060486130
:102BC000256384F83D8084F83E50206C40F004007A
:102BD000206484F83C501FE0B9F1FF3F08D0FEF7B5
:102BE00011FAA0EB0A0149450CD8B9F1000F09D040
:102BF0002068012F13D0806926EA00000004000C31
:102C00000BD0CFE744F8305F84F80D80A5732069BE
:102C100040F02000206125730120BDE8F087406965
:102C2000EAE72DE9F041002590460E4604462027AC
:102C300017E04069C043C0060CD454F8301B6FF055
:102C40001000486144F810596777A577206A206220
:102C5000257717E0FEF7D6F9A0EB0800B04208D8B8
:102C60003EB120684169C9434906E2D40020BDE86D
:102C7000F08144F8305F6773A573206940F020004D
:102C8000206125730120F2E770B516460D46044613
:102C90000DE02046FFF737FE08B1012070BD681C2B
:102CA00005D0FEF7AFF9801BA84207D835B12068E0
:102CB0004069C0430006ECD4002070BD002044F8F9
:102CC000300F20216173A073216941F0200121613F
:102CD0002073E2E73EB5002410480094019402946A
:102CE0000D498460016001250573047505614FF489
:102CF00060214460C161FDF7EBFE08B1FDF731FED4
:102D0000CDE90045694605480294FDF75FFE0028BD
:102D100001D0FDF726FE3EBD002401400002002048
:102D20002DE9F04786B000243E48009401940294B7
:102D30000394816941F020018161816901F02001E2
:102D40000491816941F004018161816901F004010C
:102D50000491816941F0080181618069DFF8C890C0
:102D600000F008000490002280214846FEF745F953
:102D7000DFF8B8A046F60748002241465046FEF765
:102D80003CF90620CDE90004694648460294FEF766
:102D900037F8102001258DE8310069464846FEF7D6
:102DA0002FF8234E2020CDE90006694602944846BC
:102DB000FEF726F8402000901E48CDE9010569463F
:102DC0004846FEF71DF880200227CDE90005CDE931
:102DD000024769464846FEF713F8CDF8008003978E
:102DE000CDE9015469465046FEF70AF82803CDE9BB
:102DF0000006694602955046FEF702F80022114689
:102E00001720FEF71DFC1720FEF70CFC00221146D0
:102E10002820FEF715FC2820FEF704FC06B0BDE8CC
:102E2000F08700000010024000080140000C014043
:102E300000001110000021100D4810B50B49016071
:102E40000C49416000214FF480428160C0E90312C7
:102E500041618161C1610162FEF7DAF8002803D0A7
:102E6000BDE81040FDF77DBD10BD000000540040DE
:102E700030020020A086010010B586B0002418485A
:102E800000940194029403940494144905940160FD
:102E90004FF4E151C0E9011441F28831C0E9031453
:102EA00044618461FEF73AFF08B1FDF75AFD4FF423
:102EB0008050009069460A48FEF7D0FF08B1FDF740
:102EC00050FD049404A906480594FEF7F3FE00287B
:102ED00001D0FDF746FD06B010BD0000002C0140FA
:102EE0008402002010B586B000241748059404948D
:102EF0000094019402944FF080410394C0E90014BF
:102F00004FF6FF71C0E9024104618461FFF7A5F843
:102F100008B1FDF726FD049404A90B480594FEF7BB
:102F2000C9FE08B1FDF71DFD0120CDE90040029466
:102F30000C22694604480394FFF708F8002801D0E2
:102F4000FDF70FFD06B010BDCC02002010B586B015
:102F500000241748009401940294039404941349A4
:102F6000059401604FF4E151C0E901146421C0E906
:102F700003148461FEF7D2FE08B1FDF7F2FC4FF4B2
:102F80008050009069460A48FEF768FF08B1FDF7D7
:102F9000E8FC049404A906480594FEF78BFE00287B
:102FA00001D0FDF7DEFC06B010BD000000040040BB
:102FB0001403002010B586B0002417480094019433
:102FC0000294039404941349059401604FF43471FE
:102FD000C0E901146421C0E903148461FEF79EFE78
:102FE00008B1FDF7BEFC4FF48050009069460A48D6
:102FF000FEF734FF08B1FDF7B4FC049404A90648B9
:103000000594FEF757FE002801D0FDF7AAFC06B094
:1030100010BD0000000800405C0300200C4810B503
:103020000A4901604FF416414160002181600C2281
:10303000C160C0E904128161C161FFF7FBFA002899
:1030400003D0BDE81040FDF78CBC10BD0038014036
:10305000A4030020FEE7FEE7012280210148FDF7DE
:10306000CCBF000000080140012202210148FDF709
:10307000C4BF0000000C0140012211460148FDF7C9
:10308000BCBF0000000C01407047072811D2DFE8E8
:1030900000F0100406080A0C0E0000F09DBD01F0BF
:1030A00057B801F049BA01F055BC01F0F1BD01F08B
:1030B00019BF704704494FF0FF3201EBC0000021F7
:1030C00040E90212704700004C01002000B50120C9
:1030D000FFF7F0FF02205DF804EBFFF7EBBF70474E
:1030E000034A490002EBC00040F8081C704700008A
:1030F0004C010020054901EBC00050F8041C0029D8
:1031000002D1012140F8041C704700004C0100204E
:10311000054901EBC00050F8041C012902D100212F
:1031200040F8041C704700004C010020FEF722BA52
:1031300030B593B028216846FDF70BF814210AA892
:10314000FDF707F8002501200F9510951195010452
:1031500012958DE8230004904FF4E010CDE908109B
:10316000022407946846FEF7FFFB08B172B6FEE73B
:103170000AA90F2081E831004FF48060CDE90D05E8
:1031800002210AA8FEF704FB08B172B6FEE74FF46D
:10319000004011900F940FA8FEF784FA002801D088
:1031A00072B6FEE713B030BD704700000148FFF76C
:1031B00021B80000840200200148FFF71BB800007E
:1031C000CC0200200148FFF715B8000014030020CE
:1031D0000148FFF70FB800005C030020F0B502685B
:1031E000164B174C174D4FF08047984205D0B84208
:1031F00003D0A04201D0A84203D122F070064A6851
:103200003243984205D0B84203D0A04201D0A84230
:1032100003D122F44074CA6822434C6922F0800230
:10322000224302608A68C2620A688262984201D1BF
:103230000969016301214161F0BD0000002C0140DA
:10324000000400400008004010B501F01F030121F8
:10325000046A99408C430462016A9A4011430162F6
:1032600010BD10B5846842EA032224F47F440A4367
:103270002243826010BD826822F070020A4342F04D
:1032800007018160704710B5036A046A24F00104E5
:103290000462846924F0F00444EA021423F00A0270
:1032A0000A438461026210BD70B5046A24F001040F
:1032B00004628469056A0F4EB04208D0B0F1804FB5
:1032C00005D00D4EB04202D00C4EB04203D124F0D6
:1032D0000304144301E044F001041A0724F0F0044D
:1032E00044EA126225F00A0301F00A0119438261DF
:1032F000016270BD002C0140000400400008004045
:1033000010B5036A23F0100303628369046A23F48F
:10331000704343EA023224F0A00343EA01118261C0
:10332000016210BD30B5046A24F01004046284699F
:10333000056A24F4407444EA022222F470444FF6F1
:10334000FF7202EA03322243A02425F0A00304EA1C
:10335000011119438261016230BD0000024610482C
:1033600010B50B46816809B1C06828B11846FFF74F
:10337000CFFE01F087FE09E01846FDF71BFB9042E7
:10338000184605DAFFF7B6FEFFF766FE002010BD0F
:10339000FFF790FEFDF766FA01F074FE012010BD04
:1033A000000000202DE9F0411F4C05461E46A06894
:1033B0000F46904608B1E06828B11046FFF7A8FE16
:1033C00001F060FE2EE06068A8420ADB00F092FA8D
:1033D00038B16068A84225DB00F08CFA012818D0CB
:1033E00020E04046FFF786FEFFF73EFE4046FDF731
:1033F000E1FAB84216DB16B10C4901204860FDF72E
:1034000039FA01F03FFE4046FFF754FE0220BDE8C6
:10341000F0814046FFF74EFEFDF72CFA01F032FE38
:103420000120F4E70020F2E700000020E401002082
:1034300000224FF480410148FDF7DFBD000C014040
:1034400000224FF400610148FDF7D7BD000C014098
:10345000002204210148FDF7D0BD0000000C01400E
:1034600000224FF480610148FDF7C7BD000C014008
:103470000548C06808B1012200E000224FF48041F5
:103480000248FDF7BABD000080000020000C01409A
:103490000122D1020148FDF7B0BD0000000C01403F
:1034A000012204210148FDF7A8BD0000000C0140E5
:1034B000012291020148FDF7A0BD0000000C01406F
:1034C00010B5406A0021C185C184FFF704F810BD22
:1034D0000168CA6822F49072CA6001684A6922F0E1
:1034E00001024A61202180F83A10704710B590F827
:1034F0003A10222901D0022010BD82684FF4805377
:103500009A4201D1016921B1816A9A421BD04AB124
:103510000AE00268816A5268C2F308020A80816A7E
:10352000891C08E0026972B10268526802F07F02E9
:103530000A70816A491C8162C18D491E0904090C07
:10354000C18503D016E002685268F1E70168CA68D5
:1035500022F02002CA600168CA6822F48072CA6040
:1035600001684A6922F001024A61202180F83A107C
:10357000FFF7FCF8002010BD70B504460068016933
:10358000E26821F44051114301612169A0680843B8
:10359000616908432168CA6841F20C639A43024397
:1035A000CA6020684169A26921F4407111434161F8
:1035B0001E492068884202D1FEF790F901E0FEF72B
:1035C0007DF900EBC00101EB00126068642180000E
:1035D000B2FBF0F3B3FBF1F36FF018067343B2FBE9
:1035E000F0F5B2FBF0F605EB8305322303EB05158E
:1035F000B5FBF1F5B6FBF1F605F0F00505EB0615A8
:10360000B2FBF0F6B2FBF0F0B0FBF1F06FF0180295
:10361000504306EB800003EB0010B0FBF1F0216893
:1036200000F00F002844886070BD000000380140A1
:103630002DE9F041984617460E460446069D1DE0CA
:10364000681C1BD02DB1FDF7DDFCA0EB0800A842E3
:1036500014D92068C16821F4D071C1602068416923
:1036600021F001014161202084F8390084F83A00FA
:10367000002084F838000320BDE8F081206800684D
:1036800036EA000004D00020B842D9D00020F3E789
:103690000120F9E70148FEF71FBF0000A403002046
:1036A000FEE7000002460F4810B50B46816809B1DD
:1036B000C06818B101F0E6FC002010BD1846FDF707
:1036C00079F99042184602DAFFF714FDF4E7FDF7A6
:1036D00071F99042F0DB1846FFF7ECFC01F0D2FCE8
:1036E000012010BD000000200907090E002804DB9E
:1036F00000F1E02080F80014704700F00F0000F1A6
:10370000E02080F8141D704702E008C8121F08C1AD
:10371000002AFAD170477047002001E001C1121F52
:10372000002AFBD17047000070B506460C48006DBA
:10373000FCF799FE04460D463046FCF7A5FE094A03
:10374000094BFCF710FE094A094BFCF765FD2246C0
:103750002B46FCF761FDBDE87040FCF7A8BE0000F9
:1037600000000020C5FEB27BF2B0903FB7627FD967
:103770003D391F4010B5FFF77BFEFA20FDF70EFB29
:10378000FFF756FEBDE81040FA20FDF707BB00002A
:1037900007480849012283681BB1C368012B00D187
:1037A0000A61006C044B984200DDCA60704700005B
:1037B00000000020E40100200000A0422DE9F041BB
:1037C0003B493C4C01260868002538B1206F02288F
:1037D00001D1C4E91B658E60C1E9005634484FF041
:1037E000020C103002683AB1226F022A01D1C4E9FA
:1037F0001BC58660C0E900562D4A203202F1100731
:10380000136802F14008FBB1236F022B02D103239E
:10381000C4E91B35D3681560C2E90163A3B18D60AB
:103820008560BD60C8F80850C8F80C50A567C0F89E
:103830000CC0E56301F026FC01F038FC1C48703038
:1038400005600320FFF736FC386858B1206F022866
:1038500002D10420C4E91B05F8683D60C7E9016096
:1038600001F024FC12484030016841B1216F022967
:1038700002D10521C4E91B158660C0E90056D8F8BD
:1038800000104046002911D0216F02290BD10621DA
:10389000C4E91B15C168182903DA491CC0E9026193
:1038A00001E08560C5604660C8F80050BDE8F08161
:1038B000740100200000002010B50D4C206858B99C
:1038C000606848B9A06838B9206928B9E06818B9B3
:1038D000606908B9A06948B1FFF74CFF01F0D2FB5D
:1038E000206908B9E06808B1012010BD002010BDB2
:1038F000E401002010B510210448FDF771FB18B158
:103900000348C068002800D0012010BD0008014015
:10391000800000202DE9FE4F4FF0140A3E4CCDE907
:10392000004A4FF0FF3810230822A0213B48CDF871
:103930000880FDF731FC207800264FF0010904F1E2
:10394000CC0504F1EC0704F1DC0B01282ED0022099
:10395000E860CBF80890BE602F49CBF80490FC31AA
:10396000C7F80490C1F8049020310920C1E90196FC
:103970006039C1F80490C5F80490C8602848FDF784
:1039800061F90C212748FEF7C5FB2748FEF73AFAF4
:103990002648FEF737FA2648FEF734FA03B001222C
:1039A000BDE8F04F23492448FEF7B6BEA860607812
:1039B000E860A0781F49B860E078C8632079627930
:1039C00000EB0222144894300261A279E37902EB01
:1039D00003220260227A637A02EB03228260A27AD7
:1039E000E37A02EB03228261207B627B00EB022000
:1039F000486000202654401C1428FBDB0A20FDF7F9
:103A0000CDF9CDE9004A10230822A0210348CDF8C2
:103A10000880FDF7E9FC9FE7B80000203002002095
:103A200000020020CC020020140300205C030020D0
:103A30008402002000000020A4030020FDF7A2FD66
:103A4000FFF776FBFFF76CF9FFF744F9FFF7F4F99E
:103A5000FFF7E4FAFFF77AFAFFF7ACFAFFF742FA5A
:103A6000FFF70AFAFFF756FF594EDFF868A1A6F1F3
:103A7000600906F11007A6F13008A6F1200B002519
:103A8000AAF18004386828B1A06818B101213D600E
:103A9000CAF80410B068B8B1D8F80800012813D1EA
:103AA0000220CAF8040001214FF46160FFF7FAFD1B
:103AB0000028F06801D0401EF06028B9B5600320EE
:103AC000CAF80450FFF7F6FAFFF762FEFFF7F4FEBC
:103AD0002066606E08B101F0E9FA01F08FFA30BBA0
:103AE000D9F8080020B3D8F80800012808D1E06C04
:103AF00030B9D9F80C0001F09FFB08B10120E06457
:103B0000DBF80810584691B1416881B9D9F80C101A
:103B1000DBF80C00814200D0E56401F0B3FAFFF756
:103B2000D5FADBF80C20C9F80C20CBF8085037E0A8
:103B3000274A503A906898B30320FCF73BFF3C219A
:103B400090FBF1F12248234A50381C32C06802EB46
:103B5000400232F8022C511A6167D8F80810012986
:103B600003D061B102290AD00BE0A16809B9012193
:103B70003960DAF8041021B9FFF787FA01E001F0A3
:103B800081FADBF80810584651B1416841B9104933
:103B9000C2685039CA60CBF80850E563CAF80050D3
:103BA000606A002806DD01F049FAFFF707FE606A47
:103BB000401E6062A06B10B1FCF72CFEA563E06EA6
:103BC00000283FF45FAFFFF7D5FDE5665AE7000038
:103BD000D4010020800000202DE9F041F94C01269D
:103BE000E16B00297ED001297DD003254FF4FA60D6
:103BF000022979D08A1C78D0CA1C77D00A1D76D0C9
:103C0000032975D022460429936E72D0052971D0FC
:103C1000062970D0082507296ED0CA1D6DD011F174
:103C2000080F6BD011F1090F61D0082967D000256A
:103C300009297CD00A297BD00B297AD00D2741F2A3
:103C4000FC280C2976D011F10C0F74D011F10D0F56
:103C500072D011F10E0F70D00D296FD00E296ED0D9
:103C600010270F296CD011F10F0F6AD011F1100F2E
:103C700068D011F1110F66D0102965D0112973D0C9
:103C80001327122971D011F1120F6FD011F1130FF8
:103C90006DD011F1140F6BD041F60427132968D0B1
:103CA000142967D0152972D0162971D0172970D020
:103CB00018296FD019296ED01A296DD01B296CD004
:103CC0001C296BD01D296AD01E2969D01F2968D0F4
:103CD000202967D0212971D022293BD104F180000D
:103CE00001210DE01CE037E045E05EE067E06FE0B9
:103CF00076E083E08EE096E09DE0A8E0B0E0B8E0FA
:103D000006600420FCF72FFE002823D0681EE5671C
:103D1000E063AD488560BDE8F0410320FFF7CAB914
:103D20000320A667FFF7E6F901210A200DE0B0E0C5
:103D3000CEE0D6E0DDE0E8E0F0E0F8E005E10CE11F
:103D400013E11EE126E12EE140E1FFF7ABFC002884
:103D500000D0E663BDE8F08101211E20FCF7C8FD1C
:103D60000028F7D0022010E038E13FE14CE154E1B7
:103D70005CE163E16FE1002301223C21FFF712FBCC
:103D8000012810D00228E5D1001FE063E2E771E1CD
:103D90007BE182E189E190E197E19FE1A6E1AEE17B
:103DA000B5E1BDE1C4E1E563D4E704211E20FCF7E1
:103DB0009FFD0028CED06FF00200E6E7C0E10421AD
:103DC000B420FFF76FFC0028C4D06FF00300DCE7DD
:103DD000012304223C21FFF7E5FA0128BAD1E2E7EA
:103DE00001210A20FCF758FD0028B3D00420E0632D
:103DF0000320FCF7DFFDC0F5527048E001221946B0
:103E00002820FCF7C3FC0028A4D005204FF45271F1
:103E1000E0632AE101214FF49670FCF73DFD002894
:103E200098D00620B1E701211E20FCF761FD002893
:103E300090D00720A9E7002301223C21FFF7B2FA26
:103E40000128B0D0022885D16FF006009DE704213B
:103E50001E20FCF74DFD002898D06FF0070094E776
:103E60000421B420FFF71EFC00288FD06FF008005B
:103E70008BE701210A20FCF70FFD002886D00920DE
:103E8000E0630320FCF796FDA0F624104042A066F4
:103E900060E7607828B9012219463C20FCF776FCDF
:103EA0006070A07820B902215A20FFF757FAA0705D
:103EB00060780028ECD0A0780028E9D00A20E063E0
:103EC00040F624110320FFF70BF9A570657041E758
:103ED000012140F63400FCF7DFFC0028D8D00B208D
:103EE00053E701211E20FCF703FD0028D0D00C2051
:103EF0004BE7002301223C21FFF754FA01281DD093
:103F00000228C5D16FF00B003FE704211E20FCF70B
:103F1000EFFC0028BCD06FF00C0036E70421B42081
:103F2000FFF7C0FB0028B3D06FF00D002DE7012391
:103F300004223C21FFF736FA0128A9D10320E763C8
:103F4000FCF738FDA8EB0000A1E701211846FCF7BB
:103F5000A3FC00289CD00E2017E701211E20FCF7AF
:103F6000C7FC002894D00F200FE7002301223C213A
:103F7000FFF718FA01281DD0022889D16FF00E0032
:103F800003E704211E20FCF7B3FC00289FD06FF04C
:103F90000F00FAE60421B420FFF784FB002896D036
:103FA0006FF01000F1E6012304223C21FFF7FAF93B
:103FB00001288CD10320E763FCF7FCFCC0F5A55079
:103FC00065E7000000000020A40100200121184640
:103FD000FCF762FC002889D01120D6E601211E20C2
:103FE000FCF786FC002895D01220CEE600230122A3
:103FF0003C21FFF7D7F9012804D002289DD16FF0AA
:104000001100C2E6E763A5E604211E20FCF770FC60
:104010000028F8D06FF01200B7E60421B420FFF7B3
:1040200041FB0028EFD06FF01300AEE6012304221D
:104030003C21FFF7B7F90128E5D1E3E701210A2088
:10404000FCF72AFC0028DED01420E0630320FCF7F4
:10405000B1FC381A1BE7012219464120FCF796FBF8
:104060000028D0D015203946E063BDE8F041032098
:10407000FFF736B801213C20FCF70EFC0028C2D027
:104080001620E063C4E91E5664E601211E20FFF7F6
:1040900009FB0028B7D0172077E601211E20FCF786
:1040A00027FC0028AFD018206FE601219620FFF7EB
:1040B000F9FA0028A7D0192067E601211E20FCF795
:1040C00017FC00289FD01A205FE6012140F2B220A1
:1040D000FFF7E8FA002896D01B2056E601211E20A3
:1040E000FCF706FC00288ED01C204EE6012140F291
:1040F000CE40FFF7D7FA002885D01D2045E60121E4
:104100001E20FCF7F5FB0028BED01E203DE6012155
:1041100040F29240FFF7C6FA0028B5D01F2034E6DF
:1041200001211E20FCF7E4FB0028ADD020202CE666
:1041300001213C20FFF7B6FA0028A5D0212024E673
:1041400001213C20FCF7D4FB00289DD022201CE656
:104150002DE9F041F64C0125E16BE9B3012973D05B
:1041600003264FF4FA60022976D08A1C69D0CA1C53
:1041700068D00A1D67D022460329936E78D004299F
:1041800077D00626052975D04A1D74D08A1D73D0B4
:10419000CA1D72D0062971D0002607296FD00829C0
:1041A0006ED009296DD00B270A296BD011F10A0FA7
:1041B00069D011F10B0F67D011F10C0F75D00B29DD
:1041C00074D00C2973D00D2972D00E2971D00F290B
:1041D00070D010296FD000E024E011296CD0122992
:1041E0006BD013296AD0142969D0152968D01629F3
:1041F00067D017296FD018296ED019291DD104F165
:104200008000012105600420FCF7ADFB002814D0DC
:10421000A81EE667E063C7488660BDE8F04103205A
:10422000FEF748BF0320A567FEF764FF01210A20BF
:10423000FFF738FA002800D0E563BDE8F08103E01D
:104240000AE029E03EE048E001211E20FCF750FB97
:104250000028F2D0022009E0002301223C21FFF7D0
:10426000A1F8012811D00228E7D1001FE063E4E79C
:104270003BE042E049E055E05DE065E06CE07AE07B
:1042800098E0A0E0A7E0B4E0BCE00320E663FCF720
:1042900091FBC0F5C3606CE004211E20FCF728FBF5
:1042A0000028CAD06FF00200E0E7B4E0BBE0C8E04D
:1042B000D7E0E1E0E8E0EFE0F6E0FEE005E10DE167
:1042C00014E11CE10421B420FFF7ECF90028B4D07C
:1042D0006FF00300CAE71AE121E1012304223C2127
:1042E000FFF760F80128A8D1CFE701211846FCF7B5
:1042F000D3FA0028A1D00420B8E701211E20FCF742
:10430000F7FA002899D00520B0E7002301223C21CC
:10431000FFF748F8012803D002288ED1C01FA5E777
:10432000E6638AE704211E20FCF7E2FA002884D025
:104330006FF005009AE70421B420FFF7B3F90028D5
:1043400095D06FF0060091E7012304223C21FFF78E
:1043500029F801288BD1E3E701210A20FCF79CFA18
:10436000002884D00720E0630320FCF723FBC0F57E
:104370002560A06661E7607828B9012219462D20E2
:10438000FCF704FA6070A07820B902215A20FEF7E9
:10439000E5FFA07060780028C3D0A0780028C0D0C6
:1043A0000820E0634FF425610320FEF799FEA67014
:1043B000667042E701214FF46160FCF76DFA002856
:1043C000AFD0092052E701211E20FCF791FA002806
:1043D000A7D00A204AE7002301223C21FEF7E2FF92
:1043E000012804D002289CD16FF009003EE7E76362
:1043F00023E704211E20FCF77BFA002891D06FF000
:104400000A0033E70421B420FFF74CF9002888D0D4
:104410006FF00B002AE7012304223C21FEF7C2FFC4
:104420000128A7D1E3E701210A20FCF735FA00288B
:10443000A0D00C20E0630320FCF7BCFAC0F5E150EB
:1044400097E7012219463C20FCF7A0F9002891D0FB
:104450000D20E063BDE8F0414FF4E1510320FEF789
:104460003FBE01213C20FCF717FA0028A1D00E2006
:10447000E063C4E91E65E0E601211E20FCF738FA7E
:10448000002896D00F20F1E601219620FFF70AF9C7
:1044900000288ED01020E9E601211E20FCF728FA22
:1044A000002886D01120E1E6012140F2B220FFF77A
:1044B000F9F800289CD01220D8E601211E20FCF734
:1044C00017FA002894D01320D0E6012140F2CE4004
:1044D000FFF7E8F800288BD01420C7E601211E2042
:1044E000FCF706FA0028C6D01520BFE6012140F2ED
:1044F0009240FFF7D7F80028BDD01620B6E601217C
:104500001E20FCF7F5F90028B5D01720AEE60121F2
:104510003C20FFF7C7F80028ADD01820A6E60121FF
:104520003C20FCF7E5F90028A5D019209EE6000004
:1045300000000020A40100202DE9F041FA4C0126E2
:10454000E16BE9B301297CD003254FF4FA6002291D
:1045500070D08A1C6FD0CA1C6ED00A1D6DD0224646
:104560000329936E6AD0042969D00625052967D0EE
:104570004A1D6ED08A1D6DD0CA1D6CD006296BD025
:104580000025072969D0082968D0092967D00C2798
:104590000A2971D011F10A0F6FD011F10B0F6DD0F4
:1045A00011F10C0F6BD00C296AD00D2969D00F279F
:1045B0000E2967D011F10E0F75D011F10F0F00E029
:1045C0002AE071D011F1100F6FD00F296ED0102991
:1045D0006DD011296CD012296BD013296AD01429FF
:1045E00069D0152968D0162967D017296FD01829E6
:1045F0001DD104F18000012106600420FCF7B3F90D
:10460000002814D0681EE567E063C8488560BDE8EF
:10461000F0410320FEF74EBD0320A667FEF76AFDBA
:1046200001210A20FFF73EF8002800D0E663BDE82C
:10463000F08106E014E02DE040E049E050E057E072
:104640005EE001211E20FCF753F90028EFD0022084
:1046500010E062E06AE072E079E087E0A5E0ADE0BA
:10466000002301223C21FEF79DFE01280BD00228E9
:10467000DDD1001FE063DAE7A8E0B3E0BBE0C3E010
:10468000D0E0D7E0DEE00320E563FCF793F9C0F566
:10469000257069E004211E20FCF72AF90028C6D005
:1046A0006FF00200E6E7DBE0E3E0EBE0F2E0FFE0E2
:1046B0000EE118E11FE126E12EE139E10421B420E9
:1046C000FEF7F0FF0028B2D06FF00300D2E738E128
:1046D000012304223C21FEF765FE0128A7D1D2E781
:1046E00001211846FCF7D8F80028A0D00420C1E723
:1046F00001211E20FCF7FCF8002898D00520B9E71E
:10470000002301223C21FEF74DFE012803D00228A0
:104710008DD1C01FAEE7E56389E704211E20FCF7B9
:10472000E7F8002883D06FF00500A3E70421B42048
:10473000FEF7B8FF00289ED06FF006009AE701232D
:1047400004223C21FEF72EFE012894D1E3E701214B
:104750000A20FCF7A1F800288DD00720E063032091
:10476000FCF728F9C0F5D260A06660E7607828B948
:10477000012219462D20FCF709F86070A07820B9B5
:1047800002215A20FEF7EAFDA07060780028C3D00D
:10479000A0780028C0D00820E0634FF4D261032045
:1047A000FEF79EFCA570657041E701214FF416608D
:1047B000FCF772F80028AFD009205BE701211E202A
:1047C000FCF796F80028A7D00A2053E7002301221F
:1047D0003C21FEF7E7FD01281DD002289CD16FF097
:1047E000090047E704211E20FCF782F8002893D037
:1047F0006FF00A003EE70421B420FEF753FF0028C3
:104800008AD06FF00B0035E7012304223C21FEF72C
:10481000C9FD0128A9D10320E763FCF7CBF8C0F557
:104820008750A1E701211846FCF736F800289CD0F4
:104830000D201FE701211E20FCF75AF8002894D014
:104840000E2017E7002301223C21FEF7ABFD0128D3
:1048500004D0022889D16FF00D000BE7E763E6E68C
:1048600004211E20FCF744F800289DD06FF00E00B4
:1048700000E70421B420FEF715FF002894D06FF064
:104880000F00F7E6012304223C21FEF78BFD0128EF
:104890008AD1E3E701210A20FBF7FEFF0028DED0E2
:1048A0001020E0630320FCF785F8C0F5A5505BE716
:1048B000012219463720FBF769FF0028CFD01120CD
:1048C000E063BDE8F0414FF4A5510320FEF708BCBA
:1048D00001213C20FBF7E0FF0028C0D01220E0635C
:1048E000C4E91E56A3E601219620FEF7DBFE002850
:1048F000B5D01320BEE601211E20FBF7F9FF0028EA
:10490000ADD01420B6E6012140F29E70FEF7CAFE3B
:104910000028A4D01520ADE601211E20FBF7E8FFFA
:1049200000289CD01620A5E600000020A40100204D
:10493000012140F2EC40FEF7B5FE00288FD0172091
:1049400098E601213C20FBF7D3FF002887D01820F0
:1049500090E600002DE9F041CB4C0125E36BEBB371
:10496000012B64D003264FF4FA60022B67D0991C08
:104970007AD0D91C70D0191D6FD0032B6ED0214670
:10498000042B896E6BD04FF49672052B68D0062BE2
:1049900067D00826072B70D0DF1D6FD013F1080FEA
:1049A0006DD013F1090F7BD0082B69D00026092B9D
:1049B00067D00A2B6FD00B2B6ED00D270C2B6CD031
:1049C00013F10C0F6AD013F10D0F68D013F10E0F15
:1049D0007CD00D2B7BD00E2B7AD000E01AE00F2B71
:1049E00077D0102B76D0112B75D0122B1DD104F15E
:1049F0008000012105600420FBF7B5FF002814D0DA
:104A0000A81EE667E063A1488660BDE8F041032088
:104A1000FEF750BB0320A567FEF76CFB01210A20BF
:104A2000FEF740FE002800D0E563BDE8F0810121DB
:104A30001E20FBF75DFF0028F7D0022009E00023CD
:104A400001223C21FEF7AEFC01280BD00228ECD15C
:104A5000001FE063E9E707E014E021E028E03BE025
:104A600045E04CE0E663E0E704211E20FBF740FF51
:104A70000028DAD06FF00200EBE748E053E05BE09B
:104A800063E072E00421B420FEF70CFE0028CCD0D5
:104A90006FF00300DDE786E08DE094E0A1E0A9E09F
:104AA000012304223C21FEF77DFC0128BDD1D9E77A
:104AB00001210A20FBF7F0FE0028B6D00420E063B5
:104AC0000320FBF777FFC0F587604CE09BE0A2E096
:104AD000B0E0BEE0C8E0CFE001223220FBF756FE96
:104AE0000028A2D005204FF48761E063ACE00121EB
:104AF0001046FBF7D1FE002897D00620A9E7012138
:104B00001E20FBF7F5FE00288FD00720A1E7002329
:104B100001223C21FEF746FC0128A3D0022884D1C3
:104B20006FF0060095E704211E20FBF7E1FE002848
:104B300090D06FF007008CE70421B420FEF7B2FD9F
:104B4000002887D06FF0080083E701210A20FBF7D7
:104B5000A3FE002887D00920E0630320FBF72AFF8B
:104B6000A0F2BC7064E0A0665FE7607820B9012223
:104B70002820FBF70BFE6070A07820B902215A2094
:104B8000FEF7ECFBA07060780028EDD0A07800283C
:104B9000EAD00A20E06340F2BC710320FEF7A0FADD
:104BA000A670667041E701211046FBF775FE0028EC
:104BB000DAD00B204DE701211E20FBF799FE0028DB
:104BC000D2D00C2045E7002301223C21FEF7EAFB6E
:104BD000012804D00228C7D16FF00B0039E7E76342
:104BE00023E704211E20FBF783FE0028BCD06FF0D2
:104BF0000C002EE70421B420FEF754FD0028B3D0AA
:104C00006FF00D0025E7012304223C21FEF7CAFBCB
:104C10000128A9D1E3E701210A20FBF73DFE002886
:104C2000A2D00E20E0630320FBF7C4FEA0F66C4088
:104C3000404298E701223C20FBF7A8FD002893D0D2
:104C40000F2040F66C41E063BDE8F0410320FEF721
:104C500047BA01213C20FBF71FFE002884D010201A
:104C6000E063C4E91E65E0E601211046FEF71AFD87
:104C7000002897D01120ECE601213C20FBF738FEFC
:104C800000288FD01220E4E600000020A4010020BC
:104C90002DE9F041914C0126E26BE2B3012A4CD0A0
:104CA00003254FF4FA60022A4FD0911C5BD0D11C2F
:104CB00062D0111D69D0032A74D021460025896E67
:104CC000042A6BD0052A6AD0062A69D00827072A49
:104CD00067D0D31D74D012F1080F72D012F1090FF2
:104CE00070D0082A6FD0092A6ED00A2A6DD00B2AFC
:104CF0006CD00C2A1FD104F1800001210660042031
:104D0000FBF731FE002816D0681EA567E0637448E3
:104D10008560032000E003E0BDE8F041FEF7CAB97A
:104D20000320A667FEF7E6F901210A20FEF7BAFC88
:104D3000002800D0E663BDE8F08101211E20FBF7CA
:104D4000D7FD0028F7D0022009E0002301223C21F2
:104D5000FEF728FB012804D00228ECD1001FE063F5
:104D6000E9E7E563E7E704211E20FBF7C1FD002822
:104D7000E1D06FF00200F2E70421B420FEF792FCCC
:104D80000028D8D06FF00300E9E7012304223C217A
:104D9000FEF708FB0128CED1E3E703E017E034E09B
:104DA0003CE043E001210A20FBF776FD0028C2D059
:104DB0000420E0630320FBF7FDFDC0F552706BE0BB
:104DC00042E04AE052E059E068E076E07DE0607859
:104DD00020B901222820FBF7D9FC6070A07820B907
:104DE00002215A20FEF7BAFAA07060780028A2D0FB
:104DF000A07800289FD00520E0634FF45271032073
:104E0000FEF76EF9A570657095E701214FF4F0701B
:104E1000FBF742FD00288ED00620A0E701211E20CE
:104E2000FBF766FD002886D0072098E700230122C3
:104E30003C21FEF7B7FA012804D0022890D16FF088
:104E400006008CE7E76376E704211E20FBF750FDA0
:104E5000002885D06FF0070081E70421B420FEF719
:104E600021FC0028D0D06FF0080078E7012304224D
:104E70003C21FEF797FA0128C6D1E3E701210A2079
:104E8000FBF70AFD0028BFD00920E0630320FBF7F1
:104E900091FDA0F2BC704042A0664CE701222D209B
:104EA000FBF774FC0028AFD00A20E063BDE8F041B6
:104EB00040F2BC710320FEF713B901217820FBF703
:104EC000EBFC0028A0D00B2049E701213C20FBF798
:104ED0000FFD002898D00C2041E7000000000020C2
:104EE000A401002070B5434C0125E16B31B30129C9
:104EF00030D003264FF4FA60022933D08A1C45D003
:104F0000CA1C4CD00A1D53D00026032958D00429AE
:104F100067D005291DD104F180000121056004201E
:104F2000FBF721FD002814D0A81EA667E0633248D5
:104F30008660BDE870400320FEF7BCB80320A5677B
:104F4000FEF7D8F801210A20FEF7ACFB002800D0BC
:104F5000E56370BD01211E20FBF7CAFC0028F8D0D4
:104F6000022009E0002301223C21FEF71BFA012860
:104F700004D00228EDD1001FE06370BD0320E6637A
:104F8000FBF718FDC0F51670A06670BD04211E2049
:104F9000FBF7AEFC0028F8D06FF00200ECE704212C
:104FA000B420FEF77FFB0028EFD06FF00300E3E7AB
:104FB000012304223C21FEF7F5F90128E5D1DDE7C4
:104FC000A06E28B90320FBF7F5FCC0F51670A066AB
:104FD0000121FBF761FC0028D7D00420A666E0631E
:104FE00070BD01213C20FBF783FC0028F8D0052090
:104FF000C2E7000000000020A40100200E48016963
:1050000009B105207047C16809B1042070470168E3
:1050100009B101207047416809B1022070478168D9
:1050200009B103207047416909B1062070478069C2
:105030000028FBD007207047E4010020104800F151
:10504000A8020179116010324179116000F1C801A4
:1050500082790A60C279CA601031027A0A60427AA3
:10506000CA601031827A0A60C27ACA6000F1F8021E
:10507000017B116002F11001407B08607047000065
:10508000CC00002010B5FBF7F5FBFBF7EBFBFEF7C0
:10509000DFF9FEF7E5F9FBF7F5FB0120FEF738F83D
:1050A000BDE810400220FEF733B80000044900209C
:1050B000886088614860486102494866704700001E
:1050C000E401002000000020F0B55C1D91B0E5B2C5
:1050D0005A248DF80040A5248DF801408DF8021067
:1050E0000DEB03068DF80330194431716C46002135
:1050F0000BE004EB010C575C8CF8047012F801C053
:105100003779491C67443771C9B29942F1D3C82332
:105110002A462146FDF79CFB11B0F0BD2DE9F05F5A
:10512000414E424DA6F168043179A86A04F178072E
:1051300004F188092154401C317A2154401C317BF0
:105140002154401C39792154401C397A2154401C87
:10515000397B2154401C99F804102154401C99F8C3
:105160000810215404F1980B401C9BF804102154A2
:10517000401C9BF80810215404F1A80A401C9AF81E
:1051800004102154401C9AF808102154401CA862B5
:10519000FFF734FFA96ADFF898806054491C95F83E
:1051A00074006054491CA96204214046FBF718FFB3
:1051B000A96A6054491CA96202214046FBF710FF0E
:1051C000A96A04F1C80822466054491C95F8780081
:1051D0006054491C95F87C00605405F18000491C1E
:1051E00000786054491C98F804006054491C98F8F1
:1051F00008006054491C98F80C006054491CCBB25C
:10520000A96200210B48FFF75FFF0020A8627060D1
:105210007860C9F80400CBF80400CAF80400C8F8A4
:105220000400BDE8F09F0000740100200000002091
:1052300000080140A40300200246244810B58168FC
:10524000234881B100210160FFF7D8FE00283CD13E
:105250004FF4FA600A2A37D2DFE802F0302A241E1F
:10526000172A100D07170121EDE70121BDE81040B5
:105270000320FEF773B801211E200FE001220A214E
:10528000BDE810403C20FBF781BA0123BDE8104087
:105290001A463C21FEF786B801210A20BDE81040DD
:1052A000FBF7FABA0121BDE810405A20FBF74CBACF
:1052B0000121BDE810401E20FBF71ABB0121BDE80B
:1052C00010400220FBF74FBB002010BD0000002063
:1052D000E4010020000000000000000001020304BF
:1052E0000607080900000000010203040C5300082F
:1052F00000000020B800000008370008C453000870
:10530000B800002030070000183700080000000037
:10531000000000000000000000000000000000008D
:10532000000000000000000000000000000000007D
:10533000000000000000000000000000000000006D
:10534000000000000000000000000000000000005D
:10535000000000000000000000000000000000004D
:10536000000000000000000000000000000000003D
:10537000000000000000000000000000000000002D
:10538000000000000000000000000000000000001D
:10539000000000000000000000000000000000000D
:1053A0000000000000000000A900B20093003C00D3
:1053B00024000B00010000001000000000000000AD
:0453C0000024F400D1
:04000005080000ED02
:00000001FF
