:020000040800F2
:10000000C8070020010100083F280008C924000893
:100010003D28000809080008692E000800000000BB
:10002000000000000000000000000000C7280008D9
:100030008D0800080000000071280008152900083C
:100040001B0100081B0100081B0100081B01000820
:100050001B0100081B0100081B0100081B01000810
:100060001B0100081B0100081B0100081B01000800
:100070001B0100081B0100081B0100081B010008F0
:100080001B0100081B0100081B0100081B010008E0
:100090001B0100081B0100081B01000839090008AA
:1000A0001B010008952900081B0100081B0100081E
:1000B000A1290008AD290008B92900081B01000882
:1000C0001B0100081B0100081B0100081B010008A0
:1000D0001B0100085D2E00081B0100081B01000821
:1000E0001B0100081B0100081B010008DFF80CD0F1
:1000F00000F0BAFA0048004751310008C807002054
:100100000648804706480047FEE7FEE7FEE7FEE7B1
:10011000FEE7FEE7FEE7FEE7FEE7FEE791290008BF
:10012000ED000008202A04DB203A21FA02F0002129
:10013000704721FA02F3D040C2F1200291400843F7
:1001400019467047D2B201E000F8012B491EFBD2DC
:1001500070470022F6E710B513460A4604461946D2
:10016000FFF7F0FF204610BDF0B480EA0102D40F83
:100170004200B2EB410F02D20246084611464A0045
:1001800042D0C30DDDB2C1F3C752AD1A202D35DA0E
:10019000C1F3160141F4000204B15242C5F1200638
:1001A00002FA06F12A411044B3EBD05F23D0C4B168
:1001B000012DA0EBC35009DCF0BC4FF0004202EA75
:1001C000C352DBB200F5000000F0C2B9400000F1FC
:1001D000807000EBC350A0F1807040EAD1704900FC
:1001E00009E0490841EAC071A0EBC35000F50000E6
:1001F000400800EBC350F0BC00F0A1B961420122FD
:1002000002EB4101001BF6E7F0BC704781F00041B2
:10021000AAE780F00040A7E72DE9FE4F804681EA7B
:100220000300C00F0C46009021F0004123F0004570
:10023000B8EB0200A94105D24046214690461C4633
:100240000B46024623F00040104347D0270DC7F36A
:100250000A00C3F30A510290401A019040286BDA59
:10026000C3F3130040F4801B0098924620B1002392
:10027000D2EB030A63EB0B0B01985946C0F1400225
:10028000504600F03BF906460D4650465946019A45
:1002900000F043F910EB08006141002487EA115295
:1002A00084EAE7731A4340D0009A62B3019A012AA4
:1002B0004FEA075215DC001B61EB02014FF00042D0
:1002C00002EA0752CDE90042001C41F58011324696
:1002D0002B4600F07AF903B0BDE8F08F4046214686
:1002E000F9E7001B61EB0201001C41F580130018C7
:1002F0005B412018A2F5001747EB030140EAD570D7
:10030000B6196D4111E06D084FEA360645EAC07531
:100310004FEA0752001B61EB0201001C41F58011FE
:1003200049084FEA30000019514132462B4603B0CC
:10033000BDE8F04F00F03AB90098012240000023D8
:10034000D0EB020263EBE073009821464FEAE074C1
:10035000B8EB000061EB0401E9E783F000435BE7E1
:1003600081F0004158E72DE9FE4F81EA030404F0D3
:10037000004421F0004100944FF0000B23F00043B3
:1003800050EA01045ED052EA03045BD0C3F30A547E
:10039000C1F30A552C44A4F2F3340194A0FB025497
:1003A000C1F3130141F48011C3F3130343F4801329
:1003B00001FB024400FB034E840A970A44EA81547D
:1003C00047EA8357A4FB076802958D0A05FB07855A
:1003D0004FEA932C04FB0C542705029D4FEA065864
:1003E00047EA1637B5EB08056EEB070C870E920E41
:1003F00047EA811742EA8312A7FB0201B6EB0B0121
:1004000064EB00042B0D43EA0C335E1844EB1C50E4
:10041000DA465146E7FB0201C5F313044FEA0B33FA
:1004200043EA14534FEA0432019C43EA0603A4F161
:100430000C040294009CCDE900B400F0C6F803B0AF
:10044000BDE8F08F00200146F9E7C10F80EAE070B7
:100450000844CA079623002100F07AB896230022A8
:10046000114600F075B80EB5C10F80EAE07008447F
:10047000CA07002140F233438DE80E000A460B46BE
:1004800000F0A3F803B000BD00F0004230F00040DF
:100490000AD0C10D01F56071C0F3160042EA0151A6
:1004A000C20840071143704700200146704701F021
:1004B000004330B421F0004150EA010206D00A0D99
:1004C000A2F56072C1F31301002A02DC30BC0020E7
:1004D0007047440F44EAC104C100E01830BC00EB8F
:1004E000C25000F02CB80000002801DBC0F1004031
:1004F000002901DBC1F1004188427047202A04DB5A
:10050000203A00FA02F1002070479140C2F1200326
:1005100020FA03F3194390407047202A06DBCB17DB
:10052000203A41FA02F043EAE07306E041FA02F3AE
:10053000D040C2F12002914008431946704700297B
:10054000A8BF7047401C490008BF20F00100704759
:1005500010B4B0FA80FC00FA0CF050EA010404BFB9
:1005600010BC704749B1CCF1200421FA04F411FA0F
:100570000CF118BF012121430843A3EB0C01CB1D53
:100580004FEA00614FEA102042BF002010BC7047C4
:1005900000EBC35010440029A4BF10BC7047401C9E
:1005A000490008BF20F0010010BC704710B5141EB0
:1005B00073F1000408DA401C41F1000192185B411C
:1005C0001A4301D120F0010010BD2DE9F04D9246F3
:1005D0009B4611B1B1FA81F202E0B0FA80F220320A
:1005E0009046FFF78BFF04460F4640EA0A0041EAB7
:1005F0000B0153465A46084313D0114653EA0100F3
:1006000019D0C8F140025046FFF78CFD05460E4652
:10061000504659464246FFF771FF084305D0012076
:1006200004E020463946BDE8F08D0020054346EA47
:10063000E0762C4337430A986305E40AA0EB0800F0
:100640000022FD0A44EA47540A3002D50020014640
:10065000E9E7010510196941DDE90845001969411B
:10066000BDE8F04DA2E70000064C074D06E0E0684B
:1006700040F0010394E8070098471034AC42F6D3E9
:10068000FFF738FD344A0008544A000870B50446A4
:1006900000688168C943C9071CD1816821F0010144
:1006A000816000F0A1FC05460FE000BF00F09CFC5B
:1006B000401B022809D9A06A40F01000A062E06A3D
:1006C00040F00100E062012070BD20688068C043F6
:1006D000C007EBD0002070BDF8B500260446009698
:1006E00000688168C943C90728D0816841F00101C9
:1006F0008160134813490068B0FBF1F000E0401E30
:1007000000900028FBD100F06FFC054611E000BF0F
:1007100000F06AFC401B02280BD9A06A40F01000D0
:10072000A062E06A40F00100E06284F824600120E9
:10073000F8BD20688068C043C007E9D10020F8BD3B
:10074000A800002040420F0002460E4810B50B469C
:10075000816809B1C06818B104F024F8002010BD08
:10076000184600F019F99042184604DA02F0B6F87B
:1007700002F076F8F2E702F091F800F07FF801203D
:1007800010BD0000000000202DE9F0411C4C074680
:100790001646A0680D4608B1E06820B104F002F8E2
:1007A0000020BDE8F08102F085FC0028304620D012
:1007B00002F094F800F05AF802F05EFA02F04CFAF7
:1007C0003846FFF742FE0146206CFFF78DFE3046AB
:1007D00007D802F063F802F02FFA02F01DFA0120A8
:1007E000DFE700F0D9F8A842DADB0649012088618A
:1007F000D6E702F081F802F00FFA02F029F8CFE70D
:1008000000000020C4010020FEE7000010B50F48E2
:1008100000F04CF9FFF722FE0D4C216BFFF7A4FC12
:100820002063E16A491CE16264290EDBFFF72CFEBC
:10083000084A094BFFF797FDFFF739FE606302F0A6
:1008400055FB20640020E062206310BDE001002021
:10085000000000207B14AE47E17A843F0022802113
:10086000014800F0BCBB000000080140002202214A
:10087000014800F0B4BB0000000C0140002201213F
:10088000014800F0ACBB0000000C014070470000C4
:1008900070B5044612480D46816809B1C06818B1A8
:1008A00003F080FF002070BD02F004FC0028284601
:1008B00011D002F013F802F0DFF9FFF7D7FF284656
:1008C00000F06AF8A042EDDB284601F0E7FF02F0F5
:1008D000B3F9012070BD02F00FF801F0B9FFE1E7B4
:1008E0000000002070B5124C02460D46A06890B181
:1008F000E06880B9084601F0F1FF284600F04CF8A6
:10090000904202DA02F0B0F907E002F0D3FB30B116
:1009100008490120886003F045FF002070BD02F007
:1009200083F900206060284601F0B8FF012070BD07
:1009300000000020C401002010B5202000F046FA7D
:10094000BDE81040402000F041BA72B6FEE710B595
:1009500003460C46084600F017F8C2B2B2EB430F4C
:1009600020460ADA01F0BAFFD00702D002F06CF993
:1009700001E002F049F9002010BD01F08FFF02F004
:1009800043F9012010BD0000024901EBC00050F8FE
:10099000080C70472C010020044901EBC00050F8FE
:1009A000080C00EBD0704010704700002C010020B4
:1009B000F8B50024009490F824202546012A12D08E
:1009C000012280F824204A681F23072A0DD20668D6
:1009D000776B521E02EB820293409F430B68934059
:1009E0001F43776319E00220F8BD06680D2A0AD27A
:1009F000376BD21F02EB820293409F430B689340F8
:100A00001F43376309E0F76A0D3A02EB8202934015
:100A10009F430B6893401F43F7620A6807230668E9
:100A20000A2A0AD3F7680A3A02EB420293409F432C
:100A30008B6893401F43F76008E0376902EB42027E
:100A400093409F438B6893401F4337610A68102A85
:100A500001D0112A20D1124B02689A4217D1936813
:100A60001B0219D4936843F40003936009681029AA
:100A700012D10C490C4A0968B1FBF2F101EB81017A
:100A8000490000E0491E00910029FBD104E0816A81
:100A900041F020018162012480F824502046F8BDF5
:100AA00000240140A800002040420F000068C06CF4
:100AB000704700002DE9F0414FF0000704003D466B
:100AC0007ED0A06A002628B9E66284F82460204619
:100AD00000F07EF82046FFF7D9FDA16AC90600D4D0
:100AE00020B1A06A40F01000A06269E0A16A21F480
:100AF000885141F00201A1626268E169237B0A43E7
:100B000047EA43010A43A1684FF48077B94209D00C
:100B1000012907D05FF0000194F814C0BCF1010F67
:100B200002D00AE03946F7E7F3B1A36A43F02003A5
:100B3000A362E36A43F00103E3622368D3F804C0CD
:100B40002CF4694C4CEA010CC3F804C021688B6892
:100B5000DFF870C003EA0C0313438B60A168B9424D
:100B60000BD0012909D00CE0DFF85CC0A3690CEBC5
:100B700043330B4343F40061DFE7218A0D05A5F5FC
:100B800080152168CB6A23F470032B43CB62216864
:100B900089680E4B1940914208D1E662A16A21F0A2
:100BA000020141F00101A162BDE8F081A06A20F0DC
:100BB000020040F01000A062E06A40F00100E06234
:100BC0000120F1E7FDF7E1FF00E0FFFFFE0E1FFF50
:100BD00000B585B000210091019102910391006858
:100BE0000E49884218D10E48816941F40071816133
:100BF000816901F400710491816941F0040181610E
:100C00008069694600F004000490012000900320F0
:100C10000190044800F0E6F805B000BD0024014052
:100C2000001002400008014070B5044690F824000E
:100C300001280DD0012084F824002046FFF74CFD48
:100C400002004FF0000005D084F82400104670BD6B
:100C5000022070BDA16A40F20123994341F48071E2
:100C6000A1621F4D23681F49AB4218D10E6816F4CC
:100C7000702F14D0A66A46F48016A6620E68760518
:100C800005D5A66A26F4005646F48056A662A66AE2
:100C9000F6040AD5E66A26F00606E66206E0A66ACB
:100CA00026F48016A6625E68E9E7E06284F8240014
:100CB0006FF00200186020688368C3F34243072B7B
:100CC00005D1A84208D1096811F4702F04D08168B9
:100CD00041F480118160B9E7816841F4A001F9E72E
:100CE000002801400424014010B590F82110002490
:100CF000022903D00421816301243DE001680A68D0
:100D000022F00E020A6001680A6822F001020A60FD
:100D10001A4A0168914201D1012121E0174A143297
:100D2000914201D110211BE0144A2832914201D195
:100D3000891515E0114A3C32914201D189140FE026
:100D40000E4A5032914202D14FF4803108E00B4AF2
:100D50006432914202D14FF4801101E04FF0807172
:100D6000064A083A5160012180F82110002180F8DC
:100D70002010416B01B18847204610BD0800024099
:100D800070B5044600F030F90546601C02D00448F6
:100D90000078044400F028F9401BA042FAD370BD4B
:100DA0009C0000200022084920280AD0402807D1B2
:100DB000C86D10B1886C401C88640120CA65486504
:100DC00070474A647047000000000020044910B5D5
:100DD0000A68024202D00860FFF7E4FF10BD00007D
:100DE000140401402DE9F84FDFF8B891002409F10F
:100DF000040A0AF1040B23460F270BF1040EC9E085
:100E00000125A5402A40AA427DD1674ED1F804C0F1
:100E1000ACEB0608B44532D014DCBCF1030F3AD079
:100E200009DCBCF1000F2AD0BCF1010F1CD0BCF1D1
:100E3000020F31D11DE0BCF1110F17D0BCF1120F20
:100E40002AD119E0B8F5881F19D006DCB8F5803F23
:100E500015D0B8F5801F1FD111E0B8F5001F0ED0D6
:100E6000B8F5041F18D10AE0CB6815E0CB681B1D4C
:100E700012E0CB6808330FE0CB680C330CE08B68D2
:100E80002BB1012B4FF0080303D0456104E004238C
:100E900002E0056100E00023FF2A01D8064601E0D8
:100EA00000F104064FEA840501D9A5F12005D6F822
:100EB000008007FA05FC28EA0C0803FA05F548EA61
:100EC0000508C6F800804D68ED0062D5374DAE6963
:100ED00046F00106AE61AD6924F0030605F0010598
:100EE0000095334D06EB050CDCF80850A607360FCD
:100EF00007FA06F825EA0805DFF8B880404503D16F
:100F00004FF0000817E044E0DFF8AC80404502D124
:100F10004FF001080FE0DFF8A480404502D14FF008
:100F2000020808E0DFF89880404502D14FF003083E
:100F300001E04FF0040808FA06F848EA0508CCF882
:100F400008804D68D9F80060ED034D4601D5164381
:100F500000E096432E604D68DAF80060AD03554618
:100F600001D5164300E096432E604D68DBF8006023
:100F7000ED025D4601D5164300E096432E604D68B4
:100F8000DEF80060AD02754601D5164300E09643D9
:100F90002E60641C0D682A46E5407FF431AFBDE841
:100FA000F88F000000040140000011100010024002
:100FB0000000014000080140000C01400010014009
:100FC000001401408068084000D001207047C268CA
:100FD00021EA02030A4043EA0241016170470AB173
:100FE000016170470904FBE7014880687047000011
:100FF0009C00002070B5040025D094F83D00002529
:1010000020B984F83C50204600F0B8F8242084F839
:101010003D002068016821F001010160206801683D
:1010200041F4004101602068016821F40041016041
:1010300000F076FA4D4A6168914201D84C4900E0CF
:101040004C49884201D2012070BD4B492368B0FB56
:10105000F1F15E6826F03F060E435E6063689342DE
:1010600006D94FF4967359434FF47A73B1FBF3F1F9
:101070002368491C1E6A26F03F06314319626168E5
:10108000914210D84900401EB0FBF1F2521CC2F34D
:101090000B02042A01D2042022E0B0FBF1F0401C34
:1010A000C0F30B001CE0A268F2B301EBC10303EB39
:1010B0000116431EB3FBF6F35B1C43F480431B0590
:1010C00049D092B301EBC10202EB0111401EB0FB0B
:1010D000F1F0401CC0F30B0040F4804040F40040AD
:1010E0002168CA694CF6FF739A431043C861D4E97A
:1010F000071001432068026822F0C002114301601A
:10110000D4E9030101432068826848F2FF339A431F
:1011100011438160D4E9050108432168CA6822F0BF
:10112000FF021043C86001E00EE016E0206801688D
:1011300041F0010101602564202084F83D00256311
:1011400084F83E50002070BD01EB4106431EB3FB06
:10115000F6F35B1CB3E70120C2E701EB4101401E3F
:10116000B0FBF1F0401CC0F30B00B7E7A086010014
:1011700080841E0000093D0040420F0010B586B07B
:101180000021009101910291039100680F4988426A
:101190001AD10F4CA06940F00800A061A06969460F
:1011A00000F008000490C02000901220019003205D
:1011B00003900848FFF716FEE06940F40010E06174
:1011C000E06900F40010049006B010BD0054004027
:1011D00000100240000C014002488168027811446E
:1011E000816070479C000020074810B5016841F0FD
:1011F00010010160032000F075F8002000F006F8EF
:1012000000F024F8002010BD0020024070B50D4D04
:1012100004464FF47A712878B1FBF0F00A49096866
:10122000B1FBF0F000F062FB48B9102C07D20022AD
:101230002146501E00F036F800206C6070BD012081
:1012400070BD00009C000020A80000200C4808B5DC
:10125000816941F001018161816901F00101009121
:10126000C16941F08051C161C06900F080500090B7
:101270000448416821F0E06141F00071416008BD1F
:101280000010024000000140002809DB00F01F02AE
:10129000012191404009800000F1E020C0F80011D8
:1012A00070470000F0B40E4B1B680C46C3F30223DA
:1012B000C3F10705042D00D90425191D072901D202
:1012C000002300E0DB1E012606FA05F1491E21403D
:1012D00099409E40761E16403143F0BC01F0E6BDB9
:1012E0000CED00E0064900F0070208684FF6FF0326
:1012F000184040EA0220034A10430860704700008B
:101300000CED00E00000FA052DE9F84305460078F1
:10131000354CC00754D0E0690026C00008D4E0690D
:1013200040F08050E061E069012600F080500090BC
:101330002E480168C90512D40168804641F48071C5
:101340000160FFF751FE074605E000BFFFF74CFEC6
:10135000C01B642823D8D8F80000C005F6D5206A41
:1013600010F4407021D0A98801F4407181421CD052
:10137000206A1F49012220F440700A6000220A609E
:101380002062C00711D0FFF72FFE074641F28838D0
:1013900008E000BFFFF728FEC11B414502D903202A
:1013A000BDE8F883206A8007F4D5206A696820F4D4
:1013B0004070084320621EB1E06920F08050E06177
:1013C0002878800705D56068A96820F44040084364
:1013D00060602878C00605D56068E96820F4800060
:1013E000084360600020DBE700100240007000400E
:1013F000400442422DE9F0470F46050061D0434EBC
:10140000306800F00700B84209D2306820F00700C9
:1014100038433060306800F00700B84251D1286886
:101420003B4C810712D5400703D5606840F4E0606B
:1014300060602878000703D5606840F46050606001
:101440006068A96820F0F000084360602878C00751
:1014500028D06868012810D02168022810D0890798
:1014600000292EDA616821F0030101436160FFF772
:10147000BBFD804641F288390DE021688903EFE722
:101480008901EDE7FFF7B0FDA0EB0801494502D95E
:101490000320BDE8F0876068696800F00C00B0EBDD
:1014A000810FEFD1306800F00700B8420BD93068E7
:1014B00020F0070038433060306800F00700B84281
:1014C00001D00120E5E72878400705D56068E96884
:1014D00020F4E060084360602878000706D5606863
:1014E000296920F4605040EAC100606000F038F8DB
:1014F0006168084AC1F30311515CC840064908609D
:1015000006480068FFF782FE0020C2E70020024084
:10151000001002401C4A0008A8000020A000002083
:101520000448054900684968044AC1F30221515C36
:10153000C8407047A8000020001002402C4A000854
:101540000448054900684968044AC1F3C221515C56
:10155000C8407047A8000020001002402C4A000834
:1015600012A185B00FC98DE80F0014A0144A0068BD
:1015700004905168134801F00C03042B10D0082B81
:101580000ED1C1F38343C9031DF803000AD5516886
:1015900004AAC1F34041515C0A4A5043B0FBF1F048
:1015A00005B0704708494843FAE700000203040504
:1015B000060708090A0B0C0D0E0F1010010200009F
:1015C0000010024000127A0000093D002DE9F84F9A
:1015D000040070D02078C04DC00749D06868C0F3BF
:1015E0008100012807D06868C0F38100022809D172
:1015F0006868C00306D52868800339D5606800286C
:10160000E7D035E06068B0F5803F0BD010B1B0F5A1
:10161000A02F11D0286820F480302860286820F49A
:10162000802002E0286840F480302860606890B133
:10163000FFF7DAFC06460AE0286840F480202860BC
:10164000F0E700BFFFF7D0FC801B642873D8286840
:101650008003F7D50CE0FFF7C7FC064605E000BFA6
:10166000FFF7C2FC801B6428F0D828688003F7D4F9
:1016700020789A4E80074FF001094FF0000839D5C5
:10168000686810F00C0F07D06868C0F3810002286A
:1016900009D16868C00306D42868800714D520697A
:1016A000012808D110E02069B0B1C6F80090FFF71A
:1016B0009BFC074605E00AE1FFF796FCC01B0228E9
:1016C000C4D828688007F7D52868616920F0F80039
:1016D00040EAC10028600DE0C6F80080FFF784FCF6
:1016E000074604E0FFF780FCC01B022823D82868C7
:1016F0008007F7D4207800072CD57948A169D9B1A3
:10170000C0F80090FFF770FC074604E0FFF76CFCA0
:10171000C01B02280FD8686A8007F7D571484FF4BC
:10172000FA510068B0FBF1F0009000BF0098411E34
:101730000091FAD20EE080E0C0F80080FFF754FC80
:10174000074604E0FFF750FCC01B022875D8686A02
:101750008007F7D42078400760D5E8690027C000EB
:1017600008D4E86940F08050E861E869012700F09A
:10177000805000905C480168C90513D40168834615
:1017800041F480710160FFF72FFC824606E000BF44
:10179000FFF72AFCA0EB0A0064284ED8DBF8000013
:1017A000C005F5D5E06801280AD008B1052813D096
:1017B000286A20F001002862286A20F0040002E074
:1017C000286A40F001002862E06841F2883B98B145
:1017D000FFF70AFC82460BE0286A40F0040028620A
:1017E000EEE700BFFFF700FCA0EB0A0159455AD80D
:1017F000286A8007F6D50CE0FFF7F6FB824605E085
:10180000FFF7F2FBA0EB0A0159454CD8286A800784
:10181000F6D41FB1E86920F08050E861E06988B330
:101820006968C1F38101022944D00228C6F86080AA
:1018300004D0FFF7D9FB044638E034E0FFF7D4FBCF
:10184000074604E0FFF7D0FBC01B02282BD828680E
:101850008001F7D4206AB0F5803F05D16868A1689F
:1018600020F4003008436860D4E90801084369683F
:1018700021F4741108436860C6F86090FFF7B4FB68
:10188000044606E025E000BFFFF7AEFB001B022880
:1018900009D828688001F7D51BE000BFFFF7A4FB3B
:1018A000001B022802D90320BDE8F88F28688001B8
:1018B000F4D40EE00128F7D06868226A00F4803181
:1018C000914204D1616A00F47010884201D0012075
:1018D000EAE70020E8E70000001002400000424272
:1018E00080044242A80000200070004010B5401E55
:1018F000B0F1807F01D3012010BD4FF0E024606182
:101900000F21601701F0D2FA0020A06107202061AA
:10191000002010BD7047704770B590F83C20012A38
:1019200026D0012480F83C40022280F83D20036844
:101930005A689D6822F070060A6832435A600D4B5F
:1019400002689A4208D0B2F1804F05D00A4B9A4201
:1019500002D00A4B9A4204D1496825F0800319430A
:10196000916080F83D40002180F83C10084670BD31
:10197000022070BD002C014000040040000800401F
:1019800010B5040003D094F83D0010B107E0012029
:1019900010BD002084F83C00204600F01FF8022013
:1019A00084F83D00211D206801F00CF8012084F826
:1019B000460084F83E0084F83F0084F8400084F834
:1019C000410084F8420084F8430084F8440084F81D
:1019D000450084F83D00002010BD000008B51E4AF7
:1019E00001681E4891420ED1816941F40061816114
:1019F0008069002200F40060009011461920FFF772
:101A000051FC192022E0164A91420ED1C16941F0E1
:101A10000201C161C069002200F00200009011467D
:101A20001D20FFF73FFC1D2010E00E4A914211D10E
:101A3000C16941F00401C161C069002200F00400E5
:101A4000009011461E20FFF72DFC1E20BDE8084027
:101A5000FFF71ABC08BD0000002C01400010024036
:101A6000000400400008004090F83D10012901D01A
:101A700001207047022180F83D100168CA6842F0D9
:101A80000102CA6000680B49884208D0B0F1804F5B
:101A900005D00949884202D00849884204D18168AA
:101AA00001F00701062903D0016841F0010101603E
:101AB00000207047002C0140000400400008004056
:101AC00070B5044690F83C00012817D0012584F831
:101AD0003C50022084F83D002068826822F07702A2
:101AE00022F47F4282600868502830D00DDC202824
:101AF0004DD005DC98B310283BD148E0022070BDE2
:101B0000302844D0402834D139E0602828D07028CB
:101B100006D0B0F5805F2CD0B0F5005F29D10AE087
:101B2000CB68D1E90121206800F08FFF206881682F
:101B300041F0770109E0CB68D1E90121206800F08C
:101B400084FF2068816841F48041816011E0CA68A7
:101B50004968206800F08BFF5021206807E016E0FC
:101B6000CA684968206800F0BFFF6021206800F063
:101B700076FF84F83D50002084F83C0070BDCA68B0
:101B80004968206800F073FF40212068EFE7226871
:101B900001461046EBE700000349884203D10348A1
:101BA0004168491C41607047AC02002000000020E1
:101BB0002DE9F041054690F83C000C46012836D04E
:101BC000012085F83C008AB3042A42D02868082AFC
:101BD00051D0D4E90023E168066A26F480560662F3
:101BE000C669076A26F4407646EA03234FF6FF7675
:101BF00006EA013123F4704319434FF4005627F4E9
:101C0000005306EA02321A43C16102622868C169C0
:101C100021F44061C1612868C169A26841EA0221DA
:101C2000C161002085F83C00BDE8F08101E00220A0
:101C3000FAE7D4E90012E368286800F029FF286871
:101C4000816921F00C01816128688169A2681143D2
:101C50000FE0D4E90012E368286800F057FF286815
:101C6000816921F44061816128688169A26841EA43
:101C700002218161D5E7D4E90027267B016A21F49E
:101C800080710162C169036A21F00301394321F0C7
:101C9000F00731074FF4007647EA116123F400732F
:101CA00006EA02221A43C16102622868C16921F072
:101CB0000C01C1612868C169A2681143B0E710B581
:101CC000040003D094F83D0010B107E0012010BDDE
:101CD000002084F83C00204600F01EF8022084F822
:101CE0003D00211D206800F06DFE012084F84600B3
:101CF00084F83E0084F83F0084F8400084F84100F6
:101D000084F8420084F8430084F8440084F84500D5
:101D100084F83D00002010BD00B585B00021009181
:101D20000191029103910068B0F1804F1ED11048DB
:101D3000C16941F00101C161C16901F00101049172
:101D4000816941F0040181618069694600F0040005
:101D50000490082000900748FFF744F8002211463D
:101D60001C20FFF79FFA1C20FFF78EFA05B000BD7C
:101D7000001002400008014010B5044651B104298A
:101D80000DD0082910D094F8410094F8452001287E
:101D900011D10EE094F83E0094F84220F7E794F851
:101DA0003F0094F84320F2E794F8400094F8442070
:101DB000EDE7012A01D0012010BD022051B1042914
:101DC00011D0082918D084F8410084F845000C2966
:101DD0001BD136E084F83E0084F842002068C268D7
:101DE00042F0020210E084F83F0084F843002068CB
:101DF000C26842F0040207E084F8400084F844001E
:101E00002068C26842F00802C2600122206800F027
:101E10000FFE0E492068884208D0B0F1804F05D0EF
:101E20000B49884202D00B49884204D1816801F0F5
:101E30000701062903D0016841F00101016000207B
:101E400010BD2068C26842F01002DDE7002C01409E
:101E5000000400400008004070B5044600680169B5
:101E60004FF00005C943890715D4C168C9438907E4
:101E700011D4E91E01610120207720688069800764
:101E8000204602D0FFF788FE04E000F098F82046D4
:101E900000F096F8257720680169C943490717D4EF
:101EA000C168C943490713D46FF0040101610220DE
:101EB00020772068806910F4407F204602D0FFF729
:101EC0006BFE04E000F07BF8204600F079F82577FF
:101ED00020680169C943090716D4C168C9430907C5
:101EE00012D46FF008010161042020772068C069D6
:101EF0008007204602D0FFF74FFE04E000F05FF8B5
:101F0000204600F05DF8257720680169C943C906BD
:101F100017D4C168C943C90613D46FF01001016119
:101F2000082020772068C06910F4407F204602D046
:101F3000FFF732FE04E000F042F8204600F040F8DF
:101F4000257720680169C943C90708D1C168C94319
:101F5000C90704D1891E0161204600F033F82068CA
:101F60000169C943090609D4C168C943090605D4F2
:101F70006FF0800101612046FFF7CCFC2068016909
:101F8000C943490609D4C168C943490605D46FF05D
:101F900040010161204600F07FF820680169C943D3
:101FA00089060BD4C168C943890607D46FF02001A4
:101FB00001612046BDE87040FFF7ADBC70BD7047C1
:101FC0007047000070B506462E4800252E4C86420C
:101FD00032D102F047FC4FF400512C48FEF7F7FFD6
:101FE0002B48002100EBC1035A68012A02D0521C81
:101FF00006D006E050F83120521C40F8312000E0B5
:102000005D60491C0529EDDB216F022901DA491CBD
:102010002167416809B9C16801B1012141611A48CC
:102020008030D0E9011209B1521C82600A2A03DB18
:10203000012901D1456085601648864220D1606D36
:1020400010B1A06D401CA0650120E065A16D1429B0
:102050000BDBA16C082901DD012100E00021E1601A
:1020600001B10121C4E91515A564616C1A2901DAD1
:10207000491C6164142901DAA06000E0A560A06336
:1020800070BD00006402002000000020000C014030
:102090002C010020F40200207047704770B50268E0
:1020A00004461068D168536910F00F0F52D003F046
:1020B000010501F490762E435FD0C20705D0CA0512
:1020C00003D5E26B42F00102E263420705D5DA076D
:1020D00003D0E26B42F00202E263820705D5DA0721
:1020E00003D0E26B42F00402E263020707D501F07D
:1020F00020022A4303D0E26B42F00802E263E26B63
:10210000002A33D0800604D5880602D5204600F088
:10211000D1FD20684069E16BC0F38010090700D44D
:1021200028B3204600F0B8FD2068416949061AD559
:10213000416921F040014161606BA0B12D494163CB
:10214000606BFEF7D1FD002810D0606B416BBDE8DD
:1021500070400847830610D58B060ED52046BDE893
:10216000704000F0A7BD2046FFF797FF70BD2046E6
:10217000FFF793FF0020E06370BD03062BD50B062D
:1021800029D594F839002128F6D1A068B0F5805FF0
:1021900001D12069B0B1206A411C21622168007818
:1021A0004860E08C401E0004000CE084E4D120680C
:1021B000C16821F08001C1602068C16841F0400120
:1021C000C16070BD206A0088C0F308005060206ABA
:1021D000801C2062E5E74006F3D54806F1D5D168BA
:1021E000204621F04001D160202184F8391000F010
:1021F0006AF970BD892C000870B5040004D094F809
:102200003900002510B106E0012070BD84F8385077
:10221000204600F023F8242084F839002068C168A3
:1022200021F40051C160204600F08AFD2068016958
:1022300021F4904101612068416921F02A01416146
:102240002068C16841F40051C160E563202084F832
:10225000390084F83A00002070BD000030B585B028
:102260000024009401940294039400681849884261
:102270002CD11848816941F480418161816901F460
:1022800080410491816941F0040181618069124DAE
:1022900000F0040004904FF40070009002200190C0
:1022A0000320039069462846FEF79CFD2815CDE9DA
:1022B0000004694628460294FEF794FD0022114668
:1022C0002520FEF7EFFF2520FEF7DEFF05B030BD2D
:1022D00000380140001002400008014090F83A30F8
:1022E000202B22D1F9B1F2B190F83830012B1CD05B
:1022F00081628285C2850021C163222280F83A2052
:1023000080F838100168CA6842F48072CA600168B7
:102310004A6942F001024A610068C16841F0200147
:10232000C160002070470120704702207047000004
:10233000F0B43549884264D13448354B02254269AE
:102340000178995401461E780C690021521C5A2EBE
:1023500001D06CB100E034B1012C0BD0022C14D0B0
:10236000032C22D022E04261012A1FDD012216E067
:1023700041611BE05C78A52C02D04161016115E050
:102380004261022A12DD056110E0DC78641D84617F
:10239000641E1F2C05D24261032A07DD032202615D
:1023A00004E041610161816107E04261D0E90524F7
:1023B000A24202D10269032A05D0F0BC01221349CE
:1023C0001148FFF78BBFC0E907150A46661E02E0F9
:1023D0005F5D6D1C3A44B542FADBC0E907251D1963
:1023E00015F8015C954203D1426A521C4262D8E75B
:1023F0000A46016201E09954521CA242FBDB0262D0
:10240000CFE7F0BC704700008403002000000020EC
:10241000AC0000202DE9F843044690F839001F462F
:1024200016460D4620284CD1C5B1BEB194F83800EF
:10243000012846D0012084F838004FF00008C4F885
:102440003C80212084F83900FEF7CEFDA684814629
:10245000E684A068B0F5805F03D004E00120BDE809
:10246000F883206928B12E465FF0000584F8388093
:102470000EE00026FAE78021204600F0BDFCA0B95E
:10248000AEB116F8010B21684860E08C401EE08474
:10249000E08C4B464FF0000200970028EBD14FF044
:1024A0004001204600F0A8FC30B10320D7E735F802
:1024B000020BC0F30800E6E7202084F83900002072
:1024C000CDE70220CBE77047FEE700003EB50024D1
:1024D00010480094019402940D4984600160012524
:1024E0000573047505614FF460214460C161FEF716
:1024F000E1FA08B1FEF729FACDE900456946054839
:102500000294FEF755FA002801D0FEF71EFA3EBDF0
:1025100000240140E00100202DE9F04385B00024B3
:1025200039480094019402940394816941F0200198
:102530008161816901F020010491816941F0040108
:102540008161816901F004010491816941F0080110
:1025500081618069DFF8B48000F0080004900022F7
:1025600080214046FEF73BFDDFF8A49046F6074782
:10257000002239464846FEF732FD0620CDE9000428
:10258000694640460294FEF72DFC102001258DE897
:10259000310069464046FEF725FC202000901D488A
:1025A000CDE9010469464046FEF71CFC402000903E
:1025B0001948CDE9010569464046FEF713FC802025
:1025C0000226CDE90005CDE9024669464046FEF700
:1025D00009FC00970396CDE9015469464846FEF789
:1025E00001FC28038DE8310069464846FEF7FAFBF6
:1025F000002211461720FEF755FE1720FEF744FE75
:1026000005B0BDE8F0830000001002400008014062
:10261000000C014000001110000021100D4810B501
:102620000B4901600C49416000214FF480428160F8
:10263000C0E9031241618161C1610162FEF7DAFC08
:10264000002803D0BDE81040FEF77FB910BD0000A0
:102650000054004010020020A086010010B586B092
:10266000002418480094019402940394049414499B
:10267000059401604FF4E151C0E9011441F2883141
:10268000C0E9031444618461FFF77AF908B1FEF7E9
:102690005CF94FF48050009069460A48FFF710FA41
:1026A00008B1FEF752F9049404A906480594FFF70F
:1026B00033F9002801D0FEF748F906B010BD00003C
:1026C000002C01406402002010B586B00024184898
:1026D000059404940094019402944FF08041039473
:1026E000C0E900144FF6FF71C0E902410461846142
:1026F000FFF7E5FA08B1FEF728F9049404A90C489D
:102700000594FFF709F908B1FEF71FF90120CDE99B
:1027100000400F20CDE902400C2269460448FFF733
:1027200047FA002801D0FEF710F906B010BD0000EE
:10273000AC02002010B586B0002417480094019424
:102740000294039404941349059401604FF4E151F9
:10275000C0E901146421C0E903148461FFF710F992
:1027600008B1FEF7F2F84FF48050009069460A482D
:10277000FFF7A6F908B1FEF7E8F8049404A90648A3
:102780000594FFF7C9F8002801D0FEF7DEF806B07F
:1027900010BD000000040040F402002010B586B017
:1027A000002417480094019402940394049413495C
:1027B000059401604FF4E151C0E901140A21C0E918
:1027C00003148461FFF7DCF808B1FEF7BEF84FF49C
:1027D0008050009069460A48FFF772F908B1FEF789
:1027E000B4F8049404A906480594FFF795F8002866
:1027F00001D0FEF7AAF806B010BD000000080040A6
:102800003C0300200C4810B50A4901604FF4164102
:102810004160002181600C22C160C0E90412816125
:10282000C161FFF7E9FC002803D0BDE81040FEF7C6
:102830008CB810BD0038014084030020FEE7FEE79D
:10284000012280210148FEF7CABB000000080140B8
:10285000012202210148FEF7C2BB0000000C01402A
:10286000012211460148FEF7BABB0000000C0140EE
:102870007047072811D2DFE800F0100406080A0CA0
:102880000E0000F037BD00F0F5BF01F0E9B901F02E
:10289000F9BB01F095BD01F0BFBE704704494FF090
:1028A000FF3201EBC000002140E902127047000036
:1028B0002C01002000B50120FFF7F0FF02205DF899
:1028C00004EBFFF7EBBF7047034A490002EBC0007F
:1028D00040F8081C704700002C010020054901EB5E
:1028E000C00050F8041C002902D1012140F8041C4A
:1028F000704700002C010020054901EBC00050F892
:10290000041C012902D1002140F8041C704700007A
:102910002C010020FEF760BC30B593B0282168463A
:10292000FDF717FC14210AA8FDF713FC0025012070
:102930000F9510951195010412958DE823000490D0
:102940004FF4E010CDE90810022407946846FEF722
:102950003DFE08B172B6FEE70AA90F2081E83100FA
:102960004FF48060CDE90D0502210AA8FEF742FD73
:1029700008B172B6FEE74FF4004011900F940FA813
:10298000FEF7C2FC002801D072B6FEE713B030BDDE
:10299000704700000148FFF75FBA000064020020A2
:1029A0000148FFF759BA0000AC0200200148FFF7C8
:1029B00053BA0000F40200200148FFF74DBA0000AE
:1029C0003C030020F0B50268164B174C174D4FF032
:1029D0008047984205D0B84203D0A04201D0A84217
:1029E00003D122F070064A683243984205D0B842BB
:1029F00003D0A04201D0A84203D122F44074CA6897
:102A000022434C6922F08002224302608A68C2623B
:102A10000A688262984201D109690163012141611A
:102A2000F0BD0000002C0140000400400008004000
:102A300010B501F01F030121046A99408C43046220
:102A4000016A9A401143016210BD10B5846842EAE0
:102A5000032224F47F440A432243826010BD82682B
:102A600022F070020A4342F007018160704710B5FE
:102A7000036A046A24F001040462846924F0F00407
:102A800044EA021423F00A020A438461026210BD80
:102A900070B5046A24F0010404628469056A0F4E6B
:102AA000B04208D0B0F1804F05D00D4EB04202D0F8
:102AB0000C4EB04203D124F00304144301E044F06F
:102AC00001041A0724F0F00444EA126225F00A0314
:102AD00001F00A0119438261016270BD002C0140BE
:102AE000000400400008004010B5036A23F0100302
:102AF00003628369046A23F4704343EA023224F0D8
:102B0000A00343EA01118261016210BD30B5046A7D
:102B100024F0100404628469056A24F4407444EAD1
:102B2000022222F470444FF6FF7202EA033222437B
:102B3000A02425F0A00304EA011119438261016277
:102B400030BD000002460F4810B50B46816809B140
:102B5000C06828B11846FFF7CFFE01F023FE09E058
:102B60001846FDF719FF9042184605DAFFF7B6FE42
:102B7000FFF766FE002010BDFFF790FEFDF76EFE2A
:102B8000012010BD000000202DE9F0411C4C05463D
:102B90001E46A0680F46904608B1E06828B110466E
:102BA000FFF7AAFE01F0FEFD28E06068A8420ADBFC
:102BB00000F080FA38B16068A8421FDB00F07AFAB2
:102BC000012814D01AE04046FFF788FEFFF740FEC8
:102BD0004046FDF7E1FEB84210DB16B1094901207D
:102BE00048604046FFF75AFE0220BDE8F0814046AB
:102BF000FFF754FEFDF73AFE0120F6E70020F4E768
:102C000000000020C401002000224FF48041014850
:102C1000FEF7E5B9000C014000224FF400610148C5
:102C2000FEF7DDB9000C0140002204210148FEF747
:102C3000D6B90000000C014000224FF48061014829
:102C4000FEF7CDB9000C0140012291030148FEF7C7
:102C5000C6B90000000C01400122D1020148FEF774
:102C6000BEB90000000C0140012204210148FEF71A
:102C7000B6B90000000C0140012291020148FEF7A4
:102C8000AEB90000000C014010B5406A0021C185BA
:102C9000C184FFF702FA10BD0168CA6822F490727D
:102CA000CA6001684A6922F001024A61202180F865
:102CB0003A10704710B590F83A10222901D002203E
:102CC00010BD82684FF480539A4201D1016921B14D
:102CD000816A9A421BD04AB10AE00268816A52684E
:102CE000C2F308020A80816A891C08E0026972B195
:102CF0000268526802F07F020A70816A491C816290
:102D0000C18D491E0904090CC18503D016E0026873
:102D10005268F1E70168CA6822F02002CA600168BF
:102D2000CA6822F48072CA6001684A6922F001020E
:102D30004A61202180F83A10FFF7FAFA002010BD0E
:102D400070B5044600680169E26821F440511143FE
:102D500001612169A0680843616908432168CA6864
:102D600041F20C639A430243CA6020684169A26938
:102D700021F44071114341611E492068884202D10B
:102D8000FEF7DEFB01E0FEF7CBFB00EBC00101EB41
:102D90000012606864218000B2FBF0F3B3FBF1F332
:102DA0006FF018067343B2FBF0F5B2FBF0F605EBDB
:102DB0008305322303EB0515B5FBF1F5B6FBF1F600
:102DC00005F0F00505EB0615B2FBF0F6B2FBF0F0EE
:102DD000B0FBF1F06FF01802504306EB800003EBFC
:102DE0000010B0FBF1F0216800F00F00284488606B
:102DF00070BD0000003801402DE9F04198461746AB
:102E00000E460446069D1DE0681C1BD02DB1FEF742
:102E1000EBF8A0EB0800A84214D92068C16821F49F
:102E2000D071C1602068416921F001014161202019
:102E300084F8390084F83A00002084F83800032030
:102E4000BDE8F0812068006836EA000004D0002068
:102E5000B842D9D00020F3E70120F9E70148FFF795
:102E60001DB9000084030020FEE7000002460E4862
:102E700010B50B46816809B1C06818B101F092FC29
:102E8000002010BD1846FDF787FD9042184602DA73
:102E9000FFF724FDF4E7FDF77FFD9042F0DB1846D5
:102EA000FFF7FCFC012010BD000000200907090EFF
:102EB000002804DB00F1E02080F80014704700F0E7
:102EC0000F0000F1E02080F8141D704702E008C8F0
:102ED000121F08C1002AFAD170477047002001E094
:102EE00001C1121F002AFBD17047000070B50646D1
:102EF0000C48006DFDF7B7FA04460D463046FDF765
:102F0000C3FA094A094BFDF72EFA094A094BFDF7A6
:102F100083F922462B46FDF77FF9BDE87040FDF7A7
:102F2000C6BA000000000020C5FEB27BF2B0903FA0
:102F3000B7627FD93D391F4010B5FFF785FEFA20F3
:102F4000FDF71EFFFFF760FEBDE81040FA20FDF719
:102F500017BF000007480849012283681BB1C368F6
:102F6000012B00D10A61006C044B984200DDCA605D
:102F70007047000000000020C40100200000A042B3
:102F80002DE9F0413A493B4C01260868002538B14B
:102F9000206F022801D1C4E91B658E60C1E900568B
:102FA00033484FF0020C103002683AB1226F022A07
:102FB00001D1C4E91BC58660C0E900562C4A203205
:102FC00002F11007136802F14008E3B1236F022BEE
:102FD00002D10323C4E91B35D3681560C2E901633C
:102FE0008BB18D608560BD60C8F80850C8F80C5082
:102FF000A567C0F80CC0E56301F0D4FB01F0FAFB53
:103000001B4870300560386858B1206F022802D123
:103010000420C4E91B05F8683D60C7E9016001F0C0
:10302000E9FB13484030016841B1216F022902D108
:103030000521C4E91B158660C0E90056D8F80010C8
:103040004046002911D0216F02290BD10621C4E985
:103050001B15C168182903DA491CC0E9026101E0A7
:103060008560C5604660C8F80050BDE8F08100008A
:10307000540100200000002010B50D4C206858B904
:10308000606848B9A06838B9206928B9E06818B9FB
:10309000606908B9A06948B1FFF74EFF01F082FBF3
:1030A000206908B9E06808B1012010BD002010BDFA
:1030B000C401002010B510210448FDF783FF18B1AA
:1030C0000348C068002800D0012010BD000801405E
:1030D0008000002010B51648FDF7A6FD0C2115480C
:1030E000FEF74AFE1448FEF7BFFC012213491448BC
:1030F000FFF7F4F81348FEF7B7FC1348FEF7B4FCEB
:103100001249012001F11002486009235060CB6090
:103110000221D16002F110014860886010314860DE
:1031200010314860203148600020886010BD0000E8
:10313000E0010020AC020020F4020020000000208A
:10314000840300203C03002064020020540100207E
:10315000FEF74AF8FFF7E0FBFFF7DEF9FFF7B6F9F5
:10316000FFF75CFAFFF74EFBFFF7E4FAFFF716FBF9
:10317000FFF7AAFAFFF772FAFFF7ACFF5B4EDFF832
:1031800070A1A6F1600906F11007A6F13008A6F1BA
:10319000200B0025AAF18004386828B1A06818B176
:1031A00001203D60CAF80400B068B8B1D8F8080042
:1031B000012813D10221CAF8041001214FF46160E3
:1031C000FFF754FE0028F06801D0401EF06028B9D7
:1031D000B5600320CAF80450FFF760FBFFF7BAFEA2
:1031E000FFF74AFF2066606E08B101F003FB01F0B3
:1031F00095FA002863D1D9F8080018B3D8F8080068
:1032000040B1E06C30B9D9F80C0001F0B9FB08B15D
:103210000120E064DBF80810584681B3416871BBB7
:10322000D9F80C10DBF80C00814200D0E56401F005
:10323000B9FAFFF73FFBDBF80C20C9F80C20CBF8FC
:1032400008503CE0294A503A9068C0B10320FDF78D
:10325000A3FB3C2190FBF1F12448254A5038103261
:10326000C06802EB400232F8022C511A6167D8F8AC
:103270000810012904D069B1491C0ED010E01EE0ED
:10328000A16809B901213960DAF8041041B9FFF7E2
:10329000F0FA05E001F086FA02E001F083FAE56356
:1032A000DBF80810584651B1416841B90F49C2686E
:1032B0005039CA60CBF80850E563CAF80050606A1C
:1032C000002806DD01F04AFAFFF75AFE606A401E48
:1032D0006062A06B10B1FDF799FAA563E06E00285B
:1032E0003FF45AAFFFF728FEE56655E7B40100202A
:1032F000800000202DE9F041FA4C0126E16B002905
:103300007ED001297DD0032502297BD0881C7AD06C
:10331000C81C79D0081D78D0032977D0204604290D
:10332000806E74D0052973D0062972D0082507292C
:1033300070D0CA1D6FD011F1080F6DD011F1090FB7
:1033400063D0082969D00025092967D00A2966D0E9
:103350000B2965D00D2741F2FC280C297CD011F1F6
:103360000C0F7AD011F10D0F78D011F10E0F76D02D
:103370000D2975D00E2974D010270F2972D011F1A4
:103380000F0F70D011F1100F6ED011F1110F6CD022
:1033900010296BD011296AD01327122968D011F196
:1033A000120F6ED011F1130F6CD011F1140F6AD0FF
:1033B00041F60427132967D0142973D0152972D038
:1033C000162971D0172970D018296FD019296ED0FD
:1033D0001A296DD01B296CD01C296BD01D296AD0ED
:1033E0001E2969D01F2968D0202967D0212971D0D2
:1033F00022292FD104F1800001210660042010E071
:103400001DE036E041E05CE065E06DE075E082E003
:103410008DE095E09CE0A8E0B0E0B8E0C7E0E5E032
:10342000EDE0FDF794FA002814D0681EE567E0632C
:10343000AD488560BDE8F0410320FFF72FBA0320B7
:10344000A667FFF74BFA01210A20FFF70FFD0028BE
:1034500000D0E663BDE8F081D9E0E5E0EDE0F5E01D
:1034600003E109E110E11CE124E12CE13EE144E14A
:103470004BE101211E20FDF735FA0028EAD0022099
:103480000EE051E159E161E169E1002301223C21B3
:103490006420FFF779FB012811D00228DAD1001F40
:1034A000E063D7E768E176E180E187E18EE195E1CD
:1034B0009CE1A4E1ABE1B3E1BAE1C2E1C9E1E563BA
:1034C000C8E704211E20FDF70DFA0028C2D06FF0D6
:1034D0000200E5E7C5E10421B420FFF7C7FC00289E
:1034E000B8D06FF00300DBE7012304223C21642005
:1034F000FFF74AFB0128ADD1E1E701210A20FDF7E2
:10350000C7F90028A6D00420E0630320FDF744FAA1
:10351000C0F5527049E0014601222820FDF734F938
:10352000002897D005204FF45271E0632EE101216D
:103530004FF49670FDF7ACF900288BD00620AFE76A
:1035400001211E20FDF7CEF9002883D00720A7E730
:10355000002301223C216420FFF716FB0128AED096
:1035600002289ED16FF006009AE704211E20FDF785
:10357000B9F9002895D06FF0070091E70421B42035
:10358000FFF774FC00288CD06FF0080088E7012159
:103590000A20FDF77DF9002892D00920E06303207E
:1035A000FDF7FAF9A0F624104042A06652E76178D0
:1035B00029B9014601223C20FDF7E6F86070A078A9
:1035C00020B902215A20FFF7BDFAA07060780028C8
:1035D000ECD0A0780028E9D00A20E06340F624115E
:1035E0000320FFF771F9A570657033E7012140F6FC
:1035F0003400FDF74DF90028D8D00B2050E7012109
:103600001E20FDF76FF90028D0D00C2048E70023DA
:1036100001223C216420FFF7B7FA01281ED00228BE
:10362000C4D16FF00B003BE704211E20FDF75AF9CF
:103630000028BBD06FF00C0032E70421B420FFF764
:1036400015FC0028B2D06FF00D0029E701230422F9
:103650003C216420FFF798FA0128A7D10320E763F3
:10366000FDF79AF9A8EB00009FE70121FDF710F99B
:1036700000289BD00E2013E701211E20FDF732F910
:10368000002893D00F200BE7002301223C21642067
:10369000FFF77AFA01281ED0022887D16FF00E00BA
:1036A000FEE604211E20FDF71DF900289DD06FF0D5
:1036B0000F00F5E60421B420FFF7D8FB002894D0D2
:1036C0006FF01000ECE6012304223C216420FFF798
:1036D0005BFA012889D10320E763FDF75DF9C0F5A6
:1036E000A55062E700000020840100200121FDF7C1
:1036F000CFF8002888D01120D2E601211E20FDF746
:10370000F1F8002895D01220CAE6002301223C21BE
:103710006420FFF739FA012804D002289DD16FF008
:103720001100BDE6E76395E604211E20FDF7DAF8F7
:103730000028F8D06FF01200B2E60421B420FFF7A1
:1037400095FB0028EFD06FF01300A9E601230422B7
:103750003C216420FFF718FA0128E4D1E2E70121B7
:103760000A20FDF795F80028DDD01420E06303203F
:10377000FDF712F9381A18E7014601224120FDF73A
:1037800003F80028CFD015203946E063BDE8F041AA
:103790000320FFF799B801213C20FDF779F80028B4
:1037A000C1D01620E063C4E91E5653E601211E2055
:1037B000FFF75CFB0028B6D0172071E601211E2020
:1037C000FDF790F80028AED0182069E60121962078
:1037D000FFF74CFB0028A6D0192061E601211E202E
:1037E000FDF780F800289ED01A2059E6012140F20A
:1037F000B220FFF73BFB002895D01B2050E60121AB
:103800001E20FDF76FF800288DD01C2048E601210E
:1038100040F2CE40FFF72AFB002884D01D203FE66F
:1038200001211E20FDF75EF80028BED01E2037E6DD
:10383000012140F29240FFF719FB0028B5D01F206C
:103840002EE601211E20FDF74DF80028ADD02020E6
:1038500026E601213C20FFF709FB0028A5D0212006
:103860001EE601213C20FDF73DF800289DD02220D6
:1038700016E600002DE9F041F74C0126E16BE9B3B3
:1038800001296CD00325022979D0881C70D0C81C6E
:103890006FD0081D6ED020460329806E6BD004299E
:1038A0006AD00625052968D04A1D67D08A1D73D0C5
:1038B000CA1D72D0062971D0002507296FD00829AA
:1038C0006ED009296DD00B270A296BD011F10A0F90
:1038D00069D011F10B0F67D011F10C0F75D00B29C6
:1038E00074D00C2973D00D2972D00E2971D00F29F4
:1038F00070D010296FD011296ED000E022E012297B
:103900006BD013296AD0142969D0152968D01629DB
:1039100067D017296FD018296ED019291DD104F14D
:103920008000012106600420FDF711F8002814D062
:10393000681EE567E063C9488560BDE8F041032083
:10394000FEF7ACBF0320A667FEF7C8FF01210A20DF
:10395000FFF78CFA002800D0E663BDE8F081012172
:103960001E20FCF7BFFF0028F7D0022012E006E07F
:1039700022E037E041E049E04FE056E063E0002319
:1039800001223C216420FFF7FFF801280DD0022816
:10399000E3D1001FE063E0E75EE066E06EE07CE01C
:1039A0009AE0A2E0A9E0B7E0BFE00320E563FCF7FE
:1039B000F3FFC0F5C3606EE004211E20FCF792FF08
:1039C0000028CAD06FF00200E4E7B7E0BFE0CCE027
:1039D000DBE0E5E0ECE0F3E0FAE002E109E111E12F
:1039E00018E120E10421B420FFF740FA0028B4D008
:1039F0006FF00300CEE71EE125E1012304223C2104
:103A00006420FFF7C1F80128A7D1CEE70121FCF718
:103A10003FFF0028A1D00420BCE701211E20FCF7B5
:103A200061FF002899D00520B4E7002301223C2142
:103A30006420FFF7A9F8012803D002288DD1C01F08
:103A4000A8E7E56389E704211E20FCF74BFF002867
:103A500083D06FF005009DE70421B420FFF706FA3C
:103A6000002898D06FF0060094E7012304223C213F
:103A70006420FFF789F801288DD1E2E701210A20AF
:103A8000FCF706FF002886D00720E0630320FCF740
:103A900083FFC0F52560A0665FE7617829B901461C
:103AA00001222D20FCF770FE6070A07820B9022161
:103AB0005A20FFF747F8A07060780028C2D0A0789D
:103AC0000028BFD00820E0634FF425610320FEF7F3
:103AD000FBFEA570657040E701214FF46160FCF7C3
:103AE000D7FE0028AED0092054E701211E20FCF7A4
:103AF000F9FE0028A6D00A204CE7002301223C2131
:103B00006420FFF741F8012804D002289AD16FF011
:103B100009003FE7E76320E704211E20FCF7E2FEEF
:103B200000288FD06FF00A0034E70421B420FFF79B
:103B30009DF9002886D06FF00B002BE701230422AB
:103B40003C216420FFF720F80128A5D1E2E70121FC
:103B50000A20FCF79DFE00289ED00C20E063032085
:103B6000FCF71AFFC0F5E15095E7014601223C2021
:103B7000FCF70AFE00288FD00D20E063BDE8F0417D
:103B80004FF4E1510320FEF79FBE01213C20FCF7DA
:103B90007FFE00289FD00E20E063C4E91E56DCE6BD
:103BA00001211E20FCF79EFE002894D00F20F1E694
:103BB00001219620FFF75AF900288CD01020E9E661
:103BC00001211E20FCF78EFE002884D01120E1E6A2
:103BD000012140F2B220FFF749F900289BD01220C2
:103BE000D8E601211E20FCF77DFE002893D013208B
:103BF000D0E6012140F2CE40FFF738F900288AD004
:103C00001420C7E601211E20FCF76CFE0028C6D058
:103C10001520BFE6012140F29240FFF727F9002866
:103C2000BDD01620B6E601211E20FCF75BFE002861
:103C3000B5D01720AEE601213C20FFF717F9002888
:103C4000ADD01820A6E601213C20FCF74BFE002851
:103C5000A5D019209EE6000000000020840100206D
:103C60002DE9F041F84C0126E16BE1B301297AD04E
:103C70000325022970D0881C6FD0C81C6ED0081D87
:103C80006DD020460329806E6AD0042969D00625AC
:103C9000052967D04A1D6ED08A1D6DD0CA1D6CD013
:103CA00006296BD00025072969D0082968D0092981
:103CB00067D00C270A2972D011F10A0F70D011F1C8
:103CC0000B0F6ED011F10C0F6CD00C296BD00D299D
:103CD0006AD00F270E2968D011F10E0F76D011F19E
:103CE0000F0F74D000E029E011F1100F70D00F29F0
:103CF0006FD010296ED011296DD012296CD01329E4
:103D00006BD014296AD0152969D0162968D01729D3
:103D100067D018291DD104F180000121066004201C
:103D2000FCF715FE002814D0681EE567E063C7485D
:103D30008560BDE8F0410320FEF7B0BD0320A66713
:103D4000FEF7CCFD01210A20FFF790F8002800D0F3
:103D5000E663BDE8F08106E014E02EE042E04AE0D0
:103D600052E058E05FE001211E20FCF7BBFD002877
:103D7000EFD0022011E064E06CE074E07CE08AE0C7
:103D8000A8E0B0E0002301223C216420FEF7FCFE05
:103D900001280BD00228DCD1001FE063D9E7AAE09C
:103DA000B6E0BEE0C6E0D4E0DAE0E1E00320E5639F
:103DB000FCF7F2FDC0F525706BE004211E20FCF736
:103DC00091FD0028C5D06FF00200E6E7DFE0E7E0F4
:103DD000EFE0F7E004E113E11DE124E12BE137E13D
:103DE0003EE146E10421B420FFF740F80028B0D0BE
:103DF0006FF00300D1E7012304223C216420FEF789
:103E0000C3FE0128A5D1D1E70121FCF741FD00281F
:103E10009FD00420C1E701211E20FCF763FD00288C
:103E200097D00520B9E7002301223C216420FEF74A
:103E3000ABFE012803D002288BD1C01FADE7E5639C
:103E400087E704211E20FCF74DFD002881D06FF08C
:103E50000500A2E70421B420FFF708F800289DD050
:103E60006FF0060099E7012304223C216420FEF74D
:103E70008BFE012892D1E2E701210A20FCF708FD20
:103E800000288BD00720E0630320FCF785FDC0F5F8
:103E9000D260A0665DE7617829B9014601222D2034
:103EA000FCF772FC6070A07820B902215A20FEF75E
:103EB00049FEA07060780028C2D0A0780028BFD04A
:103EC0000820E0634FF4D2610320FEF7FDFCA570EB
:103ED00065703EE701214FF41660FCF7D9FC00281D
:103EE000AED0092059E701211E20FCF7FBFC002879
:103EF000A6D00A2051E7002301223C216420FEF7CE
:103F000043FE01281ED002289AD16FF0090044E731
:103F100004211E20FCF7E6FC002891D06FF00A0077
:103F20003BE70421B420FEF7A1FF002888D06FF002
:103F30000B0032E7012304223C216420FEF724FE1B
:103F40000128A7D10320E763FCF726FDC0F58750C1
:103F50009FE70121FCF79CFC00289BD00D201CE76B
:103F600001211E20FCF7BEFC002893D00E2014E790
:103F7000002301223C216420FEF706FE012804D024
:103F8000022887D16FF00D0007E7E763E1E604211F
:103F90001E20FCF7A7FC00289BD06FF00E00FCE66B
:103FA0000421B420FEF762FF002892D06FF00F00CA
:103FB000F3E6012304223C216420FEF7E5FD0128FD
:103FC00087D1E2E701210A20FCF762FC0028DDD05E
:103FD0001020E0630320FCF7DFFCC0F5A55058E794
:103FE000014601223720FCF7CFFB0028CED011205C
:103FF000E063BDE8F0414FF4A5510320FEF764BC37
:1040000001213C20FCF744FC0028BFD01220E063D3
:10401000C4E91E569DE601219620FEF727FF0028E1
:10402000B4D01320B9E601211E20FCF75BFC002868
:10403000ACD01420B1E6012140F29E70FEF716FFCD
:104040000028A3D01520A8E600000020840100204D
:1040500001211E20FCF746FC002897D016209CE684
:10406000012140F2EC40FEF701FF00288ED017201E
:1040700093E601213C20FCF735FC002886D018206F
:104080008BE600002DE9F041CB4C0125E26BEAB351
:10409000012A62D00326022A67D0901C7BD0D01C54
:1040A00071D0101D70D0032A6FD02046042A816E73
:1040B0006CD04FF49670052A69D0062A68D008267D
:1040C000072A71D0D31D70D012F1080F6ED012F1F3
:1040D000090F7DD0082A6AD00026092A68D00A2A4A
:1040E00067D00B2A6FD00D270C2A6DD012F10C0F60
:1040F0006BD012F10D0F69D012F10E0F67D00D2A9F
:104100006FD00E2A6ED00F2A6DD000E018E0102A72
:104110006AD0112A69D0122A1DD104F18000012130
:1041200005600420FCF713FC002814D0A81EE667E5
:10413000E063A2488660BDE8F0410320FEF7AEBB15
:104140000320A567FEF7CAFB01210A20FEF78EFEB9
:10415000002800D0E563BDE8F08101211E20FCF7B6
:10416000C1FB0028F7D002200AE0002301223C21F5
:104170006420FEF709FD01280BD00228EBD1001FB7
:10418000E063E8E707E015E022E02FE03CE046E0EE
:104190004CE0E663DFE704211E20FCF7A3FB0028C8
:1041A000D9D06FF00200EBE748E054E05CE064E057
:1041B00073E090E00421B420FEF758FE0028CAD036
:1041C0006FF00300DCE78DE094E0A2E0AAE0B2E04B
:1041D000012304223C216420FEF7D6FC0128BAD139
:1041E000D7E7B1E0BFE0CDE0D7E0DDE001210A2074
:1041F000FCF74EFB0028AED00420E0630320FCF760
:10420000CBFBC0F5876046E001223220FCF7BCFA08
:104210000028A0D005204FF48761E063ADE00121C4
:10422000FCF736FB002896D00620A9E701211E20C6
:10423000FCF758FB00288ED00720A1E700230122BD
:104240003C216420FEF7A0FC0128A2D0022882D1E4
:104250006FF0060094E704211E20FCF743FB0028C2
:104260008FD06FF007008BE70421B420FEF7FEFD2E
:10427000002886D06FF0080082E701210A20FCF7B1
:1042800007FB002886D00920E0630320FCF784FBAD
:10429000A0F2BC7065E0A0665DE7607820B90122FD
:1042A0002820FCF771FA6070A07820B902215A200A
:1042B000FEF748FCA07060780028EDD0A0780028B8
:1042C000EAD00A20E06340F2BC710320FEF7FCFA5A
:1042D000A67066703FE70121FCF7DAFA0028DBD010
:1042E0000B204DE701211E20FCF7FCFA0028D3D05B
:1042F0000C2045E7002301223C216420FEF744FC0A
:10430000012804D00228C7D16FF00B0038E7E7631B
:1043100021E704211E20FCF7E5FA0028BCD06FF04D
:104320000C002DE70421B420FEF7A0FD0028B3D037
:104330006FF00D0024E7012304223C216420FEF7E6
:1043400023FC0128A8D1E2E701210A20FCF7A0FA0A
:104350000028A1D00E20E0630320FCF71DFBA0F68F
:104360006C40404297E701223C20FCF70DFA002800
:1043700092D00F2040F66C41E063BDE8F04103208D
:10438000FEF7A2BA01213C20FCF782FA0028A1D056
:104390001020E063C4E91E65DDE60121FEF766FD3D
:1043A000002897D01120EBE601213C20FCF79AFA77
:1043B00000288FD01220E3E60000002084010020B6
:1043C0002DE9F041924C0127E06BE0B301284AD07F
:1043D000032502284FD0811C5CD0C11C63D0011D75
:1043E0006AD0032877D021460025896E04286DD035
:1043F00005286CD006286BD00826072869D0C21D76
:1044000068D010F1080F74D010F1090F72D008288D
:1044100071D0092870D00A286FD00B286ED00C28D4
:104420001FD104F18000012107600420FCF78FFAFE
:10443000002816D0681EA567E06376488560BDE851
:10444000F041032000E001E0FEF728BA0320A7674F
:10445000FEF744FA01210A20FEF708FD002800D0EB
:10446000E763BDE8F08101211E20FCF73BFA00283C
:10447000F7D002200AE0002301223C216420FEF74D
:1044800083FB012804D00228EBD1001FE063E8E79A
:10449000E563E6E704211E20FCF724FA0028E0D0BB
:1044A0006FF00200F2E70421B420FEF7DFFC0028E1
:1044B000D7D06FF00300E9E7012304223C216420F8
:1044C000FEF762FB0128CCD1E2E704E017E034E01C
:1044D0003CE043E051E001210A20FCF7D9F9002833
:1044E000BFD00420E0630320FCF756FAC0F55270F9
:1044F0006CE04BE053E05BE06AE078E07FE06078FE
:1045000020B901222820FCF73FF96070A07820B97B
:1045100002215A20FEF716FBA07060780028A0D078
:10452000A07800289DD00520E0634FF4527103204D
:10453000FEF7CAF9A570657093E701214FF4F0709A
:10454000FCF7A6F900288CD006209FE701211E2049
:10455000FCF7C8F9002884D0072097E70023012240
:104560003C216420FEF710FB012804D002288ED1E4
:104570006FF006008AE7E66373E704211E20FCF76C
:10458000B1F9002885D06FF007007FE70421B4203F
:10459000FEF76CFC0028CFD06FF0080076E701230F
:1045A00004223C216420FEF7EFFA0128C4D1E2E79F
:1045B00001210A20FCF76CF90028BDD00920E06336
:1045C0000320FCF7E9F9A0F2BC704042A06648E77E
:1045D00001222D20FCF7D8F80028ADD00A20E06396
:1045E000BDE8F04140F2BC710320FEF76DB9012136
:1045F0007820FCF74DF900289ED00B2046E70121DA
:104600003C20FCF76FF9002896D00C203EE7000014
:10461000000000208401002070B53E4C0125E06BB5
:1046200020B301282ED00326022833D0811C46D087
:10463000C11C4DD0011D54D003285BD0042861D08B
:1046400005281ED104F18000012105600420FCF73B
:104650007EF9002815D00020411EE1632E49A06795
:104660008860BDE870400320FEF718B90320A567F5
:10467000FEF734F901210A20FEF7F8FB002800D0EC
:10468000E56370BD01211E20FCF72CF90028F8D04D
:1046900002200AE0002301223C216420FEF774FA84
:1046A000012804D00228ECD1001FE06370BD032074
:1046B000E663FCF771F9C0F51670A06670BD0421C1
:1046C0001E20FCF70FF90028F8D06FF00200ECE78D
:1046D0000421B420FEF7CAFB0028EFD06FF00300DE
:1046E000E3E7012304223C216420FEF74DFA012870
:1046F000E4D1DCE70121A06EFCF7CAF80028DDD088
:104700000420D2E701213C20FCF7ECF80028D5D0AA
:104710000520CAE700000020840100200E4801693E
:1047200009B105207047C16809B1042070470168CC
:1047300009B101207047416809B1022070478168C2
:1047400009B103207047416909B1062070478069AB
:104750000028FBD007207047C4010020104800F15A
:10476000A8020179116010324179116000F1C8018D
:1047700082790A60C279CA601031027A0A60427A8C
:10478000CA601031827A0A60C27ACA6000F1F80207
:10479000017B116002F11001407B0860704700004E
:1047A000AC00002010B5114C002202212046FCF77D
:1047B00016FC002280210E48FCF711FC0022042187
:1047C0002046FCF70CFC002221152046FCF707FCD4
:1047D000002201212046FCF702FC0120FEF78CF8A4
:1047E000BDE810400220FEF787B80000000C014031
:1047F00000080140044900208860886148604861E1
:104800000249486670470000C401002000000020F3
:10481000F0B55C1D91B0E5B25A248DF80040A52496
:104820008DF801408DF802100DEB03068DF8033072
:10483000194431716C4600210BE004EB010C575C0C
:104840008CF8047012F801C03779491C674437713D
:10485000C9B29942F1D3C8232A462146FDF7DAFDB1
:1048600011B0F0BD2DE9F05F414E424DA6F1680454
:104870003179A86A04F1780704F188092154401CB1
:10488000317A2154401C317B2154401C3979215408
:10489000401C397A2154401C397B2154401C99F822
:1048A00004102154401C99F80810215404F1980B6D
:1048B000401C9BF804102154401C9BF80810215404
:1048C00004F1A80A401C9AF804102154401C9AF8DC
:1048D00008102154401CA862FFF720FFA96ADFF8E6
:1048E00098806054491C95F874006054491CA96272
:1048F00004214046FCF766FBA96A6054491CA96282
:1049000002214046FCF75EFBA96A04F1C808224672
:104910006054491C95F878006054491C95F87C0057
:10492000605405F18000491C00786054491C98F8D7
:1049300004006054491C98F808006054491C98F819
:104940000C006054491CCBB2A96200210B48FFF750
:104950005FFF0020A86270607860C9F80400CBF89F
:104960000400CAF80400C8F80400BDE8F09F000085
:1049700054010020000000200008014084030020B2
:104980000246244810B58168234871B100210160B6
:10499000FFF7C4FE00283BD10A2A38D2DFE802F034
:1049A000312B251F172B100D07170121EFE70121D0
:1049B000BDE810400320FEF7C5B801211E2010E01D
:1049C00001220A21BDE810403C20FBF7DDBE012397
:1049D0003C21BDE810401A466420FEF7D5B80121FD
:1049E0000A20BDE81040FBF753BF0121BDE810408D
:1049F0005A20FBF7A9BE0121BDE810401E20FBF79D
:104A000071BF0121BDE810400220FBF7A0BF0020CC
:104A100010BD000000000020C401002000000000C4
:104A2000000000000102030406070809000000005E
:104A300001020304544A000800000020AC000000FA
:104A4000CC2E0008004B0008AC0000201C07000022
:104A5000DC2E000800000000000000000000000044
:104A60000000000000000000000000000000000046
:104A70000000000000000000000000000000000036
:104A80000000000000000000000000000000000026
:104A90000000000000000000000000000000000016
:104AA0000000000000000000000000000000000006
:104AB00000000000000000000000000000000000F6
:104AC00000000000000000000000000000000000E6
:104AD00000000000000000000000000000000000D6
:104AE00000000000A900B20093003C0024000B006D
:104AF0000100000010000000000000000024F4008D
:04000005080000ED02
:00000001FF
