:020000040800F2
:10000000E0070020010100084B300008F928000833
:10001000493000080108000885360008000000008B
:10002000000000000000000000000000D3300008C5
:1000300085080008000000007D300008213100081C
:100040001B0100081B0100081B0100081B01000820
:100050001B0100081B0100081B0100081B01000810
:100060001B0100081B0100081B0100081B01000800
:100070001B0100081B0100081B0100081B010008F0
:100080001B0100081B0100081B0100081B010008E0
:100090001B0100081B0100081B01000835090008AE
:1000A0001B010008A13100081B0100081B0100080A
:1000B000AD310008B9310008C53100081B01000846
:1000C0001B0100081B0100081B0100081B010008A0
:1000D0001B010008793600081B0100081B010008FD
:1000E0002D0900081B0100081B010008DFF80CD0D7
:1000F00000F0BAFA00480047053A0008E00700207F
:100100000648804706480047FEE7FEE7FEE7FEE7B1
:10011000FEE7FEE7FEE7FEE7FEE7FEE79D310008AB
:10012000ED000008202A04DB203A21FA02F0002129
:10013000704721FA02F3D040C2F1200291400843F7
:1001400019467047D2B201E000F8012B491EFBD2DC
:1001500070470022F6E710B513460A4604461946D2
:10016000FFF7F0FF204610BDF0B480EA0102D40F83
:100170004200B2EB410F02D20246084611464A0045
:1001800042D0C30DDDB2C1F3C752AD1A202D35DA0E
:10019000C1F3160141F4000204B15242C5F1200638
:1001A00002FA06F12A411044B3EBD05F23D0C4B168
:1001B000012DA0EBC35009DCF0BC4FF0004202EA75
:1001C000C352DBB200F5000000F0C2B9400000F1FC
:1001D000807000EBC350A0F1807040EAD1704900FC
:1001E00009E0490841EAC071A0EBC35000F50000E6
:1001F000400800EBC350F0BC00F0A1B961420122FD
:1002000002EB4101001BF6E7F0BC704781F00041B2
:10021000AAE780F00040A7E72DE9FE4F804681EA7B
:100220000300C00F0C46009021F0004123F0004570
:10023000B8EB0200A94105D24046214690461C4633
:100240000B46024623F00040104347D0270DC7F36A
:100250000A00C3F30A510290401A019040286BDA59
:10026000C3F3130040F4801B0098924620B1002392
:10027000D2EB030A63EB0B0B01985946C0F1400225
:10028000504600F03BF906460D4650465946019A45
:1002900000F043F910EB08006141002487EA115295
:1002A00084EAE7731A4340D0009A62B3019A012AA4
:1002B0004FEA075215DC001B61EB02014FF00042D0
:1002C00002EA0752CDE90042001C41F58011324696
:1002D0002B4600F07AF903B0BDE8F08F4046214686
:1002E000F9E7001B61EB0201001C41F580130018C7
:1002F0005B412018A2F5001747EB030140EAD570D7
:10030000B6196D4111E06D084FEA360645EAC07531
:100310004FEA0752001B61EB0201001C41F58011FE
:1003200049084FEA30000019514132462B4603B0CC
:10033000BDE8F04F00F03AB90098012240000023D8
:10034000D0EB020263EBE073009821464FEAE074C1
:10035000B8EB000061EB0401E9E783F000435BE7E1
:1003600081F0004158E72DE9FE4F81EA030404F0D3
:10037000004421F0004100944FF0000B23F00043B3
:1003800050EA01045ED052EA03045BD0C3F30A547E
:10039000C1F30A552C44A4F2F3340194A0FB025497
:1003A000C1F3130141F48011C3F3130343F4801329
:1003B00001FB024400FB034E840A970A44EA81547D
:1003C00047EA8357A4FB076802958D0A05FB07855A
:1003D0004FEA932C04FB0C542705029D4FEA065864
:1003E00047EA1637B5EB08056EEB070C870E920E41
:1003F00047EA811742EA8312A7FB0201B6EB0B0121
:1004000064EB00042B0D43EA0C335E1844EB1C50E4
:10041000DA465146E7FB0201C5F313044FEA0B33FA
:1004200043EA14534FEA0432019C43EA0603A4F161
:100430000C040294009CCDE900B400F0C6F803B0AF
:10044000BDE8F08F00200146F9E7C10F80EAE070B7
:100450000844CA079623002100F07AB896230022A8
:10046000114600F075B80EB5C10F80EAE07008447F
:10047000CA07002140F233438DE80E000A460B46BE
:1004800000F0A3F803B000BD00F0004230F00040DF
:100490000AD0C10D01F56071C0F3160042EA0151A6
:1004A000C20840071143704700200146704701F021
:1004B000004330B421F0004150EA010206D00A0D99
:1004C000A2F56072C1F31301002A02DC30BC0020E7
:1004D0007047440F44EAC104C100E01830BC00EB8F
:1004E000C25000F02CB80000002801DBC0F1004031
:1004F000002901DBC1F1004188427047202A04DB5A
:10050000203A00FA02F1002070479140C2F1200326
:1005100020FA03F3194390407047202A06DBCB17DB
:10052000203A41FA02F043EAE07306E041FA02F3AE
:10053000D040C2F12002914008431946704700297B
:10054000A8BF7047401C490008BF20F00100704759
:1005500010B4B0FA80FC00FA0CF050EA010404BFB9
:1005600010BC704749B1CCF1200421FA04F411FA0F
:100570000CF118BF012121430843A3EB0C01CB1D53
:100580004FEA00614FEA102042BF002010BC7047C4
:1005900000EBC35010440029A4BF10BC7047401C9E
:1005A000490008BF20F0010010BC704710B5141EB0
:1005B00073F1000408DA401C41F1000192185B411C
:1005C0001A4301D120F0010010BD2DE9F04D9246F3
:1005D0009B4611B1B1FA81F202E0B0FA80F220320A
:1005E0009046FFF78BFF04460F4640EA0A0041EAB7
:1005F0000B0153465A46084313D0114653EA0100F3
:1006000019D0C8F140025046FFF78CFD05460E4652
:10061000504659464246FFF771FF084305D0012076
:1006200004E020463946BDE8F08D0020054346EA47
:10063000E0762C4337430A986305E40AA0EB0800F0
:100640000022FD0A44EA47540A3002D50020014640
:10065000E9E7010510196941DDE90845001969411B
:10066000BDE8F04DA2E70000064C074D06E0E0684B
:1006700040F0010394E8070098471034AC42F6D3E9
:10068000FFF738FDD8540008F854000870B5044648
:1006900000688168C943C9071CD1816821F0010144
:1006A000816000F0A1FC05460FE000BF00F09CFC5B
:1006B000401B022809D9A06A40F01000A062E06A3D
:1006C00040F00100E062012070BD20688068C043F6
:1006D000C007EBD0002070BDF8B500260446009698
:1006E00000688168C943C90728D0816841F00101C9
:1006F0008160134813490068B0FBF1F000E0401E30
:1007000000900028FBD100F06FFC054611E000BF0F
:1007100000F06AFC401B02280BD9A06A40F01000D0
:10072000A062E06A40F00100E06284F824600120E9
:10073000F8BD20688068C043C007E9D10020F8BD3B
:10074000B000002040420F0002460F4810B50B4693
:10075000816809B1C06818B104F08AFD002010BD9D
:10076000184600F019F99042184604DA02F0BCFC71
:1007700002F07CFCF2E702F097FC00F07BF804F05A
:1007800077FD012010BD0000000000202DE9F041A0
:10079000194C07461646A0680D4608B1E06820B11E
:1007A00004F066FD0020BDE8F08103F095F83046C6
:1007B00002F09AFC00F056F802F06CFE02F05AFECD
:1007C0003846FFF742FE0146206CFFF78DFE3046AB
:1007D00009D802F069FC02F03DFE02F02BFE04F0A5
:1007E00047FD0120DFE700F0D7F8A842DADB034934
:1007F00001208861D6E7000000000020E001002011
:10080000FEE7000010B50F4800F050F9FFF726FE94
:100810000D4C216BFFF7A8FC2063E16A491CE162E3
:1008200064290EDBFFF730FE084A094BFFF79BFDFA
:10083000FFF73DFE606302F069FF20640020E06284
:10084000206310BDFC010020000000207B14AE4797
:10085000E17A843F00228021014800F0C0BB000003
:100860000008014000220221014800F0B8BB00004E
:10087000000C014000220121014800F0B0BB000043
:10088000000C01407047000070B5044610480D464A
:10089000816809B1C06818B104F0EAFC002070BD9D
:1008A00003F01AF8284602F01FFC02F0F3FDFFF7F0
:1008B000D9FF284600F070F8A042EFDB284602F08E
:1008C000F3FB02F0C7FD04F0D3FC012070BD000073
:1008D0000000002070B5134C02460D46A06890B190
:1008E000E06880B9084602F0FFFB284600F054F8A3
:1008F000904202DA02F0C6FD07E002F0EDFF30B1EF
:1009000009490120886004F0B3FC002070BD02F0AA
:1009100099FD04F0ADFC00206060284602F0C4FBA5
:10092000012070BD00000020E00100204FF4805045
:1009300000F04CBA10B5202000F048FABDE8104095
:10094000402000F043BA72B6FEE710B503460C46ED
:10095000084600F019F8C2B2B2EB430F20460ADA9B
:1009600002F0C2FBD00702D002F07CFD01E002F0F1
:1009700059FD002010BD02F097FB02F053FD04F07A
:1009800077FC012010BD0000024901EBC00050F8C7
:10099000080C704748010020044901EBC00050F8E2
:1009A000080C00EBD0704010704700004801002098
:1009B000F8B50024009490F824202546012A12D08E
:1009C000012280F824204A681F23072A0DD20668D6
:1009D000776B521E02EB820293409F430B68934059
:1009E0001F43776319E00220F8BD06680D2A0AD27A
:1009F000376BD21F02EB820293409F430B689340F8
:100A00001F43376309E0F76A0D3A02EB8202934015
:100A10009F430B6893401F43F7620A6807230668E9
:100A20000A2A0AD3F7680A3A02EB420293409F432C
:100A30008B6893401F43F76008E0376902EB42027E
:100A400093409F438B6893401F4337610A68102A85
:100A500001D0112A20D1124B02689A4217D1936813
:100A60001B0219D4936843F40003936009681029AA
:100A700012D10C490C4A0968B1FBF2F101EB81017A
:100A8000490000E0491E00910029FBD104E0816A81
:100A900041F020018162012480F824502046F8BDF5
:100AA00000240140B000002040420F000068C06CEC
:100AB000704700002DE9F0414FF0000704003D466B
:100AC0007ED0A06A002628B9E66284F82460204619
:100AD00000F07EF82046FFF7D9FDA16AC90600D4D0
:100AE00020B1A06A40F01000A06269E0A16A21F480
:100AF000885141F00201A1626268E169237B0A43E7
:100B000047EA43010A43A1684FF48077B94209D00C
:100B1000012907D05FF0000194F814C0BCF1010F67
:100B200002D00AE03946F7E7F3B1A36A43F02003A5
:100B3000A362E36A43F00103E3622368D3F804C0CD
:100B40002CF4694C4CEA010CC3F804C021688B6892
:100B5000DFF870C003EA0C0313438B60A168B9424D
:100B60000BD0012909D00CE0DFF85CC0A3690CEBC5
:100B700043330B4343F40061DFE7218A0D05A5F5FC
:100B800080152168CB6A23F470032B43CB62216864
:100B900089680E4B1940914208D1E662A16A21F0A2
:100BA000020141F00101A162BDE8F081A06A20F0DC
:100BB000020040F01000A062E06A40F00100E06234
:100BC0000120F1E7FDF7E1FF00E0FFFFFE0E1FFF50
:100BD00000B585B000210091019102910391006858
:100BE0000E49884218D10E48816941F40071816133
:100BF000816901F400710491816941F0040181610E
:100C00008069694600F004000490012000900320F0
:100C10000190044800F0E6F805B000BD0024014052
:100C2000001002400008014070B5044690F824000E
:100C300001280DD0012084F824002046FFF74CFD48
:100C400002004FF0000005D084F82400104670BD6B
:100C5000022070BDA16A40F20123994341F48071E2
:100C6000A1621F4D23681F49AB4218D10E6816F4CC
:100C7000702F14D0A66A46F48016A6620E68760518
:100C800005D5A66A26F4005646F48056A662A66AE2
:100C9000F6040AD5E66A26F00606E66206E0A66ACB
:100CA00026F48016A6625E68E9E7E06284F8240014
:100CB0006FF00200186020688368C3F34243072B7B
:100CC00005D1A84208D1096811F4702F04D08168B9
:100CD00041F480118160B9E7816841F4A001F9E72E
:100CE000002801400424014010B590F82110002490
:100CF000022903D00421816301243DE001680A68D0
:100D000022F00E020A6001680A6822F001020A60FD
:100D10001A4A0168914201D1012121E0174A143297
:100D2000914201D110211BE0144A2832914201D195
:100D3000891515E0114A3C32914201D189140FE026
:100D40000E4A5032914202D14FF4803108E00B4AF2
:100D50006432914202D14FF4801101E04FF0807172
:100D6000064A083A5160012180F82110002180F8DC
:100D70002010416B01B18847204610BD0800024099
:100D800070B5044600F030F90546601C02D00448F6
:100D90000078044400F028F9401BA042FAD370BD4B
:100DA000A40000200022084920280AD0402807D1AA
:100DB000C86D10B1886C401C88640120CA65486504
:100DC00070474A647047000000000020044910B5D5
:100DD0000A68024202D00860FFF7E4FF10BD00007D
:100DE000140401402DE9F84FDFF8B891002409F10F
:100DF000040A0AF1040B23460F270BF1040EC9E085
:100E00000125A5402A40AA427DD1674ED1F804C0F1
:100E1000ACEB0608B44532D014DCBCF1030F3AD079
:100E200009DCBCF1000F2AD0BCF1010F1CD0BCF1D1
:100E3000020F31D11DE0BCF1110F17D0BCF1120F20
:100E40002AD119E0B8F5881F19D006DCB8F5803F23
:100E500015D0B8F5801F1FD111E0B8F5001F0ED0D6
:100E6000B8F5041F18D10AE0CB6815E0CB681B1D4C
:100E700012E0CB6808330FE0CB680C330CE08B68D2
:100E80002BB1012B4FF0080303D0456104E004238C
:100E900002E0056100E00023FF2A01D8064601E0D8
:100EA00000F104064FEA840501D9A5F12005D6F822
:100EB000008007FA05FC28EA0C0803FA05F548EA61
:100EC0000508C6F800804D68ED0062D5374DAE6963
:100ED00046F00106AE61AD6924F0030605F0010598
:100EE0000095334D06EB050CDCF80850A607360FCD
:100EF00007FA06F825EA0805DFF8B880404503D16F
:100F00004FF0000817E044E0DFF8AC80404502D124
:100F10004FF001080FE0DFF8A480404502D14FF008
:100F2000020808E0DFF89880404502D14FF003083E
:100F300001E04FF0040808FA06F848EA0508CCF882
:100F400008804D68D9F80060ED034D4601D5164381
:100F500000E096432E604D68DAF80060AD03554618
:100F600001D5164300E096432E604D68DBF8006023
:100F7000ED025D4601D5164300E096432E604D68B4
:100F8000DEF80060AD02754601D5164300E09643D9
:100F90002E60641C0D682A46E5407FF431AFBDE841
:100FA000F88F000000040140000011100010024002
:100FB0000000014000080140000C01400010014009
:100FC000001401408068084000D001207047C268CA
:100FD00021EA02030A4043EA0241016170470AB173
:100FE000016170470904FBE7014880687047000011
:100FF000A400002070B5040025D094F83D00002521
:1010000020B984F83C50204600F078FA242084F877
:101010003D002068016821F001010160206801683D
:1010200041F4004101602068016821F40041016041
:1010300000F036FC4D4A6168914201D84C4900E00D
:101040004C49884201D2012070BD4B492368B0FB56
:10105000F1F15E6826F03F060E435E6063689342DE
:1010600006D94FF4967359434FF47A73B1FBF3F1F9
:101070002368491C1E6A26F03F06314319626168E5
:10108000914210D84900401EB0FBF1F2521CC2F34D
:101090000B02042A01D2042022E0B0FBF1F0401C34
:1010A000C0F30B001CE0A268F2B301EBC10303EB39
:1010B0000116431EB3FBF6F35B1C43F480431B0590
:1010C00049D092B301EBC10202EB0111401EB0FB0B
:1010D000F1F0401CC0F30B0040F4804040F40040AD
:1010E0002168CA694CF6FF739A431043C861D4E97A
:1010F000071001432068026822F0C002114301601A
:10110000D4E9030101432068826848F2FF339A431F
:1011100011438160D4E9050108432168CA6822F0BF
:10112000FF021043C86001E00EE016E0206801688D
:1011300041F0010101602564202084F83D00256311
:1011400084F83E50002070BD01EB4106431EB3FB06
:10115000F6F35B1CB3E70120C2E701EB4101401E3F
:10116000B0FBF1F0401CC0F30B00B7E7A086010014
:1011700080841E0000093D0040420F002DE9FF4F12
:1011800083B00025DDE910799A4693460446DDF8E0
:1011900048800095FFF728FF064694F83D00202878
:1011A0007CD11923012285492046009601F0B4FC28
:1011B0000028F5D194F83C0001286FD0012084F874
:1011C0003C0020680168C90703D1016841F00101B2
:1011D00001602068016821F400610160222084F828
:1011E0003D00402084F83E0025646762A4F82A9000
:1011F000608D20857248E062CDE9008653465A46EC
:101200002046049901F090FB00287DD1208DDFF865
:10121000B491202768B1012814D002282068016801
:101220001ED041F4806101602068416980690090AE
:10123000B6E02068416981690091016841F400715C
:101240000160ADE02068016821F48061016072B640
:101250002068416981690091016841F400710AE0E8
:1012600041F40061016072B62068416981690091B2
:10127000016821F48061016062B691E0032868D8BA
:1012800001280CD0022843464FF000024946204670
:1012900000960FD001F040FCB0BB10E08BE032466E
:1012A0004146204601F0B7FC70BB20680069616AC6
:1012B00008706CE001F030FC30BB72B634E020689E
:1012C000016821F48061016072B620680069616A7A
:1012D0000870606A401C6062208D401E2085608D11
:1012E000401E6085384846F2A8110068B0FBF1F056
:1012F000C0EBC00000EB80000090401E009008D0C2
:1013000020684069C04300E029E040070CD5009800
:10131000F3E744F8305F6773A573206940F020005D
:10132000206162B625731AE02068016841F40071FB
:10133000016020680069616A0870606A401C606230
:10134000218D491E2185618D491E618562B6216806
:101350001BE032464146204601F05DFC18B10120F9
:1013600007B0BDE8F08F20680069616A0870606AA4
:10137000401C6062218D491E2185618D491E618559
:1013800021684A69D24352070AD409690170606A28
:10139000401C6062208D401E2085608D401E60854F
:1013A000208D00287FF46AAF84F83D7084F83E50A9
:1013B00084F83C50D4E70220D2E70000020010007D
:1013C0000000FFFF04000100B00000202DE9FF4FE6
:1013D00083B09A46DDE9119793460446DDF84080D4
:1013E000FFF702FE054694F83D0020287FD119231F
:1013F000012240492046009501F08EFB002876D15D
:1014000094F83C00012872D0012084F83C00206848
:101410000168C90703D1016841F00101016020683A
:10142000016821F400610160212084F83D00402022
:1014300084F83E0000262664C4F82480A4F82A908C
:10144000608D20852C48E062CDE9007553465A46F0
:101450002046049901F0E6FA70B930E02A46394690
:10146000204601F00BFC58B1206C042804D1206800
:10147000016841F400710160012007B0BDE8F08F00
:10148000606A216800780861606A401C6062218D92
:10149000491E89B22185628D521E62852268536978
:1014A000DB435B070BD469B100781061606A401CB4
:1014B0006062208D401E2085608D401E6085208DDD
:1014C0000028CBD12A463946204601F0FFFA0028F1
:1014D000CAD154F83D0B016841F40071016020202D
:1014E00004F81E09E67766770020C6E7FFE70220CA
:1014F000C3E70000020010000000FFFF10B586B037
:101500000021009101910291039100680F498842E6
:101510001AD10F4CA06940F00800A061A06969468B
:1015200000F008000490C0200090122001900320D9
:1015300003900848FFF756FCE06940F40010E061B2
:10154000E06900F40010049006B010BD00540040A3
:1015500000100240000C01400248816802781144EA
:1015600081607047A4000020074810B5016841F071
:1015700010010160032000F075F8002000F006F86B
:1015800000F024F8002010BD0020024070B50D4D81
:1015900004464FF47A712878B1FBF0F00A490968E3
:1015A000B1FBF0F000F062FB48B9102C07D200222A
:1015B0002146501E00F036F800206C6070BD0120FE
:1015C00070BD0000A4000020B00000200C4808B549
:1015D000816941F001018161816901F0010100919E
:1015E000C16941F08051C161C06900F08050009034
:1015F0000448416821F0E06141F00071416008BD9C
:101600000010024000000140002809DB00F01F022A
:10161000012191404009800000F1E020C0F8001154
:1016200070470000F0B40E4B1B680C46C3F3022356
:10163000C3F10705042D00D90425191D072901D27E
:10164000002300E0DB1E012606FA05F1491E2140B9
:1016500099409E40761E16403143F0BC02F036B8E9
:101660000CED00E0064900F0070208684FF6FF03A2
:10167000184040EA0220034A104308607047000007
:101680000CED00E00000FA052DE9F843054600786E
:10169000354CC00754D0E0690026C00008D4E0698A
:1016A00040F08050E061E069012600F08050009039
:1016B0002E480168C90512D40168804641F4807142
:1016C0000160FFF791FC074605E000BFFFF78CFCC7
:1016D000C01B642823D8D8F80000C005F6D5206ABE
:1016E00010F4407021D0A98801F4407181421CD0CF
:1016F000206A1F49012220F440700A6000220A601B
:101700002062C00711D0FFF76FFC074641F288380E
:1017100008E000BFFFF768FCC11B414502D9032068
:10172000BDE8F883206A8007F4D5206A696820F450
:101730004070084320621EB1E06920F08050E061F3
:101740002878800705D56068A96820F440400843E0
:1017500060602878C00605D56068E96820F48000DC
:10176000084360600020DBE700100240007000408A
:10177000400442422DE9F0470F46050061D0434E38
:10178000306800F00700B84209D2306820F0070046
:1017900038433060306800F00700B84251D1286803
:1017A0003B4C810712D5400703D5606840F4E060E8
:1017B00060602878000703D5606840F4605060607E
:1017C0006068A96820F0F000084360602878C007CE
:1017D00028D06868012810D02168022810D0890715
:1017E00000292EDA616821F0030101436160FFF7EF
:1017F000FBFB804641F288390DE021688903EFE761
:101800008901EDE7FFF7F0FBA0EB0801494502D99C
:101810000320BDE8F0876068696800F00C00B0EB59
:10182000810FEFD1306800F00700B8420BD9306863
:1018300020F0070038433060306800F00700B842FD
:1018400001D00120E5E72878400705D56068E96800
:1018500020F4E060084360602878000706D56068DF
:10186000296920F4605040EAC100606000F038F857
:101870006168084AC1F30311515CC8400649086019
:1018800006480068FFF782FE0020C2E70020024001
:1018900000100240C0540008B0000020A800002042
:1018A0000448054900684968044AC1F30221515CB3
:1018B000C8407047B000002000100240D05400081B
:1018C0000448054900684968044AC1F3C221515CD3
:1018D000C8407047B000002000100240D0540008FB
:1018E00012A185B00FC98DE80F0014A0144A00683A
:1018F00004905168134801F00C03042B10D0082BFE
:101900000ED1C1F38343C9031DF803000AD5516802
:1019100004AAC1F34041515C0A4A5043B0FBF1F0C4
:1019200005B0704708494843FAE700000203040580
:10193000060708090A0B0C0D0E0F1010010200001B
:101940000010024000127A0000093D002DE9F84F16
:10195000040070D02078C04DC00749D06868C0F33B
:101960008100012807D06868C0F38100022809D1EE
:101970006868C00306D52868800339D560680028E8
:10198000E7D035E06068B0F5803F0BD010B1B0F51E
:10199000A02F11D0286820F480302860286820F417
:1019A000802002E0286840F480302860606890B1B0
:1019B000FFF71AFB06460AE0286840F480202860FA
:1019C000F0E700BFFFF710FB801B642873D828687E
:1019D0008003F7D50CE0FFF707FB064605E000BFE4
:1019E000FFF702FB801B6428F0D828688003F7D437
:1019F00020789A4E80074FF001094FF0000839D542
:101A0000686810F00C0F07D06868C0F381000228E6
:101A100009D16868C00306D42868800714D52069F6
:101A2000012808D110E02069B0B1C6F80090FFF796
:101A3000DBFA074605E00AE1FFF7D6FAC01B0228E9
:101A4000C4D828688007F7D52868616920F0F800B5
:101A500040EAC10028600DE0C6F80080FFF7C4FA34
:101A6000074604E0FFF7C0FAC01B022823D8286805
:101A70008007F7D4207800072CD57948A169D9B11F
:101A8000C0F80090FFF7B0FA074604E0FFF7ACFAA1
:101A9000C01B02280FD8686A8007F7D571484FF439
:101AA000FA510068B0FBF1F0009000BF0098411EB1
:101AB0000091FAD20EE080E0C0F80080FFF794FABF
:101AC000074604E0FFF790FAC01B022875D8686A41
:101AD0008007F7D42078400760D5E8690027C00068
:101AE00008D4E86940F08050E861E869012700F017
:101AF000805000905C480168C90513D40168834692
:101B000041F480710160FFF76FFA824606E000BF82
:101B1000FFF76AFAA0EB0A0064284ED8DBF8000051
:101B2000C005F5D5E06801280AD008B1052813D012
:101B3000286A20F001002862286A20F0040002E0F0
:101B4000286A40F001002862E06841F2883B98B1C1
:101B5000FFF74AFA82460BE0286A40F00400286248
:101B6000EEE700BFFFF740FAA0EB0A0159455AD84B
:101B7000286A8007F6D50CE0FFF736FA824605E0C2
:101B8000FFF732FAA0EB0A0159454CD8286A8007C2
:101B9000F6D41FB1E86920F08050E861E06988B3AD
:101BA0006968C1F38101022944D00228C6F8608027
:101BB00004D0FFF719FA044638E034E0FFF714FACE
:101BC000074604E0FFF710FAC01B02282BD828684C
:101BD0008001F7D4206AB0F5803F05D16868A1681C
:101BE00020F4003008436860D4E9080108436968BC
:101BF00021F4741108436860C6F86090FFF7F4F9A7
:101C0000044606E025E000BFFFF7EEF9001B0228BE
:101C100009D828688001F7D51BE000BFFFF7E4F979
:101C2000001B022802D90320BDE8F88F2868800134
:101C3000F4D40EE00128F7D06868226A00F48031FD
:101C4000914204D1616A00F47010884201D00120F1
:101C5000EAE70020E8E700000010024000004242EE
:101C600080044242B00000200070004010B5401EC9
:101C7000B0F1807F01D3012010BD4FF0E0246061FE
:101C80000F21601701F022FD0020A06107202061D4
:101C9000002010BD7047704770B590F83C20012AB5
:101CA00026D0012480F83C40022280F83D200368C1
:101CB0005A689D6822F070060A6832435A600D4BDC
:101CC00002689A4208D0B2F1804F05D00A4B9A427E
:101CD00002D00A4B9A4204D1496825F08003194387
:101CE000916080F83D40002180F83C10084670BDAE
:101CF000022070BD002C014000040040000800409C
:101D000010B5040003D094F83D0010B107E00120A5
:101D100010BD002084F83C00204600F01FF802208F
:101D200084F83D00211D206801F052FA012084F85A
:101D3000460084F83E0084F83F0084F8400084F8B0
:101D4000410084F8420084F8430084F8440084F899
:101D5000450084F83D00002010BD000008B51E4A73
:101D600001681E4891420ED1816941F40061816190
:101D70008069002200F40060009011461920FFF7EE
:101D800051FC192022E0164A91420ED1C16941F05E
:101D90000201C161C069002200F0020000901146FA
:101DA0001D20FFF73FFC1D2010E00E4A914211D18B
:101DB000C16941F00401C161C069002200F0040062
:101DC000009011461E20FFF72DFC1E20BDE80840A4
:101DD000FFF71ABC08BD0000002C014000100240B3
:101DE000000400400008004090F83D10012901D097
:101DF00001207047022180F83D100168CA6842F056
:101E00000102CA6000680B49884208D0B0F1804FD7
:101E100005D00949884202D00849884204D1816826
:101E200001F00701062903D0016841F001010160BA
:101E300000207047002C01400004004000080040D2
:101E400070B5044690F83C00012817D0012584F8AD
:101E50003C50022084F83D002068826822F077021E
:101E600022F47F4282600868502830D00DDC2028A0
:101E70004DD005DC98B310283BD148E0022070BD5E
:101E8000302844D0402834D139E0602828D0702848
:101E900006D0B0F5805F2CD0B0F5005F29D10AE004
:101EA000CB68D1E90121206801F0D5F9206881686B
:101EB00041F0770109E0CB68D1E90121206801F008
:101EC000CAF92068816841F48041816011E0CA68E4
:101ED0004968206801F0D1F95021206807E016E038
:101EE000CA684968206801F005FA6021206801F09D
:101EF000BCF984F83D50002084F83C0070BDCA68ED
:101F00004968206801F0B9F940212068EFE72268AC
:101F100001461046EBE700000349884203D103481D
:101F20004168491C41607047C80200200000002041
:101F30002DE9F041054690F83C000C46012836D0CA
:101F4000012085F83C008AB3042A42D02868082A78
:101F500051D0D4E90023E168066A26F4805606626F
:101F6000C669076A26F4407646EA03234FF6FF76F1
:101F700006EA013123F4704319434FF4005627F465
:101F8000005306EA02321A43C16102622868C1693D
:101F900021F44061C1612868C169A26841EA022157
:101FA000C161002085F83C00BDE8F08101E002201D
:101FB000FAE7D4E90012E368286801F06FF92868AD
:101FC000816921F00C01816128688169A26811434F
:101FD0000FE0D4E90012E368286801F09DF9286851
:101FE000816921F44061816128688169A26841EAC0
:101FF00002218161D5E7D4E90027267B016A21F41B
:1020000080710162C169036A21F00301394321F043
:10201000F00731074FF4007647EA116123F40073AB
:1020200006EA02221A43C16102622868C16921F0EE
:102030000C01C1612868C169A2681143B0E710B5FD
:10204000040003D094F83D0010B107E0012010BD5A
:10205000002084F83C00204600F01EF8022084F89E
:102060003D00211D206801F0B3F8012084F84600EE
:1020700084F83E0084F83F0084F8400084F8410072
:1020800084F8420084F8430084F8440084F8450052
:1020900084F83D00002010BD00B585B000210091FE
:1020A0000191029103910068B0F1804F1ED1104858
:1020B000C16941F00101C161C16901F001010491EF
:1020C000816941F0040181618069694600F0040082
:1020D0000490082000900748FEF784FE0022114675
:1020E0001C20FFF79FFA1C20FFF78EFA05B000BDF9
:1020F000001002400008014010B5044651B1042907
:102100000DD0082910D094F8410094F845200128FA
:1021100011D10EE094F83E0094F84220F7E794F8CD
:102120003F0094F84320F2E794F8400094F84420EC
:10213000EDE7012A01D0012010BD022051B1042990
:1021400011D0082918D084F8410084F845000C29E2
:102150001BD136E084F83E0084F842002068C26853
:1021600042F0020210E084F83F0084F84300206847
:10217000C26842F0040207E084F8400084F844009A
:102180002068C26842F00802C2600122206801F0A3
:1021900055F80E492068884208D0B0F1804F05D02C
:1021A0000B49884202D00B49884204D1816801F072
:1021B0000701062903D0016841F0010101600020F8
:1021C00010BD2068C26842F01002DDE7002C01401B
:1021D000000400400008004070B504460068016932
:1021E0004FF00005C943890715D4C168C943890761
:1021F00011D4E91E016101202077206880698007E1
:10220000204602D0FFF788FE04E000F098F8204650
:1022100000F096F8257720680169C943490717D46B
:10222000C168C943490713D46FF00401016102205A
:1022300020772068806910F4407F204602D0FFF7A5
:102240006BFE04E000F07BF8204600F079F825777B
:1022500020680169C943090716D4C168C943090741
:1022600012D46FF008010161042020772068C06952
:102270008007204602D0FFF74FFE04E000F05FF831
:10228000204600F05DF8257720680169C943C9063A
:1022900017D4C168C943C90613D46FF01001016196
:1022A000082020772068C06910F4407F204602D0C3
:1022B000FFF732FE04E000F042F8204600F040F85C
:1022C000257720680169C943C90708D1C168C94396
:1022D000C90704D1891E0161204600F033F8206847
:1022E0000169C943090609D4C168C943090605D46F
:1022F0006FF0800101612046FFF7CCFC2068016986
:10230000C943490609D4C168C943490605D46FF0D9
:1023100040010161204600F0D7F820680169C943F7
:1023200089060BD4C168C943890607D46FF0200120
:1023300001612046BDE87040FFF7ADBC70BD70473D
:10234000704700002DE9FE4F074658485A4CDFF809
:1023500060A1DFF86091002604F1800587423BD13F
:1023600002F0D2FF4FF400515046FEF730FE00203D
:102370004FEA090101EBC0035A68012A05D0B2F106
:10238000FF3F08D0FF2A06D006E051F83020521C4B
:1023900041F8302000E05E60401C0528EADB206F39
:1023A000022801DA401C20674868012810D0C8685C
:1023B00001280DD05FF00000C9F81400D5E9010133
:1023C00008B1491CA9600A2906DB012802D003E0F4
:1023D0000120F1E76E60AE6038484FF00108874297
:1023E00021D1606D10B1A06D401CA065C4F85C8067
:1023F000A16D404614290BDBA16C082901DD0121E8
:1024000000E00021E16001B10121C4E91516A664D4
:10241000616C1A2901DA491C6164142901DAA0608F
:1024200000E0A660A063264887423DD128694FF4AA
:102430008051401C28615046FEF7C4FD696908447C
:102440006861296928292FDBC5E903066E61232805
:102450002ADB184938318868012825D1A1F1CC0040
:10246000102380F80080097B417000F1EC01097AAB
:10247000817094F83C10C170B9F810200271120AF2
:10248000427199F800108171C171A1880172090A25
:1024900041720A22CDE900024FF0FF310291082279
:1024A000A0210848FEF792FFBDE8FE8F80020020C1
:1024B000000C014048010020000000201003002013
:1024C000580300202C0200207047704770B5026846
:1024D00004461068D168536910F00F0F52D003F012
:1024E000010501F490762E435FD0C20705D0CA05DE
:1024F00003D5E26B42F00102E263420705D5DA0739
:1025000003D0E26B42F00202E263820705D5DA07EC
:1025100003D0E26B42F00402E263020707D501F048
:1025200020022A4303D0E26B42F00802E263E26B2E
:10253000002A33D0800604D5880602D5204600F054
:10254000C7FF20684069E16BC0F38010090700D421
:1025500028B3204600F0AEFF2068416949061AD52D
:10256000416921F040014161606BA0B12D49416397
:10257000606BFEF7B9FB002810D0606B416BBDE8C3
:1025800070400847830610D58B060ED52046BDE85F
:10259000704000F09DBF2046FFF797FF70BD2046BA
:1025A000FFF793FF0020E06370BD03062BD50B06F9
:1025B00029D594F839002128F6D1A068B0F5805FBC
:1025C00001D12069B0B1206A411C216221680078E4
:1025D0004860E08C401E0004000CE084E4D12068D8
:1025E000C16821F08001C1602068C16841F04001EC
:1025F000C16070BD206A0088C0F308005060206A86
:10260000801C2062E5E74006F3D54806F1D5D16885
:10261000204621F04001D160202184F8391000F0DB
:102620006AF970BDA534000870B5040004D094F8B0
:102630003900002510B106E0012070BD84F8385043
:10264000204600F023F8242084F839002068C1686F
:1026500021F40051C160204600F080FF206801692C
:1026600021F4904101612068416921F02A01416112
:102670002068C16841F40051C160E563202084F8FE
:10268000390084F83A00002070BD000030B585B0F4
:10269000002400940194029403940068184988422D
:1026A0002CD11848816941F480418161816901F42C
:1026B00080410491816941F0040181618069124D7A
:1026C00000F0040004904FF400700090022001908C
:1026D0000320039069462846FEF784FB2815CDE9C0
:1026E0000004694628460294FEF77CFB002211464E
:1026F0002520FEF797FF2520FEF786FF05B030BDA9
:1027000000380140001002400008014090F83A30C3
:10271000202B22D1F9B1F2B190F83830012B1CD026
:1027200081628285C2850021C163222280F83A201D
:1027300080F838100168CA6842F48072CA60016883
:102740004A6942F001024A610068C16841F0200113
:10275000C1600020704701207047022070470000D0
:10276000F0B43549884264D13448354B022542697A
:102770000178995401461E780C690021521C5A2E8A
:1027800001D06CB100E034B1012C0BD0022C14D07C
:10279000032C22D022E04261012A1FDD012216E033
:1027A00041611BE05C78A52C02D04161016115E01C
:1027B0004261022A12DD056110E0DC78641D84614B
:1027C000641E1F2C05D24261032A07DD0322026129
:1027D00004E041610161816107E04261D0E90524C3
:1027E000A24202D10269032A05D0F0BC012213499A
:1027F0001148FFF78BBFC0E907150A46661E02E0C5
:102800005F5D6D1C3A44B542FADBC0E907251D192E
:1028100015F8015C954203D1426A521C4262D8E726
:102820000A46016201E09954521CA242FBDB02629B
:10283000CFE7F0BC70470000A0030020000000209C
:10284000C80000202DE9F843044690F839001F46DF
:1028500016460D4620284CD1C5B1BEB194F83800BB
:10286000012846D0012084F838004FF00008C4F851
:102870003C80212084F83900FEF7B6FBA68481460F
:10288000E684A068B0F5805F03D004E00120BDE8D5
:10289000F883206928B12E465FF0000584F838805F
:1028A0000EE00026FAE78021204600F0B3FEA0B932
:1028B000AEB116F8010B21684860E08C401EE08440
:1028C000E08C4B464FF0000200970028EBD14FF010
:1028D0004001204600F09EFE30B10320D7E735F8D6
:1028E000020BC0F30800E6E7202084F8390000203E
:1028F000CDE70220CBE77047FEE701684A69D24383
:1029000052050FD46FF480624A61002140F8301FF5
:10291000202242738173026942F004020261017352
:1029200001207047002070472DE9F84F04460068E9
:1029300089460B9D01689846174641F48061016005
:102940002068016841F48071016000954FF0011B1F
:102950000022594620460A9B00F0DEF84FF4007A28
:1029600040B120680068C00501D5C4F840A003202C
:10297000BDE8F88F216809F0FE0008612B46284960
:1029800020460A9A00F0FCF8F0BB20684169806993
:1029900000902A4620460A9900F070F940B1206C58
:1029A00004283AD12068016841F40071016034E0E4
:1029B000FEB2B8F1010F09D02168380A08612A4631
:1029C00020460A9900F05AF90028E8D120680661EB
:1029D0002A4620460A9900F051F90028DFD12068E4
:1029E000016841F48071016000950022594620463B
:1029F0000A9B00F091F80028B3D1216809F0FF008C
:102A000040F00100086100E007E02B460449204641
:102A10000A9A00F0B5F80028AAD00120A8E7000023
:102A2000020001002DE9F843044600680D46DDE987
:102A3000089701689846164641F4807101604B463C
:102A400000224FF001112046009700F065F848B1D0
:102A500020680068C00502D54FF400702064032090
:102A6000BDE8F883216805F0FE0008613B464A4650
:102A70001549204600F084F888B9206841698069CA
:102A800000903A464946204600F0F8F848B1206CDC
:102A9000042804D12068016841F40071016001201C
:102AA000DEE7F5B2B8F1010F09D02168300A0861FC
:102AB0003A464946204600F0E1F80028E7D1206870
:102AC00005610020CCE700000200010070B5164649
:102AD0000D4604460DE02046FFF70FFF08B1012028
:102AE00070BD681C05D0FEF77FFA801BA84207D88E
:102AF00035B120684069C0434007ECD4002070BD68
:102B0000002044F8300F20216173A073216941F047
:102B1000200121612073E2E72DE9F0471E4690462F
:102B20000D460446C1F30747DDF8209008E0701C0D
:102B300006D0FEF759FAA0EB0900B0420FD876B1E3
:102B40002068012F18D0806925EA00000004000CDD
:102B500014D000214145EAD00020BDE8F0870020D4
:102B600044F8300F20216173A073216941F02001E6
:102B7000216120730120F0E74069E5E70121E9E7E1
:102B80002DE9F0479A4691460E46044600254FF03F
:102B90002008C1F3074725E020684069C04340058D
:102BA00014D42068016841F40071016021686FF459
:102BB00080604861256384F83D8084F83E50206C35
:102BC00040F00400206484F83C501FE0B9F1FF3F5E
:102BD00008D0FEF709FAA0EB0A0149450CD8B9F173
:102BE000000F09D02068012F13D0806926EA000069
:102BF0000004000C0BD0CFE744F8305F84F80D8060
:102C0000A573206940F02000206125730120BDE8F4
:102C1000F0874069EAE72DE9F041002590460E462D
:102C20000446202717E04069C043C0060CD454F87E
:102C3000301B6FF01000486144F810596777A57792
:102C4000206A2062257717E0FEF7CEF9A0EB080096
:102C5000B04208D83EB120684169C9434906E2D470
:102C60000020BDE8F08144F8305F6773A5732069E8
:102C700040F02000206125730120F2E770B5164670
:102C80000D4604460DE02046FFF737FE08B101204F
:102C900070BD681C05D0FEF7A7F9801BA84207D8B5
:102CA00035B120684069C0430006ECD4002070BDF7
:102CB000002044F8300F20216173A073216941F096
:102CC000200121612073E2E73EB500241048009402
:102CD000019402940D498460016001250573047517
:102CE00005614FF460214460C161FDF7E3FE08B166
:102CF000FDF729FECDE90045694605480294FDF738
:102D000057FE002801D0FDF71EFE3EBD0024014005
:102D1000FC0100202DE9F04786B000243E480094D5
:102D2000019402940394816941F0200181618169D9
:102D300001F020010491816941F004018161816900
:102D400001F004010491816941F008018161806909
:102D5000DFF8C89000F00800049000228021484667
:102D6000FEF73DF9DFF8B8A046F6074800224146D5
:102D70005046FEF734F90620CDE90004694648467E
:102D80000294FEF72FF8102001258DE831006946E6
:102D90004846FEF727F8234E2020CDE90006694675
:102DA00002944846FEF71EF8402000901E48CDE9E8
:102DB000010569464846FEF715F880200227CDE94F
:102DC0000005CDE9024769464846FEF70BF8CDF805
:102DD00000800397CDE9015469465046FEF702F89A
:102DE0002803CDE90006694602955046FDF7FAFF33
:102DF000002211461720FEF715FC1720FEF704FCF1
:102E0000002211462820FEF70DFC2820FEF7FCFBCF
:102E100006B0BDE8F0870000001002400008014045
:102E2000000C014000001110000021100D4810B5E9
:102E30000B4901600C49416000214FF480428160E0
:102E4000C0E9031241618161C1610162FEF7D2F8FC
:102E5000002803D0BDE81040FDF775BD10BD00008F
:102E6000005400402C020020A086010010B586B05E
:102E70000024184800940194029403940494144983
:102E8000059401604FF4E151C0E9011441F2883129
:102E9000C0E9031444618461FEF732FF08B1FDF715
:102EA00052FD4FF48050009069460A48FEF7C8FF73
:102EB00008B1FDF748FD049404A906480594FEF7FF
:102EC000EBFE002801D0FDF73EFD06B010BD00006E
:102ED000002C01408002002010B586B00024174865
:102EE000059404940094019402944FF0804103945B
:102EF000C0E900144FF6FF71C0E90241046184612A
:102F0000FFF79DF808B1FDF71EFD049404A90B48D6
:102F10000594FEF7C1FE08B1FDF715FD0120CDE9CE
:102F2000004002940C22694604480394FFF700F81D
:102F3000002801D0FDF707FD06B010BDC802002033
:102F400010B586B0002417480094019402940394AD
:102F500004941349059401604FF4E151C0E9011450
:102F60006421C0E903148461FEF7CAFE08B1FDF7CD
:102F7000EAFC4FF48050009069460A48FEF760FF73
:102F800008B1FDF7E0FC049404A906480594FEF797
:102F900083FE002801D0FDF7D6FC06B010BD00006E
:102FA000000400401003002010B586B0002417482C
:102FB00000940194029403940494134905940160CD
:102FC0004FF43471C0E901146421C0E90314846131
:102FD000FEF796FE08B1FDF7B6FC4FF48050009066
:102FE00069460A48FEF72CFF08B1FDF7ACFC0494D3
:102FF00004A906480594FEF74FFE002801D0FDF70E
:10300000A2FC06B010BD00000008004058030020DC
:103010000C4810B50A4901604FF416414160002187
:1030200081600C22C160C0E904128161C161FFF7B7
:10303000FBFA002803D0BDE81040FDF784BC10BDAA
:1030400000380140A0030020FEE7FEE701228021B6
:103050000148FDF7C4BF0000000801400122022121
:103060000148FDF7BCBF0000000C014001221146E1
:103070000148FDF7B4BF0000000C0140704707286D
:1030800011D2DFE800F0100406080A0C0E0000F070
:1030900087BD01F089B801F0A7BA01F0E9BC01F0E1
:1030A000C3BE02F00BB8704704494FF0FF3201EB8A
:1030B000C000002140E902127047000048010020D2
:1030C00000B50120FFF7F0FF02205DF804EBFFF7E9
:1030D000EBBF7047034A490002EBC00040F8081CF0
:1030E0007047000048010020054901EBC00050F87E
:1030F000041C002902D1012140F8041C7047000083
:1031000048010020054901EBC00050F8041C0129CA
:1031100002D1002140F8041C704700004801002043
:10312000FEF71ABA30B593B028216846FDF711F8BA
:1031300014210AA8FDF70DF8002501200F95109520
:103140001195010412958DE8230004904FF4E010CE
:10315000CDE90810022407946846FEF7F7FB08B192
:1031600072B6FEE70AA90F2081E831004FF48060B3
:10317000CDE90D0502210AA8FEF7FCFA08B172B6E6
:10318000FEE74FF4004011900F940FA8FEF77CFA71
:10319000002801D072B6FEE713B030BD70470000C2
:1031A0000148FFF719B80000800200200148FFF72E
:1031B00013B80000C80200200148FFF70DB8000056
:1031C000100300200148FFF707B800005803002053
:1031D000F0B50268164B174C174D4FF080479842D8
:1031E00005D0B84203D0A04201D0A84203D122F0BA
:1031F00070064A683243984205D0B84203D0A042D4
:1032000001D0A84203D122F44074CA6822434C6919
:1032100022F08002224302608A68C2620A688262E7
:10322000984201D10969016301214161F0BD0000AB
:10323000002C0140000400400008004010B501F0DF
:103240001F030121046A99408C430462016A9A4079
:103250001143016210BD10B5846842EA032224F4D0
:103260007F440A432243826010BD826822F07002CC
:103270000A4342F007018160704710B5036A046A8F
:1032800024F001040462846924F0F00444EA021486
:1032900023F00A020A438461026210BD70B5046A19
:1032A00024F0010404628469056A0F4EB04208D01C
:1032B000B0F1804F05D00D4EB04202D00C4EB0425E
:1032C00003D124F00304144301E044F001041A077D
:1032D00024F0F00444EA126225F00A0301F00A0126
:1032E00019438261016270BD002C0140000400405E
:1032F0000008004010B5036A23F0100303628369DD
:10330000046A23F4704343EA023224F0A00343EA40
:1033100001118261016210BD30B5046A24F010040D
:1033200004628469056A24F4407444EA022222F4A7
:1033300070444FF6FF7202EA03322243A02425F0C4
:10334000A00304EA011119438261016230BD00004B
:103350000246104810B50B46816809B1C06828B113
:103360001846FFF7CFFE01F083FF09E01846FDF78E
:1033700013FB9042184605DAFFF7B6FEFFF766FE2C
:10338000002010BDFFF790FEFDF764FA01F070FF1A
:10339000012010BD000000202DE9F0411F4C054622
:1033A0001E46A0680F46904608B1E06828B1104656
:1033B000FFF7A8FE01F05CFF2EE06068A8420ADB80
:1033C00000F08AFA38B16068A84225DB00F084FA80
:1033D000012818D020E04046FFF786FEFFF73EFEAA
:1033E0004046FDF7D9FAB84216DB16B10C49012068
:1033F0004860FDF737FA01F03BFF4046FFF754FE07
:103400000220BDE8F0814046FFF74EFEFDF72AFAA4
:1034100001F02EFF0120F4E70020F2E70000002079
:10342000E001002000224FF480410148FDF7D7BDA4
:10343000000C014000224FF400610148FDF7CFBDB0
:10344000000C0140002204210148FDF7C8BD000026
:10345000000C014000224FF480610148FDF7BFBD20
:10346000000C0140012291030148FDF7B8BD0000A6
:10347000000C01400122D1020148FDF7B0BD00005F
:10348000000C0140012204210148FDF7A8BD000005
:10349000000C0140012291020148FDF7A0BD00008F
:1034A000000C014010B5406A0021C185C184FFF7BE
:1034B0000CF810BD0168CA6822F49072CA600168F5
:1034C0004A6922F001024A61202180F83A107047CF
:1034D00010B590F83A10222901D0022010BD826860
:1034E0004FF480539A4201D1016921B1816A9A4215
:1034F0001BD04AB10AE00268816A5268C2F308022E
:103500000A80816A891C08E0026972B10268526807
:1035100002F07F020A70816A491C8162C18D491ED6
:103520000904090CC18503D016E002685268F1E76E
:103530000168CA6822F02002CA600168CA6822F4E1
:103540008072CA6001684A6922F001024A61202142
:1035500080F83A10FFF704F9002010BD70B504465A
:1035600000680169E26821F4405111430161216959
:10357000A0680843616908432168CA6841F20C6386
:103580009A430243CA6020684169A26921F44071EC
:10359000114341611E492068884202D1FEF790F92B
:1035A00001E0FEF77DF900EBC00101EB001260685D
:1035B00064218000B2FBF0F3B3FBF1F36FF0180667
:1035C0007343B2FBF0F5B2FBF0F605EB8305322353
:1035D00003EB0515B5FBF1F5B6FBF1F605F0F005CB
:1035E00005EB0615B2FBF0F6B2FBF0F0B0FBF1F024
:1035F0006FF01802504306EB800003EB0010B0FBA5
:10360000F1F0216800F00F002844886070BD0000D0
:10361000003801402DE9F041984617460E46044611
:10362000069D1DE0681C1BD02DB1FDF7DDFCA0EB55
:103630000800A84214D92068C16821F4D071C16083
:103640002068416921F001014161202084F839009E
:1036500084F83A00002084F838000320BDE8F081A7
:103660002068006836EA000004D00020B842D9D0B3
:103670000020F3E70120F9E70148FEF727BF00002B
:10368000A0030020FEE7000002460F4810B50B46DD
:10369000816809B1C06818B101F0EAFD002010BDD1
:1036A0001846FDF779F99042184602DAFFF71CFD3B
:1036B000F4E7FDF771F99042F0DB1846FFF7F4FCF0
:1036C00001F0D6FD012010BD000000200907090E01
:1036D000002804DB00F1E02080F80014704700F0BF
:1036E0000F0000F1E02080F8141D704702E008C8C8
:1036F000121F08C1002AFAD170477047002001E06C
:1037000001C1121F002AFBD17047000070B50646A8
:103710000C48006DFCF7A7FE04460D463046FCF74A
:10372000B3FE094A094BFCF71EFE094A094BFCF798
:1037300073FD22462B46FCF76FFDBDE87040FCF799
:10374000B6BE000000000020C5FEB27BF2B0903F84
:10375000B7627FD93D391F4010B5FFF783FEFA20CD
:10376000FDF70EFBFFF75EFEBDE81040FA20FDF707
:1037700007BB000007480849012283681BB1C368E2
:10378000012B00D10A61006C044B984200DDCA6035
:103790007047000000000020E00100200000A0426F
:1037A0002DE9F0413B493C4C01260868002538B121
:1037B000206F022801D1C4E91B658E60C1E9005663
:1037C00034484FF0020C103002683AB1226F022ADE
:1037D00001D1C4E91BC58660C0E900562D4A2032DC
:1037E00002F11007136802F14008FBB1236F022BAE
:1037F00002D10323C4E91B35D3681560C2E9016314
:10380000A3B18D608560BD60C8F80850C8F80C5041
:10381000A567C0F80CC0E56301F02AFD01F03CFD8E
:103820001C48703005600320FFF73EFC386858B133
:10383000206F022802D10420C4E91B05F8683D600E
:10384000C7E9016001F028FD12484030016841B12C
:10385000216F022902D10521C4E91B158660C0E948
:103860000056D8F800104046002911D0216F0229D7
:103870000BD10621C4E91B15C168182903DA491CBC
:10388000C0E9026101E08560C5604660C8F800508B
:10389000BDE8F081700100200000002010B50D4C43
:1038A000206858B9606848B9A06838B9206928B953
:1038B000E06818B9606908B9A06948B1FFF74CFF22
:1038C00001F0D6FC206908B9E06808B1012010BDFC
:1038D000002010BDE001002010B510210348FDF7C5
:1038E00071FB08B1002010BD012010BD000801408F
:1038F0002DE9FE4F4FF0140A394CCDE9004A4FF044
:10390000FF3810230822A0213648CDF80880FDF7A3
:1039100035FC207800264FF0010904F1CC0504F1B4
:10392000EC0704F1DC0B01282ED00220E860CBF874
:103930000890BE602A49CBF80490FC31C7F8049087
:10394000C1F8049020310920C1E901966039C1F81D
:103950000490C5F80490C8602348FDF765F90C2170
:103960002248FEF7C9FB2248FEF73EFA2148FEF73F
:103970003BFA2148FEF738FA03B00122BDE8F04FC8
:103980001E491F48FEF7C2BEA8606078E860A078B4
:10399000B8601A48E178C1632179627901EB0222AB
:1039A0000F4994310A61A279E37902EB03220A609C
:1039B000217A627A01EB0221416000202654401CEA
:1039C0001428FBDB0A20FDF7DBF9CDE9004A1023C0
:1039D0000822A0210348CDF80880FDF7F7FCA9E7ED
:1039E000B40000202C020020FC010020C8020020AE
:1039F0001003002058030020800200200000002057
:103A0000A0030020FDF7B0FDFFF78CFBFFF782F964
:103A1000FFF75AF9FFF70AFAFFF7FAFAFFF790FAF9
:103A2000FFF7C2FAFFF758FAFFF720FAFFF760FF37
:103A3000594EDFF868A1A6F1600906F11007A6F15A
:103A40003008A6F1200B0025AAF18004386828B1BF
:103A5000A06818B101213D60CAF80410B068B8B17F
:103A6000D8F80800012813D10220CAF80400012167
:103A70004FF46160FFF708FE0028F06801D0401E97
:103A8000F06028B9B5600320CAF80450FFF70CFBBA
:103A9000FFF770FEFFF702FF2066606E08B101F0CD
:103AA000FBFB01F0A1FB30BBD9F8080020B3D8F82C
:103AB0000800012808D1E06C30B9D9F80C0001F0F9
:103AC000B1FC08B10120E064DBF80810584691B160
:103AD000416881B9D9F80C10DBF80C00814200D0A4
:103AE000E56401F0C5FBFFF7EBFADBF80C20C9F841
:103AF0000C20CBF8085037E0274A503A906898B32A
:103B00000320FCF749FF3C2190FBF1F12248234AB6
:103B100050381832C06802EB400232F8022C511AB9
:103B20006167D8F80810012903D061B102290AD0D1
:103B30000BE0A16809B901213960DAF8041021B954
:103B4000FFF79DFA01E001F093FBDBF808105846FF
:103B500051B1416841B91049C2685039CA60CBF8C7
:103B60000850E563CAF80050606A002806DD01F0DD
:103B70005BFBFFF715FE606A401E6062A06B10B130
:103B8000FCF740FEA563E06E00283FF45FAFFFF74F
:103B9000E3FDE5665AE70000D00100208000002028
:103BA0002DE9F041FE4CE16B481C03D0152901DAE8
:103BB000012000E00020A067A1F115000E2801D22D
:103BC000012000E000200126E06700297ED00129C5
:103BD0007DD0032540F6B830022979D08A1C78D0F0
:103BE000CA1C77D00A1D76D0032975D0EC4A00256F
:103BF0000429926E71D0052970D006296FD008274C
:103C000007296DD0CB1D6CD011F1080F6AD011F1CE
:103C1000090F68D0082967D0092966D00A297DD004
:103C20000B297CD04FF00D0841F2FC270C2977D0EE
:103C300011F10C0F75D011F10D0F73D011F10E0FA2
:103C400071D00D2970D00E296FD010270F296DD09B
:103C500011F10F0F6BD011F1100F69D011F1110F8D
:103C600067D0102966D0112965D01327122972D088
:103C700011F1120F70D011F1130F6ED011F1140F5A
:103C800031D041F60427132968D0142967D01529AB
:103C900072D0162971D0172970D018296FD0192920
:103CA0006ED01A296DD01B296CD01C296BD01D2910
:103CB0006AD01E2969D01F2968D0202967D0212900
:103CC00071D022293DD1B64880300FE01FE03AE0A4
:103CD00046E05FE068E070E077E084E099E0A1E032
:103CE000A8E0B5E0BDE0C5E0CCE0DBE00660012186
:103CF0000420FCF72AFE002823D0681EE567E06355
:103D0000A8488560BDE8F0410320FFF7CDB9032046
:103D1000A667FFF7E9F901210A200DE0F4E0FCE0D5
:103D200003E111E119E121E128E13DE144E14FE145
:103D300057E15FE16CE17EE1FFF7A6FC002800D0CF
:103D4000E663BDE8F08101211E20FCF7C3FD0028D9
:103D5000F7D002200EE076E182E18AE192E19EE175
:103D6000002301227821FFF717FB012810D0022839
:103D7000E7D1001FE063E4E7A8E1B2E1B9E1C0E107
:103D8000C7E1CEE1D6E1DDE1E5E1ECE1F4E1FBE123
:103D9000E563D6E704211E20FCF79CFD0028D0D067
:103DA0006FF00200E6E7F7E10421B420FFF76CFCB6
:103DB0000028C6D06FF00300DCE70123042278213D
:103DC000FFF7EAFA0128BCD1E2E701210A20FCF75B
:103DD0005BFD0028B5D00420E0630320FCF7DCFD88
:103DE000C0F552705CE042B90320FCF7D5FDC0F588
:103DF0005270A0660120FFF757F901222820A16E1A
:103E0000FCF7C4FC00289CD005204FF45271E063FD
:103E100058E101214FF49670FCF736FD002890D050
:103E20000620A7E701211E20FCF754FD002888D0BA
:103E300007209FE7002301227821FFF7ADFA012830
:103E400004D0022897D16FF0060093E7E76378E784
:103E500004211E20FCF73EFD00288CD06FF00700E7
:103E600088E70421B420FFF70FFC002891D06FF001
:103E700008007FE7012304227821FFF78DFA01284B
:103E800087D1E3E701210A20FCF7FEFC0028DED001
:103E90000920E0630320FCF77FFDA0F624104042D8
:103EA000A0664EE782B90320FCF776FDA0F6241049
:103EB0004042A0660120FCF76FFD01460220FFF79B
:103EC00009F90120FFF7F0F8607828B901223C20B9
:103ED000A16EFCF75BFC6070A07820B902215A202B
:103EE000FFF736FAA07060780028B0D0A0780028DC
:103EF000ADD00A20E06340F624110320FFF7EAF872
:103F0000A5706570A5661CE7012140F63400FCF73A
:103F1000BBFC00289BD00B202CE701211E20FCF7C6
:103F2000D9FC002893D00C2024E70023012278211B
:103F3000FFF732FA012804D0022888D16FF00B0075
:103F400018E7C4F83C80A5E004211E20FCF7C2FC61
:103F50000028A6D06FF00C000CE70421B420FFF776
:103F600093FB00289DD06FF00D0003E7012304228E
:103F70007821FFF711FA012893D1E2E73AB901203D
:103F8000FFF792F80320FCF707FD381AA06601211D
:103F9000A06EFCF779FC0028B5D00E2049E00000A7
:103FA00000000020A001002001211E20FCF792FC4F
:103FB0000028A8D00F20DDE6002301227821FFF79A
:103FC000EBF901281DD002289DD16FF00E00D1E63B
:103FD00004211E20FCF77EFC002894D06FF00F0017
:103FE000C8E60421B420FFF74FFB00288BD06FF008
:103FF0001000BFE6012304227821FFF7CDF9012844
:104000009BD10320E763FCF7C7FCC0F5A55047E749
:1040100042B90120FFF748F80320FCF7BDFCC0F5CA
:10402000A550A0660121A06EFCF72EFC002890D0C0
:104030001120E06366E701211E20FCF74BFC0028FD
:1040400087D0122096E6002301227821FFF7A4F9F9
:1040500001283FF416AF02288ED16FF0110089E6D7
:1040600004211E20FCF736FC002895D06FF01200CA
:1040700080E60421B420FFF707FB00288CD06FF006
:10408000130077E601210A20FCF7FEFB002890D000
:104090001420E0630320FCF77FFC381A00E73AB9EC
:1040A0000120FFF701F80320FCF776FC381AA06620
:1040B00001224120A16EFCF769FB00288DD015205C
:1040C0003946E0630320FFF705F81BE701213C2098
:1040D000FCF7DAFB002889D01620E063C4E91E56FD
:1040E0002FE601211E20FFF7CFFA0028F8D0172075
:1040F00040E601211E20FCF7EDFB0028F0D018203F
:1041000038E601219620FFF7BFFA0028E8D01920F1
:1041100030E601211E20FCF7DDFB0028E0D01A204C
:1041200028E6012140F2B220FFF7AEFA0028D7D0EE
:104130001B201FE601211E20FCF7CCFB0028CFD05E
:104140001C2017E6012140F2CE40FFF79DFA00281F
:10415000C6D01D200EE601211E20FCF7BBFB002867
:10416000BED01E2006E6012140F29240FFF78CFAF5
:104170000028B5D01F20FDE501211E20FCF7AAFB79
:104180000028ADD02020F5E501213C20FFF77CFA86
:104190000028A5D02120EDE501213C20FCF79AFB69
:1041A00000289DD02220E5E52DE9F041F74CE16B98
:1041B000481C03D00D2901DA012000E00020A0678F
:1041C000A1F10D000D2801D2012000E00020012600
:1041D000E067E9B3012973D0032540F6B83002291E
:1041E00076D08A1C69D0CA1C68D00A1D67D0E74AFD
:1041F00000250329926E77D0042976D00627052959
:1042000074D04B1D73D08B1D72D0CB1D71D006297D
:1042100070D007296FD008296ED009296DD00B27DF
:104220000A296BD011F10A0F69D011F10B0F67D079
:1042300011F10C0F5DD00B2973D00C2972D00D2910
:1042400071D00E2970D00F296FD010296ED000E0E8
:1042500024E011296BD012296AD0132969D01429BE
:1042600068D0152967D016296FD017296ED0182964
:104270006DD019291DD1C548012180300660042068
:10428000FCF763FB002814D0681EE567E063C048B4
:104290008560BDE8F0410320FEF706BF0320A66756
:1042A000FEF722FF01210A20FFF7EEF9002800D0D7
:1042B000E663BDE8F08103E00AE029E03CE047E086
:1042C00001211E20FCF706FB0028F2D0022009E0A5
:1042D000002301227821FFF75FF8012811D002287E
:1042E000E7D1001FE063E4E73AE04CE053E05FE031
:1042F00067E06FE076E084E0B4E0BCE0C3E0CEE0ED
:10430000D6E00320E563FCF747FBC0F5C36076E029
:1043100004211E20FCF7DEFA0028CAD06FF002004C
:10432000E0E7CEE0DBE0F3E0FDE004E10BE112E1E9
:104330001AE121E12EE135E10421B420FFF7A4F9CF
:104340000028B6D06FF00300CCE734E13BE142E156
:10435000012304227821FFF71FF80128A9D1D0E713
:1043600042B90320FCF718FBC0F5C360A06601202A
:10437000FEF79AFE0121A06EFCF786FA002898D07D
:104380000420E0636CE001211E20FCF7A3FA002862
:104390008FD00520A6E7002301227821FEF7FCFF3D
:1043A000012803D0022884D1C01F9BE7E76380E780
:1043B00004211E20FCF78EFA002894D06FF005002F
:1043C00090E70421B420FFF75FF900288BD06FF04D
:1043D000060087E7012304227821FEF7DDFF01288C
:1043E000E5D1E3E701210A20FCF74EFA0028DED0F0
:1043F0000720E0630320FCF7CFFAC0F52560A06634
:1044000057E77AB90320FCF7C7FAC0F52560A06624
:104410000120FCF7C1FA01460220FEF75BFE0120F5
:10442000FEF742FE607828B901222D20A16EFCF72C
:10443000ADF96070A07820B902215A20FEF788FFFC
:10444000A07060780028B2D0A0780028AFD00820F3
:10445000E0634FF425610320FEF73CFEA570657014
:10446000A56626E701214FF46160FCF70DFA0028EC
:104470009DD0092036E701211E20FCF72BFA0028E9
:1044800095D00A202EE7002301227821FEF784FF31
:1044900001288BD002288AD16FF0090022E704217D
:1044A0001E20FCF717FA0028AAD06FF00A0019E7BF
:1044B0000421B420FFF7E8F80028A1D06FF00B002A
:1044C00010E701210A20FCF7DFF9002898D00C2022
:1044D000E0630320FCF760FAC0F5E1508FE742B9D2
:1044E0000320FCF759FAC0F5E150A0660120FEF761
:1044F000DBFD01223C20A16EFCF748F90028B0D07A
:104500000D20E0634FF4E1510320FEF7E3FDA7E740
:1045100001213C20FCF7B8F90028A2D00E20E0636E
:10452000C4E91E56C5E601211E20FCF7D3F9002878
:1045300097D00F20D6E601219620FFF7A5F8002896
:104540008FD01020CEE601211E20FCF7C3F90028F1
:1045500087D01120C6E6012140F2B220FFF794F87F
:104560000028DFD01220BDE601211E20FCF7B2F9A1
:104570000028D7D01320B5E6012140F2CE40FFF746
:1045800083F80028CED01420ACE600000000002004
:10459000A001002001211E20FCF79CF90028C1D0B9
:1045A00015209FE6012140F29240FFF76DF80028A8
:1045B000B8D0162096E601211E20FCF78BF90028C2
:1045C000B0D017208EE601213C20FFF75DF80028CF
:1045D000A8D0182086E601213C20FCF77BF90028B2
:1045E000A0D019207EE600002DE9F041FE4CE16BE1
:1045F000481C03D0112901DA012000E00020A06747
:10460000A1F11100082801D2012000E000200126BC
:10461000E067E9B301297BD0032540F6B8300229D1
:104620007ED08A1C6FD0CA1C6ED00A1D6DD0EE4A97
:1046300000250329926E69D0042968D00627052930
:104640007AD04B1D79D08B1D78D0CB1D77D0062921
:1046500076D0072975D0082974D0092973D00C2782
:104660000A2971D011F10A0F6FD011F10B0F6DD023
:1046700011F10C0F6BD00C296AD00D2969D00F27CE
:104680000E2967D011F10E0F75D011F10F0F00E058
:104690002AE071D011F1100F51D00F296DD01029DF
:1046A0006CD011296BD012296AD0132969D0142932
:1046B00068D0152967D016296FD017296ED0182910
:1046C0001DD1C9480121803006600420FCF73DF966
:1046D000002814D0681EE567E063C4488560BDE823
:1046E000F0410320FEF7E0BC0320A667FEF7FCFCC8
:1046F00001210A20FEF7C8FF002800D0E663BDE8CC
:10470000F08105E00CE02DE03EE048E04FE060E0A5
:1047100001211E20FCF7DEF80028F0D0022009E07D
:10472000002301227821FEF737FE012813D002284A
:10473000E5D1001FE063E2E753E05FE067E06FE090
:1047400076E084E0B4E0BCE0C3E0CEE0D6E0DEE0BA
:10475000EBE0FDE004E10320E563FCF71DF9C0F5A3
:10476000257072E004211E20FCF7B4F80028C6D0A2
:104770006FF00200DEE700E108E110E11DE13AE13F
:1047800044E14BE152E15AE10421B420FEF77CFF01
:104790000028B4D06FF00300CCE758E160E10123BA
:1047A00004227821FEF7F8FD0128A8D1D3E742B909
:1047B0000320FCF7F1F8C0F52570A0660120FEF794
:1047C00073FC0121A06EFCF75FF8002897D004204D
:1047D000BCE001211E20FCF77DF800288FD00520C9
:1047E000A8E7002301227821FEF7D6FD012803D097
:1047F000022884D1C01F9DE7E76380E704211E20C3
:10480000FCF768F8002896D06FF0050092E70421C5
:10481000B420FEF739FF00288DD06FF0060089E73D
:10482000012304227821FEF7B7FD0128E5D1E3E753
:1048300001210A20FCF728F80028DED00720E063D9
:104840000320FCF7A9F8C0F5D260A06657E77AB953
:104850000320FCF7A1F8C0F5D260A0660120FCF7A8
:104860009BF801460220FEF735FC0120FEF71CFCF8
:10487000607828B901222D20A16EFBF787FF6070B8
:10488000A07820B902215A20FEF762FDA07060785E
:104890000028B2D0A0780028AFD00820E0634FF401
:1048A000D2610320FEF716FCA5706570A56626E7A9
:1048B00001214FF41660FBF7E7FF00289DD0092087
:1048C00038E701211E20FCF705F8002895D00A20C2
:1048D00030E7002301227821FEF75EFD01281DD07C
:1048E00002288AD16FF0090024E704211E20FBF77B
:1048F000F1FF0028AAD06FF00A001BE70421B420C2
:10490000FEF7C2FE0028A1D06FF00B0012E70123D2
:1049100004227821FEF740FD012897D10320E763A8
:10492000FCF73AF8C0F587508FE742B90320FCF74F
:1049300033F8C0F58750A0660120FEF7B5FB0121D2
:10494000A06EFBF7A1FF0028B1D00D20E063ADE71A
:1049500001211E20FBF7BEFF0028A8D00E20E9E6AB
:10496000002301227821FEF717FD01283FF45FAFF5
:1049700002289CD16FF00D00DCE604211E20FBF71D
:10498000A9FF002893D06FF00E00D3E60421B420D5
:10499000FEF77AFE00288AD06FF00F00CAE60121E8
:1049A0000A20FBF771FF002888D01020E063032065
:1049B000FBF7F2FFC0F5A55047E742B90320FBF72C
:1049C000EBFFC0F5A550A0660120FEF76DFB0122AC
:1049D0003720A16EFBF7DAFE00288BD01120E063B0
:1049E0004FF4A551032003E000000020A0010020A7
:1049F000FEF770FB5AE701213C20FBF745FF00283A
:104A0000A2D01220E063C4E91E5678E60121962068
:104A1000FEF73AFE0028F8D013208BE601211E2075
:104A2000FBF758FF0028F0D0142083E6012140F264
:104A30009E70FEF729FE0028E7D015207AE60121B6
:104A40001E20FBF747FF0028DFD0162072E6012169
:104A500040F2EC40FEF718FE0028D6D0172069E699
:104A600001213C20FBF736FF0028CED0182061E65C
:104A70002DE9F041EA4CE06B411C03D00F2801DA2C
:104A8000012100E00021A167A0F10F01042901D25A
:104A9000012100E000214FF00108E167F0B3012897
:104AA00065D0032540F6B836022868D0811C7CD03A
:104AB000C11C72D0011D71D0032870D0D8490025C7
:104AC0000428896E6CD04FF49672052869D00628A8
:104AD00068D00827072871D0C31D70D010F1080FC7
:104AE0006ED010F1090F6CD008286BD009286AD05D
:104AF0000A2869D00B2868D00D270C286FD010F138
:104B00000C0F6DD010F10D0F6BD010F10E0F58D0AF
:104B10000D2867D00E286FD00F2800E01AE06CD067
:104B200010286BD011286AD012281ED1BC4904204D
:104B30008031C1F800800121FBF707FF002814D065
:104B4000681EE567E063B7488560BDE8F041032073
:104B5000FEF7AABA0320FEF7C7FA01210A20FEF7E2
:104B600093FD002801D0C4F83C80BDE8F08101210C
:104B70001E20FBF7AFFE0028F7D002200AE000233A
:104B8000012278213046FEF707FC01280BD00228CD
:104B9000EBD1001FE063E8E707E017E023E02FE038
:104BA0003CE051E058E0E563DFE704211E20FBF71D
:104BB00091FE0028D9D06FF00200EBE754E062E0EC
:104BC0006AE072E07AE089E0BAE0C1E00421B42052
:104BD000FEF75AFD0028C8D06FF00300DAE7BFE007
:104BE000CBE0D3E0DBE00123042278213046FEF75E
:104BF000D3FB0128B9D1D6E7E0E0F9E000E107E115
:104C000001210A20FBF740FE0028AED00420E0631B
:104C10000320FBF7C1FEC0F587605DE041B90320CA
:104C2000FBF7BAFEC0F58760A0660120FEF73CFAEC
:104C300001223220A16EFBF7A9FD002895D00520A6
:104C40004FF48761E063CFE001211046FBF71CFEC3
:104C500000288AD006209DE701211E20FBF73AFE9E
:104C6000002882D0072095E70023012278213046D2
:104C7000FEF792FB012804D002288CD16FF00600C9
:104C800088E7E76371E704211E20FBF723FE002875
:104C90008AD06FF007007DE70421B420FEF7F4FC12
:104CA0000028EFD06FF0080074E701230422782178
:104CB0003046FEF771FB0128E4D1E2E701210A202A
:104CC000FBF7E2FD0028DDD00920E0630320FBF7BD
:104CD00063FEA0F2BC706FE0A06646E781B90320D6
:104CE000FBF75AFEA0F2BC704042A0660120FBF721
:104CF00053FE01460220FEF7EDF90120FEF7D4F93C
:104D0000607828B901222820A16EFBF73FFD607072
:104D1000A07820B902215A20FEF71AFBA070607813
:104D20000028AFD0A0780028ACD00A20E06340F281
:104D3000BC710320FEF7CEF9A5706570A56614E777
:104D400001211046FBF7A0FD00289BD00B2021E796
:104D500001211E20FBF7BEFD002893D00C2019E78F
:104D60000023012278213046FEF716FB012888D067
:104D7000022887D16FF00B000CE704211E20FBF7FF
:104D8000A9FD0028A9D06FF00C0003E70421B4208E
:104D9000FEF77AFC0028A0D06FF00D00FAE60121A2
:104DA0000A20FBF771FD002897D00E20E063032056
:104DB000FBF7F2FDA0F66C4040428DE749B90320B5
:104DC000FBF7EAFDA0F66C404042A0660120FEF72A
:104DD0006BF901223C20A16EFBF7D8FC0028AED075
:104DE0000F2040F66C41E0630320FEF773F9A5E75E
:104DF00001213C20FBF748FD0028A0D01020C9E687
:104E000001211046FEF740FC002898D01120C1E691
:104E100001213C20FBF75EFD002890D01220B9E66E
:104E200000000020A00100202DE9F041A14CE06B22
:104E3000411C03D00D2801DA012100E000214FF0D0
:104E40000108A167E8B301284DD0032540F6B83624
:104E5000022850D0811C5DD0C11C64D0011D6BD0D4
:104E6000032879D0934900270428896E6ED005283D
:104E70006DD006286CD0082507286AD0C21D69D0DD
:104E800010F1080F67D010F1090F55D0082871D024
:104E9000092870D00A286FD00B286ED00C2820D19A
:104EA000844904208031C1F800800121FBF74DFDC9
:104EB000002816D0781EA767E0637F48876003202C
:104EC00000E003E0BDE8F041FEF7EEB80320FEF796
:104ED0000BF901210A20FEF7D7FB002801D0C4F806
:104EE0003C80BDE8F08101211E20FBF7F3FC002887
:104EF000F7D002200AE00023012278213046FEF795
:104F00004BFA012804D00228EBD1001FE063E8E748
:104F1000E563E6E704211E20FBF7DCFC0028E0D077
:104F20006FF00200F2E70421B420FEF7ADFB002889
:104F3000D7D06FF00300E9E701230422782130463F
:104F4000FEF72AFA0128CCD1E2E705E016E046E0B8
:104F50004EE055E061E069E001210A20FBF794FC96
:104F60000028BED00420E0630320FBF715FDC0F548
:104F7000527072E063E072E08CE093E079B9032054
:104F8000FBF70AFDC0F55270A0660120FBF704FD97
:104F900001460220FEF79EF80120FEF785F86078B2
:104FA00028B901222820A16EFBF7F0FB6070A078E1
:104FB00020B902215A20FEF7CBF9A07060780028B2
:104FC0008FD0A07800288CD00520E0634FF4527178
:104FD0000320FEF77FF8A7706770A76681E70121BD
:104FE0004FF4F070FBF750FC002890D006208DE7BE
:104FF00001211E20FBF76EFC002888D0072085E7E2
:105000000023012278213046FEF7C6F901289BD003
:105010000228E3D16FF0060078E704211E20FBF799
:1050200059FC0028DAD06FF007006FE70421B420A4
:10503000FEF72AFB0028D1D06FF0080066E70121B7
:105040000A20FBF721FC0028C8D00920E0630320D8
:10505000FBF7A2FCA0F2BC704042A06641E749B950
:105060000320FBF799FCA0F2BC704042A06601202F
:10507000FEF71AF801222D20A16EFBF787FB00280E
:10508000ACD00A20E063BDE8F04140F2BC710320DF
:10509000FEF720B801217820FBF7F6FB00289DD011
:1050A0000B2033E701213C20FBF714FC002895D0AE
:1050B0000C202BE700000020A001002070B5484C18
:1050C000E16B481C03D0062901DA012000E0002032
:1050D0000125A06731B301292FD0032640F6B8304F
:1050E000022932D08A1C44D0CA1C4BD00A1D52D08F
:1050F0000026032957D004296AD005291CD1384835
:105100000121803005600420FBF71FFC002813D02C
:10511000A81EA667E06333488660BDE870400320A0
:10512000FDF7C2BF0320FDF7DFFF01210A20FEF7D4
:10513000ABFA002800D0E56370BD01211E20FBF70B
:10514000C9FB0028F8D0022009E0002301227821C1
:10515000FEF722F9012804D00228EDD1001FE063F8
:1051600070BD0320E663FBF717FCC0F51670A06660
:1051700070BD04211E20FBF7ADFB0028F8D06FF0B6
:105180000200ECE70421B420FEF77EFA0028EFD0FD
:105190006FF00300E3E7012304227821FEF7FCF817
:1051A0000128E5D1DDE7A06E40B90320FBF7F4FB51
:1051B000C0F51670A0660120FDF776FF0121A06EF4
:1051C000FBF762FB0028D3D00420A666E06370BD25
:1051D00001213C20FBF77EFB0028F8D00520BEE72C
:1051E00000000020A00100200E48016909B105203F
:1051F0007047C16809B104207047016809B10120F6
:105200007047416809B102207047816809B10320E5
:105210007047416909B10620704780690028FBD0BA
:1052200007207047E0010020104800F1A802017932
:10523000116010324179116000F1C80182790A6071
:10524000C279CA601031027A0A60427ACA601031AB
:10525000827A0A60C27ACA6000F1F802017B1160AA
:1052600002F11001407B086070470000C800002078
:1052700010B5FBF7F7FAFBF7EDFAFEF7E3F8FEF7E8
:10528000E9F8FBF7F7FA0120FDF73CFFBDE8104015
:105290000220FDF737BF00000449002088608861C4
:1052A000486048610249486670470000E0010020FC
:1052B00000000020F0B55C1D91B0E5B25A248DF8D5
:1052C0000040A5248DF801408DF802100DEB030677
:1052D0008DF80330194431716C4600210BE004EB6A
:1052E000010C575C8CF8047012F801C03779491C26
:1052F00067443771C9B29942F1D3C8232A4621467F
:10530000FDF7A0FA11B0F0BD2DE9F05F414E424D1E
:10531000A6F168043179A86A04F1780704F18809D4
:105320002154401C317A2154401C317B2154401CB3
:1053300039792154401C397A2154401C397B21543D
:10534000401C99F804102154401C99F8081021546D
:1053500004F1980B401C9BF804102154401C9BF84E
:105360000810215404F1A80A401C9AF80410215492
:10537000401C9AF808102154401CA862FFF734FF23
:10538000A96ADFF898806054491C95F8740060544D
:10539000491CA96204214046FBF714FEA96A605427
:1053A000491CA96202214046FBF70CFEA96A04F1E0
:1053B000C80822466054491C95F878006054491C7E
:1053C00095F87C00605405F18000491C0078605419
:1053D000491C98F804006054491C98F8080060546F
:1053E000491C98F80C006054491CCBB2A9620021FA
:1053F0000B48FFF75FFF0020A86270607860C9F873
:105400000400CBF80400CAF80400C8F80400BDE8A2
:10541000F09F000070010020000000200008014003
:10542000A00300200246244810B58168234881B1BA
:1054300000210160FFF7D8FE00283CD140F6B830CB
:105440000A2A37D2DFE802F0302A241E172A100D6C
:1054500007170121EDE70121BDE810400320FDF70A
:1054600077BF01211E200FE001220A21BDE8104074
:105470003C20FBF78BB90123BDE810401A46782188
:10548000FDF78ABF01210A20BDE81040FBF7FCB9F7
:105490000121BDE810405A20FBF756B90121BDE8B3
:1054A00010401E20FBF716BA0121BDE81040022073
:1054B000FBF74BBA002010BD00000020E0010020E7
:1054C00000000000000000000102030406070809B4
:1054D0000000000001020304F8540008000000204E
:1054E000B4000000EC360008AC550008B400002001
:1054F0002C070000FC36000800000000000000003F
:10550000000000000000000000000000000000009B
:10551000000000000000000000000000000000008B
:10552000000000000000000000000000000000007B
:10553000000000000000000000000000000000006B
:10554000000000000000000000000000000000005B
:10555000000000000000000000000000000000004B
:10556000000000000000000000000000000000003B
:10557000000000000000000000000000000000002B
:10558000000000000000000000000000000000001B
:10559000A900B20093003C0024000B0001000000B1
:0C55A00010000000000000000024F400D7
:04000005080000ED02
:00000001FF
